:100000000C94A8060C94EF060C94EF060C94EF06E3
:100010000C94EF060C94EF060C94EF060C94EF068C
:100020000C94EF060C94EF060C94ED1B0C94291B1A
:100030000C94E9230C94EF060C94EF060C94EF0655
:100040000C94EF060C94EF060C94EF060C94EF065C
:100050000C94EF060C949C230C94EF060C94EF0682
:100060000C94EF060C94EF060C94EF060C94EF063C
:100070000C94EF060C94EF060C94EF060C94EF062C
:100080000C94EF060C94EF060C94EF060C94EF061C
:100090000C94EF060C94EF060C94EF060C94EF060C
:1000A0000C94EF060C94EF060C94EF06540D540DCF
:1000B0008E0D8E0DE70D020F020F020F030E770E4D
:1000C000880E880ED413D713FA1307140E142E14A7
:1000D0003114731495143F153F15A014A214A614DF
:1000E000CE14F314F614F9141D153D1964190B1BE5
:1000F00064190B1BB019D3190B1BC81AD81A042B7F
:10010000042B172B172B0D2B172B172B172B042B0F
:10011000042B122B172B172B122B000000000000B2
:1001200000000000000000000000000000000000CF
:1001300000000000000000000000000000007E0F32
:1001400000D4FFFFFFC7000000780000000000009F
:1001500000002A2B28000000000000000000000022
:10016000000000000029000000002C1E3420212285
:1001700024342627252E362D3738271E1F202122EE
:10018000232425263333362E37381F040506070867
:10019000090A0B0C0D0E0F10111213141516171857
:1001A000191A1B1C1D2F3130232D35040506070895
:1001B000090A0B0C0D0E0F10111213141516171837
:1001C000191A1B1C1D2F3130354C202020202020D7
:1001D00020202020202020202020202020200A0055
:1001E0002F0A002A0A002D0A002B0A0000DA0281D9
:1001F000FFD9F1DB20A4A62EAF00A0C000A1C8004B
:10020000AED580A81FD300408D14200064321400A6
:1002100000000000000000000000000000000000DE
:1002200000000000000000000000000000000000CE
:10023000000000000000000000003FBFDFE7E767AC
:1002400037DBCB0B0B0BCBCFEDF5F5F5F5F5F5F576
:10025000F5F5F5FBFB8B0D05C5454565BDC3FFFFFA
:10026000FFFFFFFFFF000000000000000000000093
:10027000000000000000000000000000000000007E
:10028000000000000000000000000000000000006E
:10029000000000000000000000000000000000005E
:1002A000000000000000000000000000000000004E
:1002B00000000000000000000000E3E6C7CFDFFE02
:1002C000FEFDBA8AC200FFF3E3FFFFFFFFFFFFFF5F
:1002D000FFFFFFF9F1FBF8040EFEFE3187FFFFFF81
:1002E000FFFFFFFFFF000000000000000000000013
:1002F00000000000000000000000000000000000FE
:1003000000000000000000000000000000000000ED
:1003100000000000000000000000000000000000DD
:1003200000000000000000000000000000000000CD
:1003300000000000000000000000BFDFCFCFFFFD85
:10034000F8F1F3F3FFFFF0670F3F7FFFFFAF6F4F51
:100350000F0F4F6FBF1FC1CCFE3F1F9EE1FFFFFF7E
:10036000FFFFFFFFFF000000000000000000000092
:10037000000000000000000000000000000000007D
:10038000000000000000000000000000000000006D
:10039000000000000000000000000000000000005D
:1003A000000000000000000000000000000000004D
:1003B00000000000000000000000FFFFFFEFCFCFB3
:1003C000DFDFDFD9F9F8F8ECEEDFDFFEFCDDD9D9AD
:1003D000D9D9D9C1EEFFFFFFCF0E06E1FFFFFFFF26
:1003E000FFFFFFFFFF000000000000000000000012
:1003F00000000000000000000000000000000000FD
:100400000000000000000000000000000000005597
:100410006E646566696E6564004C617965723A2048
:100420000041444A0A004C617965723A2000202D4F
:100430002D2D2D2043616C63756C61746F72202DBE
:100440002D2D2D0A004D6163726F0A004C61796594
:10045000723A20004E756D7061640A004C617965D6
:10046000723A200000AE05010980A101850319013F
:100470002AB700150126B700950175108100C00547
:100480000C0901A101850419012AA002150126A069
:1004900002950175108100C005010906A1018505BD
:1004A000050719E029E71500250195087501810266
:1004B0000507190029EF1500250195F07501810246
:1004C0000508190129059505750191029501750326
:1004D0009101C00660FF0961A1010962150026FFB4
:1004E000009520750881020963150026FF009520FC
:1004F00075089102C005010906A101050719E02947
:10050000E71500250195087501810295017508819F
:10051000010507190029FF150026FF00950675083B
:1005200081000508190129059505750191029501BC
:1005300075039101C009025B00030100A0FA0904E0
:100540000000010301010009211101000122400006
:100550000705810308000A090401000203000000E6
:100560000921110100012222000705820320000158
:100570000705030320000109040200010300000035
:10058000092111010001226D000705840320000AE2
:100590001201000200000008EDFE6969010001027D
:1005A00000011403530068006500650070007900C5
:1005B00050006100640000001003430069007000F7
:1005C00075006C006F007400000004030904070844
:1005D0007F0807003E5B4F5B3E003E6B4F6B3E006B
:1005E0001C3E7C3E1C00183C7E3C18001C577D576E
:1005F0001C001C5E7F5E1C0000183C180000FFE71A
:10060000C3E7FF00001824180000FFE7DBE7FF0046
:1006100030483A060E00262979292600407F050534
:100620000700407F05253F005A3CE73C5A007F3ECB
:100630001C1C0800081C1C3E7F0014227F22140092
:100640005F5F005F5F0006097F017F00006689959C
:100650006A0060606060600094A2FFA294000804D9
:100660007E04080010207E20100008082A1C0800C4
:10067000081C2A0808001E10101010000C1E0C1E6A
:100680000C0030383E383000060E3E0E06000000EA
:100690000000000000005F000000000700070000ED
:1006A000147F147F1400242A7F2A12002313086465
:1006B0006200364956205000000807030000001C65
:1006C000224100000041221C00002A1C7F1C2A003D
:1006D00008083E080800008070300000080808087C
:1006E00008000000606000002010080402003E5175
:1006F00049453E0000427F4000007249494946009A
:100700002141494D33001814127F100027454545FB
:1007100039003C4A49493100412111090700364955
:1007200049493600464949291E00000014000000CE
:100730000040340000000008142241001414141476
:1007400014000041221408000201590906003E412C
:100750005D594E007C1211127C007F4949493600D8
:100760003E41414122007F4141413E007F4949498C
:1007700041007F09090901003E41415173007F0892
:1007800008087F0000417F4100002040413F0100F8
:100790007F08142241007F40404040007F021C023D
:1007A0007F007F0408107F003E4141413E007F09E9
:1007B000090906003E4151215E007F0919294600C2
:1007C00026494949320003017F0103003F40404070
:1007D0003F001F2040201F003F4038403F0063146F
:1007E000081463000304780403006159494D430071
:1007F000007F4141410002040810200000414141B6
:100800007F00040201020400404040404000000319
:10081000070800002054547840007F2844443800E2
:10082000384444442800384444287F003854545401
:10083000180000087E09020018A4A49C78007F0814
:100840000404780000447D4000002040403D00004A
:100850007F102844000000417F4000007C047804A1
:1008600078007C0804047800384444443800FC18BC
:100870002424180018242418FC007C080404080010
:1008800048545454240004043F4424003C40402075
:100890007C001C2040201C003C4030403C00442890
:1008A000102844004C9090907C004464544C4400C8
:1008B00000083641000000007700000000413608C3
:1008C00000000201020402003C2623263C00000036
:1008D00000000000404040F0F8F8FF38FFF8F83F13
:1008E000F8F8FF38FFF8F8F0404040000000000042
:1008F0000080C0C0C0800000C0C08000000080C078
:10090000C000C0C0000080C0C00000000000C0C027
:10091000C0C0C000C0C00000000000000000000017
:1009200000000000000000000000000000000000C7
:1009300000000000000000000000000000000000B7
:1009400000000000000000000000000000C0F0F8FF
:10095000FC3E1E06010000007F4141417F007F41B7
:1009600041417F000080C0E07E5B4F5BFEC0000025
:10097000C000DCD7DEDEDED7DC00C00000000000F7
:100980000000000000000000000000000000000067
:1009900000000000494949FFFFFFFFE0DFBFBF0043
:1009A000BFBFDFE0FFFFFFFF494949000000000033
:1009B0001F3F6060E0BF1F007F7F071E381E077F5C
:1009C0007F007F7F0E1F3B716000000000007F7F73
:1009D0000C0C0C007E7E007F7E0303007F7E0303F1
:1009E0007E7E03037F7E000F3E703C063C703E0F10
:1009F00000327B49493F7E007F7E0303001E3F6932
:100A0000696F2600000000000000000000030F1FB7
:100A10003F3C7870600000007F4141417F007F4192
:100A200041417F00307B7F7830202030787F3B0051
:100A300003000F7F0F0F0F7F0F0003000000000067
:100A400000000000000000000000000000000000A6
:100A500000000000010101070F0F7F0F7F0F0F7EC5
:100A60000F0F7F0F7F0F0F07010101000000000033
:100A70000000000000010100000000000000000074
:100A80000000000000000000000000000000000066
:100A90000000000000000000000000000000000056
:100AA0000000000000000000000000000000000046
:100AB0000000000000000000000000000000000036
:100AC0000000000000000000000000000000000026
:100AD0000000000000000000000000000000000016
:100AE0000000000000000000000000000000000006
:100AF00000000000000000000000000000000000F6
:100B00000000000000000000000000000000FFAA3C
:100B10007F5540AE00000000000000000000000013
:100B2000402F0030005400000058002602270255D4
:100B30000000005F0060006100560000005C005D86
:100B4000005E005700000059005A005B006200AED2
:100B50000000000000000000000000010001000192
:100B6000000100000001000100010001000000017F
:100B7000000100010001000000010001000100016E
:100B80000000000100010001000100AE00000000B3
:100B9000000000000000000100745D735D725D00E4
:100BA00000695D6A5D6B5D715D0000665D675D6833
:100BB0005D705D0000635D645D655D6F5D0000629A
:100BC0005D6D5D6C5D6E5DAE0000000000000000BC
:100BD0000000000100C25CD45CD05C0000C55CC6B3
:100BE0005CC75CC85C0000C95CCA5CCB5CCC5C00C8
:100BF0000000000000000000000000005C00000099
:100C000000DE5C00AF20202020202020202020209B
:100C10002020202020202020200A003D20202020ED
:100C200020496D6167696E61727920526F6F74211E
:100C30000A002020202000534352200020202020A2
:100C400000434150200020202020004E554D200020
:100C5000000101010101010101010202020202027F
:100C60000202020303030303030303040404040452
:100C70000404050505050506060606060707070719
:100C80000708080808090909090A0A0A0B0B0B0CCE
:100C90000C0C0D0D0D0E0E0E0F0F0F10101111116B
:100CA00012121313141415151616171718181919EC
:100CB0001A1A1B1B1C1D1D1E1E1F20202122222351
:100CC0002424252626272829292A2B2C2D2D2E2F92
:100CD00030313232333435363738393A3B3C3D3EA9
:100CE0003F404142434445464748494A4C4D4E4F98
:100CF00050515354555658595A5B5D5E5F6162645A
:100D0000656668696B6C6D6F7072737577787A7BE6
:100D10007D7E8082838587888A8C8E8F919395963D
:100D2000989A9C9EA0A2A3A5A7A9ABADAFB1B3B55D
:100D3000B7BABCBEC0C2C4C6C9CBCDCFD1D4D6D839
:100D4000DBDDDFE2E4E7E9EBEEF0F3F5F8FAFDFFD7
:100D500011241FBECFEFDAE0DEBFCDBF04B603FE25
:100D600027C08091EF049091F004A091F104B0911C
:100D7000F2048730904BA740B04BD1F41092EF04AF
:100D80001092F0041092F1041092F20414BE84B791
:100D9000877F84BF0FB6F894A89580916000886122
:100DA00080936000109260000FBEE0E0F8E30995C8
:100DB00011E0A0E0B1E0E0E0F4E602C005900D92A1
:100DC000AC3AB107D9F724E0ACEAB1E001C01D921A
:100DD000AF3EB207E1F70E94570F0C94FE310C941E
:100DE00000003F924F925F926F927F928F929F92FC
:100DF000AF92BF92CF92DF92EF92FF920F931F9329
:100E0000CF93DF93CDB7DEB729970FB6F894DEBF47
:100E10000FBECDBFFC018081918123813481232BC2
:100E200031F09F3F31F491E08F3F19F403C091E01E
:100E300001C090E090FF02C00C943F0F7F0185E05D
:100E4000DE01119601900D928A95E1F7F70122815A
:100E500089819A81222349F00E94482A182F682FFD
:100E600089819A810E94A42A03C00E94772A182FA0
:100E700069817A81812F0E9406268C01F701828187
:100E8000882309F4F2C0980122513F4520313105F1
:100E900008F019C18FEF93E00E94952E8111EFC0E9
:100EA000025167E1862E99249394002379F08114EE
:100EB000F4E09F0609F4E3C0C4010E94952E81115D
:100EC00001C001502FEF821A920AEFCF1E821F82BB
:100ED00018861986442443945AE0352E84010F5F06
:100EE0001F4FC4010E94952E8E831F82882309F410
:100EF000C6C09FEF980F933060F48F834E8232E02C
:100F0000830E911CC8010E94952E8887811102C012
:100F1000B6C048018E010A5F1F4FF80120812223CD
:100F2000E9F2213009F04CC08181813049F4680137
:100F3000F2E0CF0ED11CF80182810E94EA2B0AC098
:100F4000823051F46801F2E0CF0ED11CF8018281A9
:100F50000E94772B860186C0833049F46801F2E055
:100F6000CF0ED11CF80182810E94452BF3CF843033
:100F700019F00F5F1F4F76C0F80122810E5F1F4FDF
:100F800080E090E030E0205331092A30310568F4E8
:100F9000389EA001399E500D1124C901840F951F60
:100FA0000F5F1F4FF8012081EDCF009709F45AC061
:100FB000EFE9FFE03197F1F700C000000197F5CFAE
:100FC000E22FF0E0E65BFE4F5490822F86958695E7
:100FD000869590E0FC01E65CFE4F64902770712CD2
:100FE000022E02C0759467940A94E2F7F1E06F2232
:100FF0007724FC01E65DFE4FA490B12C022E02C0C6
:10100000B594A7940A94E2F731E0A322BB24FC0133
:10101000E65EFE4FC490D12C02C0D594C7942A95A9
:10102000E2F781E0C822DD246114710419F081EE39
:101030000E94772BA114B10419F086EE0E94772B41
:10104000852D0E94EA2BAB2819F086EE0E94452BD5
:10105000672819F081EE0E94452BCD2819F08CE20B
:101060000E94EA2B0F5F1F4F58CF00313FE5130757
:1010700009F0FCC681E00E94D42A0E9423188091C6
:10108000A204877009F4FBC6F7018281882309F462
:10109000F6C682E029960FB6F894DEBF0FBECDBF2C
:1010A000DF91CF911F910F91FF90EF90DF90CF9044
:1010B000BF90AF909F908F907F906F905F904F9078
:1010C0003F900C94F21F0031FFE51F0711F481E0FF
:1010D00005C001312FE5120721F482E00E94E02AC9
:1010E000CCCF0A36FDE51F0739F4882341F288E0AA
:1010F00090E00E940229C3CF0B362DE5120708F0BD
:1011000016C205363DE5130731F4882309F4B7CF3D
:1011100083E090E0EECF06369DE5190708F0DEC1CA
:101120000236EDE51E0731F4882309F4A8CF80E0EC
:1011300090E0DFCF0336FDE51F0708F040C0011542
:1011400020E4120709F045C0F7019581907F59F11D
:10115000882389F180912A02882311F080FF05C03D
:1011600080E00E94D42A81E00EC090E09C01359579
:10117000279520FF0BC081E00E94D42A0E941B2AE1
:101180000E94872582E00E94E02A79CF9595879575
:101190009595879580FF73CF0E94872582E00E94F6
:1011A000D42A80E0F0CF882331F00E941B2A0E94CD
:1011B000872583E0E8CF83E00E94D42A60CF0336FE
:1011C0003DE5130709F47EC104369DE5190709F4CE
:1011D0007FC1033FFCE51F0741F190F4083D3CE56A
:1011E0001307E9F0093D9CE5190789F1073DECE596
:1011F0001E07B1F506E221EE41EE67ED7CE52CC05D
:10120000053FFCE51F07E9F0B0F0063F3CE513079A
:1012100039F507E225EE46EE66EF7CE51DC007E2F4
:1012200025EE45EE68ED7CE517C006E221EE40EEC6
:1012300063EF7CE511C007E225EE44EE64EF7CE548
:101240000BC006E221EE42EE65EF7CE505C008E248
:1012500021E045EE69ED7CE5C7010E94A7240FCF90
:10126000882309F4DEC21092CC0403308DE5180700
:1012700058F40A3F9CE5190760F4C80182509C4568
:10128000449708F0B8C205C00136EDE51E0709F025
:10129000B2C20E94061F9093D9048093D8040031F3
:1012A000FCE51F0709F4CAC008F041C008303CE55E
:1012B000130709F4A4C0F0F404309CE5190709F4FD
:1012C0008CC068F40230FCE51F0709F482C00330CB
:1012D0001C4509F0E7C08091D8048260E1C0063067
:1012E0003CE5130709F483C008F085C08091D80459
:1012F0008860D6C00C309CE5190709F490C068F4EA
:101300000A30FCE51F0709F47EC008F084C00E9483
:101310001B2B8091D8048068C3C00E303CE51307B6
:1013200009F481C008F086C08091D80494C00C3FB5
:101330009CE5190709F47BC038F50431FCE51F076B
:1013400009F49AC058F402313CE5130709F47AC055
:1013500008F07EC08091D8048F7BA2C00A3F9CE534
:101360001907F1F108F03FC005311C4509F09AC09A
:101370008091D80482FB222720F991E0922790FBEC
:1013800082F990FB83F98CC001152DE5120709F451
:1013900067C050F48091D9040E3F9CE51907C1F154
:1013A00008F05BC08D7F65C00230FDE51F0709F4C2
:1013B00071C008F46DC001361D4509F073C08091FD
:1013C000D80484FB222720F991E0922790FB84F92E
:1013D00067C08091D804816063C08091D80416C032
:1013E0008091D90416C08091D904826042C0809156
:1013F000D804806155C08091D804806251C080912A
:10140000D80480644DC08091D8048860846048C04E
:10141000826081602EC08091D8048E7F41C080910F
:10142000D8048D7F3DC08091D804877F39C08091DA
:10143000D90414C08091D8048F7E32C08091D80422
:101440008F7D2EC00E941B2B8091D8048F7728C0DF
:101450008091D804877F8B7F23C08D7F8E7F09C0CA
:101460008091D904982F909591708E7F892B90FB55
:1014700081F98093D90416C00E941B2B8091D80457
:1014800087FB222720F991E0922790FB87F908C07B
:1014900061E001C060E08EE090E00E94A92E02C0F1
:1014A0008093D8046091D8041091D90484E090E02E
:1014B0000E94A92E612F82E290E00E94A92E0E9434
:1014C0001B2BDDCD882309F4DACD81E090E011CE2D
:1014D000882309F4D4CD82E090E00BCE0736EDE509
:1014E0001E0731F4882309F4CACD85E090E001CECF
:1014F0000736FDE51F0730F4882309F4C0CD84E0EA
:1015000090E0F7CD08362DE5120731F4882309F471
:10151000B6CD86E090E0EDCD09363DE5130709F044
:1015200058CE882309F4ABCD87E090E0E2CD0037B8
:101530009DE51907A1F4882309F4A1CD8091BC0190
:1015400081119DCD83E08093BB0181E08093BA013E
:1015500063E080E00E94702583EE91E022C00137B5
:10156000EDE51E0708F071C00C36FDE51F07E1F040
:1015700008F44CC00E363DE5130709F04DC0882332
:1015800009F47DCD8091BC01811179CD81E08093FA
:10159000BB018093BA0163E080E00E94702589EE70
:1015A00091E00E9415186BCD882309F468CD9091C5
:1015B000BA018091BC019923A1F0811112C08091E0
:1015C000BB01882381F00E94722881E08093BC01D6
:1015D0006091B6017091B7018091B8019091B90105
:1015E0000DC081114CCD81E08093BC016091B201AE
:1015F0007091B3018091B4019091B5014FEF5FEF0D
:101600000E94411680E00E94502839CD882309F4B9
:1016100036CD89E090E06DCD0F369DE5190709F0D4
:10162000D8CD882309F42BCD8091BC01811127CD21
:1016300082E08093BB0181E08093BA0163E080E0A7
:101640000E94702586EE91E0ACCF0237EDE51E07D3
:1016500041F4882309F413CD0E941B2A0E94872598
:101660000ECD0237FDE51F07A0F4882309F407CD4E
:101670008091BC01811103CD84E08093BB0181E0A6
:101680008093BA0163E080E00E94702580EE91E0D3
:1016900088CF03372DE5120709F05DC0882309F4D0
:1016A000EECC8091BC018111EACC8091BA0181110C
:1016B00023C08091B2019091B301A091B401B09187
:1016C000B501BC01CD0190586093B2017093B30194
:1016D0008093B4019093B50140E050E00E94411620
:1016E0000E948725E6E3F4E001900020E9F73197B6
:1016F000E653F44062E028C08091AE019091AF01C2
:10170000A091B001B091B101BC01CD01905860939E
:10171000AE017093AF018093B0019093B10140E0AE
:1017200050E00E94411663E081E00E9470258AEC3F
:1017300091E00E941518E6E3F4E001900020E9F73B
:101740003197E653F44063E085E18E1B0E947025DB
:101750000E94FB1794CC04373DE5130709F039CDFF
:10176000882309F48CCC9091BA018091BC0191112D
:101770000FC0811184CC8091BB01811180CC8090FD
:10178000B2019090B301A090B401B090B50111C026
:10179000811175CC8091BB01882309F470CC0E9423
:1017A00072288090B6019090B701A090B801B090D7
:1017B000B90120E030E0A901C501B4010E94A930BF
:1017C00087FF07C081E00E94502881E08093BC0120
:1017D00056CCC501B4010E9421316093B6017093CB
:1017E000B7018093B8019093B9014FEF5FEF0E946A
:1017F000411680E0E8CF8091A50406319CE51907E9
:1018000009F58A7A91E009F490E09093BD0188236C
:1018100011F065E301C069E28AE494E00E943A2491
:101820000EC006311C4509F0F7C08091BD01882328
:1018300009F423C365E38AE494E00E9412240E9421
:10184000921F1DCC82720B3C9CE5190709F49FC0C6
:10185000B8F5063CFCE51F0709F485C0D8F4033C45
:101860003CE5130709F475C030F4023CECE51E07B3
:1018700009F44AC0A0C0043CFCE51F0709F46EC08F
:10188000053C2CE5120709F096C048E35CE261E4F0
:101890007CE281C0083C3CE5130709F46EC008F403
:1018A00067C0093CECE51E0709F46CC00A3CFCE586
:1018B0001F0709F080C044E15CE268E07CE26BC095
:1018C000003D2CE5120709F46EC060F40D3C9CE568
:1018D000190709F463C008F0D2CB40E553E26FE387
:1018E00073E259C0043DFCE51F0709F45FC008F42A
:1018F000C6CB053D3CE5130709F4C1CB0D358DE59D
:10190000180709F4BCCB57C08091BF0480FF1BC0EF
:101910008E7F8093BF046091BF047091C00480915A
:10192000C1049091C2040E945D2C1092AC049FEF00
:10193000E0E7F2E09150E040F040E1F700C0000045
:101940000E9471269CCB81608093BF0461E08695E4
:1019500027C046E55DE26FE57DE21DC04FE55DE233
:1019600066E57DE218C041E45CE268E37CE213C016
:1019700040E25CE26CE27CE20EC04CE25CE260E2DF
:101980007CE209C048E05CE264E17CE204C04FE331
:1019900053E260E573E20E946B2671CB61E081E067
:1019A0000E94142D6CCB67E082E002C061E188E008
:1019B0000E94592664CB0A352DE5120741F150F4F7
:1019C00001158CE51807A9F00E3D1C4529F50E946C
:1019D000221F55CB0B35EDE51E07D9F00C351D4503
:1019E000D9F48091D90482FB882780F991E0892776
:1019F00011C00E941B2B2FEF34E38CE021503040AC
:101A00008040E1F700C000000E948B2338CB81E0CA
:101A100001C080E00E94D81FF701828100811181FE
:101A2000882349F0C8010E94482AD82E682FC8018F
:101A30000E94A42A04C0C8010E94772AD82EB801A7
:101A40008D2D0E9406260E947D1D8C01982EF70187
:101A5000B280A580A2949FE0A9228091A204877001
:101A600099F0BB2089F0812F807F803421F080E2C3
:101A7000800F883048F082E00E94F21F8091A2041B
:101A80008770DD24D3948111D12CC12EC2948FE0B4
:101A9000C8228C2D90E08C30910508F0B3C1FC0178
:101AA000EA5AFF4F0C94B531812F807F1F70882335
:101AB00011F01295107FBB20B9F0112309F48EC1EB
:101AC00080E2800F883010F0911006C08091A5044C
:101AD000182B1093A50405C08091A404182B109313
:101AE000A4040E94921F7AC1802F0E94452B1123CB
:101AF00009F488C1005E1095083010F0911006C0FE
:101B00008091A50418231093A50405C08091A40416
:101B100018231093A4040E94921F74C1812F807F08
:101B20001F70803211F01295107F992021F0F1E0A2
:101B30009F1611F130C0BB20B1F0AA2081F021E046
:101B4000A2120DC08091D90482FD5CC18091A604CF
:101B5000182B181709F456C11093A60453C180918D
:101B6000A604812B10C0AA2021F031E0A31609F4AD
:101B700049C10E948C1F27C0BB2041F085E08A1517
:101B800008F440C1812F0E943B2B3CC194E09A1580
:101B900008F438C118C0BB2049F0AA2099F3F70116
:101BA000858180FF1BC18F708583ECCFAA2059F0FF
:101BB000093309F024C1FFEF27EE33E0F150204054
:101BC0003040E1F71AC1812F0E94302B1BC1812FB9
:101BD00086958695837019F0813059F013C1BB202A
:101BE00019F0C801937002C080E090E00E94852443
:101BF0000FC1BB2019F0C801937002C080E090E0D3
:101C00000E946F2405C1812F8370A9F5B110FEC019
:101C1000402F429546954770440F440F802F8F7098
:101C200090E09C01042E01C0220F0A94EAF704FF01
:101C300008C08FE090E001C0880F4A95EAF78095D0
:101C400001C080E0169516951370123069F088F483
:101C50009091A704113019F0822B892302C0922B96
:101C6000892B0E94EB2AD2C0822B9091A70489274E
:101C7000F8CF822BF6CFBB2019F0812F817001C0E5
:101C80008695882309F4C2C0402F42954695477037
:101C9000440F440F802F8F7090E09C01042E01C0F0
:101CA000220F0A94EAF704FF08C08FE090E001C019
:101CB000880F4A95EAF7809501C080E01695169541
:101CC0001370123059F078F490912A02113019F003
:101CD000822B892309C0922B892B06C0822B9091DD
:101CE0002A02892701C0822B0E94D02A8FC01F7030
:101CF000BB2039F0812F0E94E02A802F0E943B2BCD
:101D000085C0802F0E94302B812F0E94D42A7EC054
:101D1000802F92EF991659F1991538F0E0EF9E1641
:101D200059F0F1EF9F16F1F055C023EF921631F103
:101D300034EF931681F14EC0BB2079F084E08A1510
:101D400008F460C01F7181E090E001C0880F1A950F
:101D5000EAF790912A0289271BC095E09A1508F4AA
:101D600051C0F0CFBB2029F0812F8F7126C0BB203E
:101D7000D9F3812F8F710E94D42A44C0BB2039F03F
:101D80001F7181E001C0880F1A95EAF701C080E059
:101D90000E94D02A37C0BB2099F01F71812F0E946A
:101DA000E02A8091D90482FD07C0E8E01E9FC001AF
:101DB000112483608093A204812F0E94E02A22C014
:101DC00081E00E94F21FF1E0FA15E0F482E00E9447
:101DD000F21F18C0BB2031F0AA2031F2802F0E94E0
:101DE000772B10C0AA2029F2893349F42FEF37EE60
:101DF00083E0215030408040E1F700C00000802F98
:101E00000E94452B88EF8C0D843010F40E949B2497
:101E1000DD20A9F18091A20480FD31C0F70112827A
:101E20008595859585950E94E02AC7010E94F10657
:101E30008091A20485958595859529960FB6F8948D
:101E4000DEBF0FBECDBFDF91CF911F910F91FF90ED
:101E5000EF90DF90CF90BF90AF909F908F907F904A
:101E60006F905F904F903F900C94D42A01319FE582
:101E7000190709F036C982E0FEC869E2DCCC299670
:101E80000FB6F894DEBF0FBECDBFDF91CF911F918B
:101E90000F91FF90EF90DF90CF90BF90AF909F9009
:101EA0008F907F906F905F904F903F900895CF9369
:101EB000DF93CDB7DEB7AE970FB6F894DEBF0FBE97
:101EC000CDBF84B7877F84BF0FB6F894A895809163
:101ED0006000886180936000109260000FBE90E007
:101EE00080E80FB6F89480936100909361000FBE74
:101EF00085B7806885BF85B7806885BF81E29DE131
:101F00009093AD018093AC010E946D1B0E948C1BCD
:101F10008091E20084608093E200789480912002B6
:101F20008823A1F01091E9001F709091EC00892F97
:101F3000817090FD80E8182B1092E9008091E800F4
:101F400083FD0E9457181F701093E90082E084BD42
:101F500093E095BD9AEF97BD80936E000E94402656
:101F6000811102C00E9431260EE111E054E2E52EFB
:101F700051E0F52ED8018D918D018F3F11F00E9417
:101F8000661DE016F106B1F704E211E049E2E42E25
:101F900041E0F42EF80181918F018F3F11F00E94F2
:101FA000661DE016F106B1F7EEEBF1E084EC91E08E
:101FB000A5EFB1E011921D928E179F07D9F70E94ED
:101FC000171F811102C00E94221F82E090E00E9430
:101FD000952E8093EE010E94061F9093D904809362
:101FE000D8040E943322FFEF06E711E0F1500040D1
:101FF0001040E1F700C000000E9433228091F501FB
:1020000080FF08C06FEF7FEF80E090E00E94C72E56
:102010000E948B2383E090E00E94952E0E94EB2A81
:102020000E94DD239093CA018093C9011092EB01B5
:1020300080E880932B020E94692D6DE070E08FEFA5
:1020400091E00E942E18892B89F58091EB0163E0C5
:1020500070E081FD28C08CEF91E00E942E18892B42
:1020600029F56DE070E08CEE91E00E942E18892B2E
:10207000E9F40E94D123DC01CB01805A9541AF4F96
:10208000BF4F8093C4049093C504A093C604B0933B
:10209000C7040E94872581E08093C9048093C80407
:1020A0001092EC0103C089EF91E0D7CF8091C40179
:1020B000811133C00E94171F811104C00E94221F8A
:1020C0000E946F2C88E090E00E949D2E6093BF04D8
:1020D0007093C0048093C1049093C2046E7F71F426
:1020E0000E946F2C88E090E00E949D2E6093BF04B8
:1020F0007093C0048093C1049093C2040E944A2C40
:102100001092AC048091BF0480FF04C060E086950B
:102110000E94142D81E08093C40153985B9A5298D9
:102120005A9A89B183FB882780F94A9B02C092E0C2
:1021300001C090E0892B8093C7010E9487250E94EF
:102140001B2A80E091E09093D0048093CF0420E498
:10215000622ECC24C394D12C80912002853009F0CA
:1021600046C000E112E180912002853009F03BC0B9
:1021700080912002843029F10E9487251092D30497
:1021800068E170E00FB6F894A895609360000FBE08
:102190006092600083B7817F846083BF83B7816072
:1021A00083BF7894889583B78E7F83BF0FB6F894EA
:1021B000A895809160008861809360001092600013
:1021C0000FBE80911F02882309F4CDCF0E943322D5
:1021D000E5EFF1E0819181117BC48BEF91E08E17E7
:1021E0009F07C1F7C0CF0E941B2B0E949B240E9417
:1021F0003322A82E81110E94D123AFEEB1E0E5EF8A
:10220000F1E000E010E0302F21919D91922721F123
:1022100080E0FF24F3944F2D4923D1F089A33AA302
:102220002F2181E009F480E08BA30E94DD238160EF
:10223000782F9DA38CA349A15AA16BA18DA10E94C7
:102240006D27F801E151FE4F8081F826F08219C018
:102250008F5FFF0C8530F9F60F5F1F4F06301105B9
:1022600091F68FEF8EA38FA318A60E94DD238160C5
:10227000782F9AA789A74EA15FA168A58AA50E9479
:102280006D278091AC04882309F441C08091AB0490
:10229000E091BF04E695E81BE093EB04823061F423
:1022A000E695F0E0E45FFD4FE4910E2F10E097EA31
:1022B000E92E96E2F92E06C000ED17E089EFE82E30
:1022C00082E2F82E8091EC04882361F01092EC04F5
:1022D0000E94DD239093EA048093E9041092EE04B7
:1022E0001092ED040E94DD23E091E904F091EA04EC
:1022F0008E1B9F0B8F3F9F4750F40E0F1F1F109395
:10230000EA040093E90489EE94E0F70109958091CD
:10231000C701E82FEE0FEE0FE093C70189B183FBF1
:10232000442440F8512C4A9B03C082E090E002C054
:1023300080E090E0842995298E2B8093C7018F70CF
:10234000E82FF0E0E75DFE4F90818091C601890F94
:102350008093C60184305CF08091C5018F5F8093CB
:10236000C5018AEA0E94EA2BBB24B39401C0B12CB8
:102370008091C6018D3F54F48091C50181508093B6
:10238000C50189EA0E94EA2BBB24B3948091C6015F
:10239000082E000C990B64E070E00E94823180935B
:1023A000C601B1100E94D1238091C904882309F489
:1023B000A3C160E080E00E9470258091C9019091E6
:1023C000CA010E94C223883B9B4008F044C0809110
:1023D000C801811140C080913404909135048E521F
:1023E00092409C013E5F2130324028F020E032E0F4
:1023F000281B390B02C020E032E060912C02709162
:102400002D02DC01A25DBD4FAC01280F391F421720
:102410005307E0F4FA01E81BF90BE15FFD4FE4918B
:10242000FC91EF1779F0EC93FA0115E0F695E7953A
:102430001A95E1F7860102C0000F111FEA95E2F735
:10244000602B712B4F5F5F4F1196E1CF70932D0280
:1024500060932C023FC081E08093C80180910A0103
:10246000882321F00E94872510920A0180912A0278
:102470000E941528813099F058F08230D9F08330CD
:10248000F1F486E294E00E94151881E294E00DC018
:102490008CE594E00E94151884E594E006C08CE475
:1024A00094E00E94151885E494E00E9415180E949B
:1024B000292810C08EE294E00E9415180BC089E113
:1024C00094E00E9415188FE094E00E94151881E0B6
:1024D0000E9440258091C904882309F4E2C020911C
:1024E0002C0230912D022115310509F4DAC08091BA
:1024F000EC018111D6C0282E312C7601082E02C0A5
:10250000EE0CFF1C0A94E2F7A9014E215F21452B36
:1025100011F48F5FF0CF9091EB01910165E0220FF4
:10252000331F6A95E1F790FD12C08295880F80767F
:1025300080930D01220F232F221F330B31952093FF
:102540001001815E80930E011092110112C045E0CE
:10255000369527954A95E1F7220F220F220F2093F7
:102560000D0110921001295F20930E0183E08093EA
:10257000110124E630E047E050E06BE071E088E7CD
:102580000E94202E892B09F08CC08091EB0180FDE8
:1025900023C0C10125E0880F991F2A95E1F7AC01FE
:1025A000425D5D4F04E610E020E230E060E488E741
:1025B0000E94472E892B09F074C00E941A25E094CE
:1025C000F09480912C0290912D02E822F922F09251
:1025D0002D02E0922C0265C080E2EBECF1E0DF011D
:1025E0001D928A95E9F795E0220C331C9A95E1F744
:1025F000EDE3F1E0FEA7EDA749E351E0ADA5BEA5EF
:102600008D91BEA7ADA7FA019191AF019101290F5C
:10261000311D8901025D1D4F1CA70BA790E085535A
:102620009E4FFC0107E09F01281B390B8C2C01C039
:10263000880C2A95EAF76BA57CA5912CDB011D91EE
:10264000BD011821202F29192770722E022E000C8F
:10265000330BB12F01C0BB0F7A94EAF77B2E319573
:10266000219531092770332701C016952A95EAF77D
:10267000712A1081712A7082939418E09112DECF32
:10268000015031960F3F79F66DA57EA561547140DA
:1026900009F0B4CF04E610E020E230E04BEC51E06A
:1026A00085CF8091C804882339F10E94D1230091FD
:1026B000C4041091C5042091C6043091C704DC0104
:1026C000CB01801B910BA20BB30B8F3F9F4FAF4FE2
:1026D000BF4790F48091C904882371F08091C804A9
:1026E000882351F062E070E084E694E00E942E18A6
:1026F000892B11F41092C804A11001C0B1100E94DE
:102700001A250E949B249091ED01891721F00E94C7
:102710009B248093ED0180912002843009F01CCD30
:1027200083E08093E9008091E80082FF15CD8091DD
:10273000E80085FF23C00E94C21C81111DC080E2F9
:10274000E82EF12C8E010F5F1F4F09C08091F10020
:10275000D8018D938D01B1E0EB1AF10869F08091F9
:10276000E80085FDF3CF8091E8008B778093E80047
:102770000E94C21C882399F391E001C090E08091EF
:10278000E8008B778093E800992309F4E5CCE98190
:102790008E2F90E0FC013197E331F10508F06FC115
:1027A000EE59FF4F0C94B5311A8289E0BCC08A8182
:1027B000823009F4A3C1833051F0813009F05FC148
:1027C0000E94D1239B838C837D836E835AC1809129
:1027D000F5018B838091F6018C838091F7018D83C5
:1027E0008091F8018E838091F9018F838091FA01A5
:1027F000888747C18A81823009F041C16B817C8121
:102800008D819E810E94BB3186E290E024C04C8184
:102810006B818A810E94E0259D8377C10D811E8195
:102820001027012710278C81EB809A81EAE0EE9E29
:1028300070011124FCE39F9FE00CF11C1124E80EB1
:10284000F11CE80EF11C612FC70187960E94A92E8A
:10285000602FC70188960E94A92E13C10E94AC2543
:1028600010C18A818138B1F050F4803809F009C173
:1028700020E04B816091C1048091C00431C0823856
:1028800059F1833809F0FDC020E04091C2046C8109
:102890008B8126C060E08B810E94142D9B818091EA
:1028A000BF04911111C08E7F8093BF041092AC04BD
:1028B0000FEF10E722E0015010402040E1F700C088
:1028C00000000E947126DDC081608093BF0460E03B
:1028D00086950E94142DD5C08B818093C304D1C0EE
:1028E0000E94D126CEC08A81813899F030F4803898
:1028F00009F0C7C08091C20416C0823891F08338B5
:1029000009F0BFC08091C0048B838091C1048C8387
:10291000B8C08091BF0480FF02C0869504C080E0EB
:1029200002C08091C3048B83ACC06091BF047091DE
:10293000C0048091C1049091C2040E945D2CA1C08A
:1029400080E155C082E08A8389EEEDCF0A811B8148
:10295000102701271027AC80B12CBE016F5F7F4F7D
:102960004B017B01C801895E9E4F970128193909E7
:102970002A153B0508F085C0093E72E0170730F4C0
:102980000E94952ED70114968C9302C0F7011482F1
:102990000F5F1F4FFFEFEF1AFF0AE4CF0A811B8181
:1029A000102701271027AC80B12CBE016F5F7F4F2D
:1029B0004B017B01C801895E9E4F97012819390997
:1029C0002A153B0508F05DC0093E72E0170728F4A0
:1029D000D70114966C910E94A92E0F5F1F4FBFEF75
:1029E000EB1AFB0AE7CF0E949C254BC084E08A8348
:1029F00048C00A811B81102701271027AC80B12C09
:102A0000FE0131964F017F01C80187969701281971
:102A100039092A153B05A8F5003F110530F40E943D
:102A2000952ED70114968C9302C0F70114820F5F84
:102A30001F4FFFEFEF1AFF0AE7CF0A811B81102714
:102A400001271027AC80B12CBE016F5F7F4F4B0177
:102A50007B01C80187969701281939092A153B057A
:102A600080F4003F110528F4D70114966C910E9460
:102A7000A92E0F5F1F4FBFEFEB1AFB0AEACF8FEFB4
:102A8000898380912002843009F066CB1091E9009F
:102A90001F709091EC00892F817090FD80E8182BB9
:102AA00082E08093E9008091E80080FF0DC040E063
:102AB00050E060E270E0CE0101960E94F51C80912A
:102AC000E8008E778093E8001F701093E90044CBF4
:102AD00009BD19BD09B400FEFDCF8091D8008F7DDE
:102AE0008093D8008091E00082608093E000809124
:102AF000E00081FDFCCF0E941B2B35CB86E290E0ED
:102B00000E94952E1B821C821D828E83BACF8091DB
:102B1000220287FF11C08091E80082FD05C08091EC
:102B200020028111F8CF11C08091E8008B770BC093
:102B300080912002882349F08091E80080FFF8CF3F
:102B40008091E8008E778093E8000895982F973061
:102B500068F59093E900981739F07091EC00209196
:102B6000ED005091F00003C0242F762F50E021FD9E
:102B700002C09F5FECCF3091EB003E7F3093EB00C3
:102B80003091ED003D7F3093ED003091EB003160EE
:102B90003093EB007093EC002093ED005093F00025
:102BA0002091EE0027FDE5CF80E008958F7080939F
:102BB000E90081E00895209128023091290226172A
:102BC000370748F06115710539F42091E8002E7738
:102BD0002093E80001C0B901FC0120E061157105F6
:102BE00079F1809120028823F1F18530F1F1809113
:102BF000E80083FD3CC08091E80082FD2EC08091FA
:102C0000E80080FFEBCF2091F3008091F20090E08C
:102C1000922B6115710551F08830910538F421919E
:102C20002093F100615071090196F3CF21E00897DC
:102C300009F020E08091E8008E778093E800CECF05
:102C40002111CFCF0AC080912002882361F0853006
:102C500061F08091E80083FD0AC08091E80082FF66
:102C6000F2CF80E0089582E0089583E0089581E046
:102C70000895BC0184E00C946123BC0183E00C94B2
:102C800061232F923F924F925F926F927F928F9229
:102C90009F92AF92BF92CF92DF92EF92FF920F93EB
:102CA0001F93CF93DF9300D000D0CDB7DEB76B0179
:102CB0007C015C834B834630510524F025E030E0F5
:102CC0003C832B8320E030E0A901C701B6010E94BC
:102CD0004A2F87FF0CC0F7FAF094F7F8F0948DE2D2
:102CE0008093360457E3252E54E0352E04C046E386
:102CF000242E44E0342E8B819C8197FF3FC020E03E
:102D000030E040E85FE3C701B6010E944A2F87FD2B
:102D1000BFC020E030E040E251E4C701B6010E94AC
:102D20004A2F87FDB8C020E030E048EC52E4C701EC
:102D3000B6010E944A2F87FDB1C020E030E04AE78B
:102D400054E4C701B6010E944A2F87FDAAC020E0C3
:102D500030E44CE156E4C701B6010E944A2F87FDDA
:102D6000A5C020E030E543EC57E4C701B6010E945E
:102D70004A2F87FDA0C01C821B8216C0EB81FC81FC
:102D8000EF2B91F0EB81FC81EE0FFF1FEE0FFF1F89
:102D9000E05BFE4F2081318142815381C701B60142
:102DA0000E94DE2E6B017C01C701B6010E94C12F7B
:102DB0004B015C01611571058105910539F48101B3
:102DC0000F5F1F4F80E3F101808326C081012AE05D
:102DD000422E512C612C712C0F5F1F4F98012150F6
:102DE00031093A832983A30192010E949631605DE3
:102DF000E981FA816083B901CA0161157105810514
:102E0000910551F7F101D801EA17FB0728F48E91DB
:102E100090819C938193F8CF2B813C81232B09F4E3
:102E20004FC0C501B4010E94F92F9B01AC01C7013D
:102E3000B6010E94DD2E78013FEFE31AF30A2EE27D
:102E4000F801208367010B811C8101501109D8F022
:102E500020E030E040E251E40E94AE304B015C01E2
:102E60000E94C82F80E3860FF60181936F0170E006
:102E700080E090E00E94F92F9B01AC01C501B401F4
:102E80000E94DD2EE2CF0B811C810E0D1F1D18C08C
:102E900026E030E008C085E090E00AC0E4E0F0E021
:102EA0000CC023E030E03C832B836CCF82E090E0C9
:102EB0009C838B8367CFE1E0F0E0FC83EB8362CF00
:102EC000F801108286E394E00F900F900F900F901E
:102ED000DF91CF911F910F91FF90EF90DF90CF90F6
:102EE000BF90AF909F908F907F906F905F904F902A
:102EF0003F902F900895CF93DF938A3011F481E0B3
:102F000003C08D3029F480E0DF91CF910C944025EF
:102F1000682F809134049091350426E0FC01AEE2E4
:102F2000B4E001900D922A95E1F7603E30F026E082
:102F3000FC0111922A95E9F70AC0F6E06F9FB001F3
:102F4000112462537A4F46E050E00E948C2EC091CB
:102F50003404D091350446E050E0BE018EE294E0A6
:102F60000E94F131892B49F19E012E523240A90174
:102F700085E0569547958A95E1F781E090E0BC01A0
:102F800002C0660F771F4A95E2F740912C025091DC
:102F90002D02462B572B2B5F3F4F65E0369527952B
:102FA0006A95E1F702C0880F991F2A95E2F7842BF2
:102FB000952B90932D0280932C029E012852324033
:102FC00040912B02642F70E0C9010E94782E481BAB
:102FD000463010F4240F311D211582E0380710F01F
:102FE00020E030E0225D3D4F3093350420933404DF
:102FF000DF91CF9108950F931F93CF93DF93C6E393
:10300000D4E009900020E9F7219706E314E00C17BB
:103010001D0730F4F80181918F010E947B17F7CFD3
:10302000DF91CF911F910F910895CF93DF93EC0122
:10303000FE018491882321F00E947B172196F8CF0E
:10304000DF91CF91089580912A02982F9670963043
:1030500011F4886001C0877F0C94D02AEF92FF9210
:103060000F931F93CF93DF93EC017B0164E670E035
:1030700088E70E946F2D8C01EC0EFD1ECE15DF053A
:1030800061F017FD0AC0FE01849164E670E00E94C1
:10309000F02D8C012196892B89F30E94742EC80192
:1030A000DF91CF911F910F91FF90EF9008951F93A3
:1030B000CF93DF93CDB7DEB7AA970FB6F894DEBFF4
:1030C0000FBECDBFE2E2F2E08091F100819342E0D9
:1030D000EA32F407C9F780912302833009F462C011
:1030E00030F4813071F0823009F49CC0B3C08A3072
:1030F00009F488C08B3009F46DC0893009F0AAC08A
:1031000020C080912202813A09F0A4C08091E80099
:10311000877F8093E8008091260290912702892B77
:1031200021F460E28EEF91E003C060E080E090E087
:1031300070E00E94DB158091E8008B778093E800B7
:1031400089C080912202813209F084C080912602D8
:1031500090912702009719F0029709F07BC08091A7
:10316000E800877F8093E8008091E80082FD05C039
:10317000809120028111F8CF6DC02091F3008091E1
:10318000F20090E0922B029729F48091F1008B7F5E
:10319000813021F48091F1008093FD018091E8005D
:1031A0008B7754C080912202813A09F053C08091FC
:1031B000260290912702892B09F04CC08091E800EB
:1031C000877F8093E8008091E80080FFFCCF8091AA
:1031D000120137C0809122028132E1F580912602EE
:1031E00090912702892BB1F58091E800877F809329
:1031F000E8000E94871580912402809312010E94AA
:103200001B2B28C080912202813221F58091E80099
:10321000877F8093E8000E94871580912502809324
:10322000FC0118C080912202813AA1F48091E8004B
:10323000877F8093E8008091E80080FFFCCF809139
:10324000FC018093F1008091E8008E778093E80084
:103250000E9487158091E80083FFDDC180912202E2
:1032600090912302492F50E04A30510508F0D3C114
:10327000FA01EB58FF4F0C94B531803821F08238B9
:1032800009F0C9C108C080911E0290911F029923C4
:1032900089F082600FC0809126028F70873008F01D
:1032A000BAC18093E9008091EB0085FB882780F903
:1032B0001092E9009091E800977F9093E800809346
:1032C000F1001092F10070C1282F2D7F09F0A3C1E9
:1032D000882319F0823061F09EC1809124028130F0
:1032E00009F099C1933009F080E080931F022EC04D
:1032F0008091240281112AC0809126028F702FEFC5
:10330000280F263008F087C18093E9002091EB0058
:1033100020FF1CC0933021F48091EB00806214C028
:103320009091EB0090619093EB0021E030E0A901D7
:1033300002C0440F551F8A95E2F74093EA001092AD
:10334000EA008091EB0088608093EB001092E90026
:103350008091E800877F8093E8000E9487155BC119
:10336000811159C1109124021F778091E300807868
:10337000812B8093E3008091E800877F8093E800B1
:103380000E9487158091E80080FFFCCF8091E300C8
:1033900080688093E300111102C082E001C083E0E5
:1033A0008093200238C18058823008F034C12091C7
:1033B0002402309125022C3D53E0350779F583E056
:1033C0008A838AE289834FB7F894DE01139620E05E
:1033D0003EE051E2E32FF0E050935700E49120FFEC
:1033E00003C0E295EF703F5FEF708E2F90E0EA3000
:1033F00010F0C79601C0C0968D939D932F5F243126
:1034000049F74FBF8091E800877F8093E8006AE228
:1034100070E0CE0101960E94DB15B4C080912602B7
:1034200090912702432F552743305105A9F068F4A6
:103430004130510509F4FEC04230510509F0EBC09E
:103440008BE590E0E5E3F5E04BC04132510529F111
:103450004232510589F1DFC0C901992781309105B8
:10346000A1F058F0029709F0D6C0E2EAF5E0E49145
:103470008E2F90E0E2EAF5E030C0EAECF5E0E4916E
:103480008E2F90E0EAECF5E028C0E8EBF5E0E4915F
:103490008E2F90E0E8EBF5E020C08330910508F036
:1034A000BAC0880F991FFC01E65BFE4F0190F081C6
:1034B000E02D89E090E014C08330910508F0ABC0A6
:1034C000FC01EE0FFF1FEC5BFE4F0190F081E02D41
:1034D000DC01AF5BBE4F8C9190E0009709F49BC07C
:1034E0002091E800277F2093E80020912802309166
:1034F00029022817390708F4C90140E0009789F12B
:1035000020912002222309F43DC02530D9F12091D9
:10351000E80023FD37C02091E80022FD2FC0209154
:10352000E80020FFEBCF4091F3002091F20030E063
:10353000342B009759F02830310540F444914093E2
:10354000F100319601972F5F3F4FF3CF41E02830D4
:10355000310509F040E02091E8002E772093E80043
:10356000CDCF4111CDCF0AC080912002882351F0E8
:10357000853041F08091E80083FD04C08091E8002F
:1035800082FFF2CF8091E8008B778093E80043C000
:10359000803809F040C08091E800877F8093E80080
:1035A000809121028093F1008091E8008E77D3CE44
:1035B000811131C0809124029091250299270297B0
:1035C00054F58091E800877F8093E80010912402F1
:1035D000109321020E948715111106C08091E3000B
:1035E00087FD02C081E001C084E08093200242E0B8
:1035F00061EC81E00E94A61542E261EC84E00E9449
:10360000A61542E261EC82E00E94A61542E260EC5F
:1036100083E00E94A6158091E80083FF10C080918E
:10362000E800877F8093E8008091EB0080628093C0
:10363000EB0005C082E190E0E0E9F5E051CFAA9609
:103640000FB6F894DEBF0FBECDBFDF91CF911F91B3
:1036500008951F920F920FB60F9211242F933F934C
:103660004F935F936F937F938F939F93AF93BF938A
:10367000CF93DF93EF93FF93C091E900CF708091D8
:10368000EC00D82FD17080FDD0E81092E900809135
:10369000F000877F8093F00078940E945718109272
:1036A000E9008091F00088608093F000CD2BCF700E
:1036B000C093E900FF91EF91DF91CF91BF91AF915E
:1036C0009F918F917F916F915F914F913F912F913A
:1036D0000F900FBE0F901F901895E8EDF0E08081DD
:1036E0008E7F80831092E2001092DA001092E10047
:1036F000A0EEB0E08C9181608C9380818F77808385
:1037000019BCA7EDB0E08C918E7F8C9380818F7E69
:1037100080831092FB010895CF92DF92EF92FF9287
:103720000F931F93CF93DF93C8EDD0E088818F7EF6
:103730008883E7EDF0E080818160808384E082BF50
:1037400081E08093FB0188818E7F888302EE10E008
:10375000F80110821092DA0081EEC82ED12CF60109
:10376000108288818F7788838881806888838881A8
:103770008F7D888319BC1092200210922102109232
:103780001F0210921E0290EEE92EF12CF7018081AB
:103790008B7F808388818160888342E060E080E065
:1037A0000E94A615F60180818E7F8083F8018081BA
:1037B00081608083808188608083F70180818E7F33
:1037C0008083888180618883DF91CF911F910F91E1
:1037D000FF90EF90DF90CF9008951F920F920FB659
:1037E0000F9211242F933F934F935F936F937F9387
:1037F0008F939F93AF93BF93EF93FF938091E100DB
:1038000082FF09C08091E20082FF05C08091E10043
:103810008B7F8093E1008091DA0080FF2AC0809145
:10382000D80080FF26C08091DA008E7F8093DA0076
:103830008091D90080FF18C080E189BD82E189BDF7
:1038400009B400FEFDCF81E0809320028091FB014E
:1038500081110FC00E946D1B0E948C1B8091E200A1
:1038600084608093E20005C019BC1092200210927F
:10387000FB018091E10080FF17C08091E20080FF92
:1038800013C08091E2008E7F8093E2008091E2007D
:1038900080618093E2008091D80080628093D8009C
:1038A00019BC85E0809320028091E10084FF2EC046
:1038B0008091E20084FF2AC080E189BD82E189BD58
:1038C00009B400FEFDCF8091D8008F7D8093D80091
:1038D0008091E1008F7E8093E1008091E2008F7EF5
:1038E0008093E2008091E20081608093E200809109
:1038F0002102882311F084E007C08091E30087FD56
:1039000002C081E001C083E0809320028091E10049
:1039100083FF27C08091E20083FF23C08091E100F4
:10392000877F8093E10082E0809320021092210241
:103930008091E1008E7F8093E1008091E2008E7F94
:103940008093E2008091E20080618093E20042E097
:1039500060E080E00E94A6158091F000886080936E
:10396000F000FF91EF91BF91AF919F918F917F9167
:103970006F915F914F913F912F910F900FBE0F90DC
:103980001F9018952091E4003091E50095E6409154
:10399000EC00842F817040FF23C08091E80080FDFF
:1039A0001DC080912002882399F0853099F0809184
:1039B000EB0085FD11C04091E4005091E500241713
:1039C000350729F3915011F09A01E1CF84E0089571
:1039D00082E0089583E0089581E0089580E00895ED
:1039E0004091E80042FFDDCF0895EF92FF920F93E0
:1039F0001F93CF93DF937C018B010E94C21C811126
:103A000019C0E70101151105A1F08091E80085FDBD
:103A10000AC08091E8008E778093E8000E94C21C63
:103A2000882381F307C089918093F1000150110927
:103A3000E9CF80E0DF91CF911F910F91FF90EF9040
:103A4000089580E008959091D80492FF0DC0282F2A
:103A50002871283019F4877F846006C0282F2471CC
:103A6000243011F48B7F886093FF0DC0282F2871BC
:103A7000283119F4877E846106C0282F24712431EF
:103A800011F48B7E88612091D90420FF0DC0382F5E
:103A90003871383019F4877F816006C0382F317152
:103AA000313011F48E7F886021FF0DC0282F2871DE
:103AB000283119F4877E816106C0282F21712131B8
:103AC00011F48E7E886194FD877E0895F894E82F26
:103AD000E295EF70F0E031A1282F2F7081E090E0A7
:103AE00001C0880F2A95EAF7982F9095932391A308
:103AF00092A1892B82A378940895CF93DF93823883
:103B0000910569F1B0F48133910509F46FC048F46F
:103B10008932910509F465C08A32910509F46BC0B8
:103B20008AC08533910509F457C089339105B9F0EE
:103B300082C0833E910571F138F4803E9105B1F069
:103B4000823E910511F177C0863E9105B9F1873E1D
:103B50009105C9F1843E910509F06DC024C0209102
:103B6000D80420FD53C021FD51C065C08091D80408
:103B700080FD46C08091D90480FF48C08091D80460
:103B800084FD3FC183EE90E03EC18091D80482FF66
:103B90003AC0F4CF8091D80482FD35C08091D90419
:103BA00080FD34C0EBCF8091D90481FF35C0809176
:103BB000D80484FD26C187EE90E025C18091D80409
:103BC00083FF27C0F4CF8091D80483FD22C0809169
:103BD000D90481FD21C0EBCF8091D80485FD1FC0A1
:103BE00021C08091D80485FD1DC019C08091D804E2
:103BF00086FD1BC01DC08091D80486FD19C015C06C
:103C000089E390E000C182EE90E0FDC080EE90E09C
:103C1000FAC086EE90E0F7C084EE90E0F4C089E24E
:103C200090E0F1C085E390E0EEC08AE290E0EBC066
:103C300081E390E0E8C0811532E5930708F069C0A0
:103C4000811541E5940728F0982F8827816F906AA5
:103C5000DAC0883E910568F5803E910508F0D3C032
:103C6000883A9105B8F4853A910548F0855AE82FCD
:103C7000F0E0E859FE4F808190E09064C4C081304C
:103C8000910509F4BBC008F4BCC08430910508F468
:103C9000B8C0B9C08F3B910508F0B3C0885AE82F6F
:103CA000F0E0EE0FFF1FE559FE4F80819181946493
:103CB000AAC0811520E59207F0F09C0174E03695CA
:103CC00027957A95E1F7922F9370482F437021E062
:103CD00030E002C0220F331F4A95E2F73C68392BCF
:103CE0008F70982F9695969540E2949FC00111246D
:103CF000822B932B88C0811530E4930718F09F70B6
:103D0000906A81C09C013A9521153F4108F47BC01F
:103D100078C0EC01C11586E5D807E8F5C11525E5A1
:103D2000D20748F08C2F0E94231D8F7190E0982FAE
:103D30008827906268C0C11534E5D30728F09C2F0E
:103D40008827846F906A5FC0AE01437055272C2F7F
:103D500026952695C115D34578F481E090E002C000
:103D6000880F991F4A95E2F740E2249F90011124A1
:103D7000822B932B9C6847C081E090E002C0880FA3
:103D8000991F4A95E2F740E2249F90011124822B6B
:103D9000932B9A6838C0C1152AE5D207F8F4C115EB
:103DA00039E5D30790F08C2F8F700E94231D94E08B
:103DB000D695C7959A95E1F7CF70D0E0DC2FCC2748
:103DC000D0699E01282BC9011EC0C11548E5D40742
:103DD000C0F09C2F8827806F906A15C0CE01905646
:103DE0008115904270F48D2F8F710E94231D282F12
:103DF0002F71CE0199279062922B05C081E090E04F
:103E000002C080E090E0DF91CF910895CF9384E0ED
:103E100090E00E94952EC82F82E290E00E94952E9D
:103E20002C2F30E0A901582BCA01CF91089580E0D2
:103E300090E00E94A32E893E9E4F11F40C944026E0
:103E400080E0089569EE7EEF80E090E00E94C72E4A
:103E500060E082E090E00E94A92E60E083E090E0C4
:103E60000E94A92E1092A70460E084E090E00E94D6
:103E7000A92E60E082E290E00E94A92E60E085E039
:103E800090E00E94A92E60E086E090E00E94A92EBA
:103E90006FEF87E090E00E94A92E40E050E0BA0169
:103EA00088E090E00E94BB2E60E08DE090E00E94F0
:103EB000A92E40E050E0BA0188E190E00E94BB2EBC
:103EC00060E087E190E00E94A92E40E050E0BA0156
:103ED0008CE190E00E94BB2E60E070E080E290E018
:103EE0000E94C72E40E050E0BA0188E190E00E94B5
:103EF000BB2E80E00E9413260E94312640E050E055
:103F0000BA018FE090E00E94BB2E40E050E0BA0181
:103F100083E190E00C94BB2E8091A6048111109255
:103F2000A60408959091A5048091A404892B209162
:103F3000A304982F922B90934A048091A60488237F
:103F4000D9F0892B80934A0480911201882331F0A3
:103F50008091D80487FF02C08EE101C086E0ECE4C6
:103F6000F4E090E0815028F021912223D9F39F5F63
:103F7000F9CF91110E948C1FE091CF04F091D004F1
:103F80003097A9F080911201882359F08091D804CC
:103F900087FF07C080914A0480934B0485E080939B
:103FA0004A040280F381E02D8AE494E009940895A4
:103FB000CF93C091D904C2FB992790F9981781F04B
:103FC00080FBC2F9C093D9046091D80484E090E0EA
:103FD0000E94A92E6C2F82E290E0CF910C94A92E22
:103FE000CF9108952091A204809582238093A2040A
:103FF000982F977041F430E0482F082E000C550B95
:104000002417350721F49091D90492FF07C08595B4
:10401000859585950E94D42A1092A20408958091D6
:10402000A10490917004891719F08F5F8770FBCFFE
:1040300008950F931F93CF93DF9380916F04829520
:104040008F7009F05DC080916C04882309F458C01A
:104050008091A1041091700460916A0470916B04C6
:10406000C0916D04D0916E0491E06F3F09F090E033
:10407000292F06E0811709F443C0209721F07F3FE4
:1040800021F030E003C031E001C0322F90E030FD7C
:1040900034C0089FF001099FF00D1124DF01AF58D3
:1040A000BB4F11963C911197371327C03C913613A3
:1040B00024C012963C91129731111FC013964D9156
:1040C0005C9114974C1B5D0B483C5105B0F48091FA
:1040D0006F048F70806180936F04EA58FB4F80817A
:1040E0008F70806180838AE694E00E94F106DF9100
:1040F000CF911F910F910C940F2001968770BACF2A
:10410000DF91CF911F910F910895CF93DF93EC0131
:104110000E94482ABE010E9406260E947D1DDF9152
:10412000CF9108959F92AF92BF92CF92DF92EF927C
:10413000FF920F931F93CF93DF93CDB7DEB76197B5
:104140000FB6F894DEBF0FBECDBF8C0185E0F8013D
:10415000DE011D9601900D928A95E1F7F801E2804B
:1041600090916A0460916B0440916D0450916E04CB
:104170004115510531F06F3F31F481E09F3F19F453
:1041800003C081E001C080E0F82FF1709F2E80FD18
:104190001AC1F80130812181C380D4808AE6A82E1B
:1041A00084E0B82EF0906C04F601E41BF50BFF20C0
:1041B00009F4C6C080916F04E83CF10508F091C095
:1041C000482F407F09F050C0621311C093130FC0F5
:1041D000FE2CE1100CC08F70806180936F04C501CC
:1041E0000E94F10680916F04F801858329C1CD28D2
:1041F00031F02F3F31F481E03F3F19F403C081E0FB
:1042000001C080E080FD03C081E08E2502C080E017
:1042100090E0F82FF170FF2E80FF1CC08091A10468
:104220004091700456E0841709F4E8C090E0589F6C
:10423000F001599FF00D1124EF58FB4F61812613B7
:1042400006C06081631303C06281E61203C0019659
:104250008770E9CFFE2CEE2009F4F2C080916F0444
:10426000816080936F0449C0621306C0931304C039
:10427000E11002C0F80186C0C8010E94EF2A88231D
:1042800051F1EE2041F120916F04822F82958F70C1
:1042900090E0029774F080916A0490916B04988783
:1042A0008F831986DB86CA862C87CE0107960E94EB
:1042B000F10686E0F801AAE6B4E001900D928A9535
:1042C000E1F70E9419200AC06217C9F0C8010E94D4
:1042D000EF2A81111EC0C8010E94F106FF24F39449
:1042E000AFC0482F407F81F78AE694E00E94F10634
:1042F00086E0F50111928A95E9F7F12CA1C093139C
:10430000E5CFE110E3CFF8018583C8010E94F106F3
:1043100054C0EE2001F320916F04822F82958F709C
:1043200090E0029734F280916A0490916B049A8332
:1043300089831B82DD82CC822E83CE010196B7CF8A
:10434000E83CF105D0F5FE2CEE2029F2621327C0DF
:10435000931325C020916F0420FD18C0822F8295F1
:104360008F70482F50E04115510581F0F8012583E9
:104370004F30510541F08F5F982F9295907F822F9B
:104380008F70892B8583C8010E94F10686E0F801B1
:10439000AAE6B4E001900D928A95E1F751C0C801F8
:1043A0000E94EF2A811185CF80916F0481608093F4
:1043B0006F04C8010E94F10643C086E0F501119226
:1043C0008A95E9F73DC0EE2009F485CFC8010E9427
:1043D000EF2AF82E882309F47ECF86E0F801AAE6BA
:1043E000B4E001900D928A95E1F780916A04909172
:1043F0006B040E9485200E94192022C03D872E87D1
:104400008D859E850E948520292F22952F70223030
:1044100028F49F7039F0811105C00BC0243028F4B6
:104420009F7049F4805E883020F0C8010E94F10638
:104430009F2CF92C05C0F8019581907F99F7F9CF51
:104440008F2D61960FB6F894DEBF0FBECDBFDF9102
:10445000CF911F910F91FF90EF90DF90CF90BF9081
:10446000AF909F9008957F928F929F92AF92BF924C
:10447000CF92DF92EF92FF920F931F93CF93DF9330
:1044800000D000D000D0CDB7DEB7AE014F5F5F4F98
:104490007A0186E0DA011D928A95E9F70EE111E0D2
:1044A0006A0184E2882E81E0982EAA24A394B12C7C
:1044B000F80180818F3F09F448C0F894E82FE29515
:1044C000EF70F0E021A18F70A50102C0440F551FCD
:1044D0008A95E2F7CA01922F982B91A392A1809519
:1044E000892382A3789400C0E4E2F1E020E030E088
:1044F000712C81918F3FB9F0A82FA295AF70B0E0D9
:1045000090964C9150E08F70DA0102C0B595A79556
:104510008A95E2F7A0FD07C08A2D022E01C0880F00
:104520000A94EAF701C080E0782A2F5F3F4F2530D8
:104530003105F9F6F80180818F3F11F00E94661D68
:10454000F0EAFA95F1F7D6017C920F5F1F4FBFEFAB
:10455000CB1ADB0A8016910609F0AACF46E050E09C
:10456000B7018EEB91E00E94F13111E0009709F460
:1045700010E0892B89F086E0F701AEEBB1E0019005
:104580000D928A95E1F781E08093AA040E94DD23D1
:104590009093A9048093A8048091AA048823A1F091
:1045A0008091A8049091A9040E94C223059760F00D
:1045B000EEEBF1E0A5EFB1E081918D9341E0E43CB9
:1045C000F407D1F71092AA04812F26960FB6F8941B
:1045D000DEBF0FBECDBFDF91CF911F910F91FF9036
:1045E000EF90DF90CF90BF90AF909F908F907F9093
:1045F0000895089508958091FD010895CF93DF9364
:1046000020911201222339F02091D80427FF03C002
:1046100060E224E002C068E021E02093E9002FEF8F
:104620003091E800215035FD06C035ED3A95F1F79F
:1046300000002111F5CF2091E80025FF1DC0EC01FD
:1046400080911201811105C040E050E068E070E007
:1046500003C070E040E050E0CE010E94F51C809164
:10466000E8008E778093E80080E2FE01AEEFB1E0D3
:1046700001900D928A95E1F7DF91CF910895809195
:10468000C304882319F081508093C3046091BF0450
:104690007091C0048091C1049091C2040C945D2C6F
:1046A0008091C304833018F48F5F8093C3046091BA
:1046B000BF047091C0048091C1049091C2040C9415
:1046C0005D2C90912002943029F58093DA04709348
:1046D000DC046093DB049093E9008FEF9091E80095
:1046E000815095FD06C095ED9A95F1F70000811176
:1046F000F5CF8091E80085FF0DC040E050E063E019
:1047000070E08AED94E00E94F51C8091E8008E77BD
:104710008093E800089587E797E7909301088093D6
:1047200000089AE088E10FB6F894A895809360009D
:104730000FBE90936000FFCF78941F920F920FB638
:104740000F9211248F939F93AF93BF938091D404C2
:104750009091D504A091D604B091D7040196A11DE3
:10476000B11D8093D4049093D504A093D604B09344
:10477000D704BF91AF919F918F910F900FBE0F9073
:104780001F9018959C014FB7F8948091D404909194
:10479000D504A091D604B091D7044FBF821B930BD0
:1047A00008952FB7F8946091D4047091D504809146
:1047B000D6049091D7042FBF08952FB7F894809115
:1047C000D4049091D504A091D604B091D7042FBF02
:1047D00008951F920F920FB60F9211248F939F93FB
:1047E000AF93BF938091D304811113C08091D404FF
:1047F0009091D504A091D604B091D7044196A11D03
:10480000B11D8093D4049093D504A093D604B093A3
:10481000D704BF91AF919F918F910F900FBE0F90D2
:104820001F901895209112012223C9F02091D804DD
:1048300027FF15C0262F2695269526952E31C8F4DC
:10484000FC01E20FF11D677081E090E001C0880F6C
:104850006A95EAF780959281892382830895FC0105
:1048600006962281621301C012823196E817F90779
:10487000C1F70895209112012223C1F02091D8049C
:1048800027FF14C0262F2695269526952E3130F524
:10489000FC01E20FF11D677081E090E001C0880F1C
:1048A0006A95EAF79281892B82830895FC013296FA
:1048B0002FEF30E04191641789F02F3F19F4411137
:1048C00001C0232F3F5F3630A9F72F3F39F0FC019D
:1048D000E20FF11D27FDFA95628308950895209156
:1048E000D1043091D2042817390771F09093D20483
:1048F0008093D104E091CF04F091D004309721F05F
:104900000084F185E02D099408952091CD04309123
:10491000CE042817390771F09093CE048093CD040C
:10492000E091CF04F091D004309721F00680F78118
:10493000E02D09940895E091CF04F091D0043097D0
:1049400021F00190F081E02D099480E008950F930B
:104950001F93CF93DF93C42FD22FFC018281882332
:10496000C9F04093CC040E94DD239093CB04809344
:10497000CA0480E28C0F883008F057C0C77081E00D
:1049800001C0880FCA95EAF7DF91CF911F910F916F
:104990000C943B2B8091CC04481330C08091CA0406
:1049A0009091CB040E94C223883C910538F510E217
:1049B0001D0FCD17B9F080E28C0F883040F4C7701E
:1049C00081E001C0880FCA95EAF70E94302B1830A9
:1049D00028F581E09D2F977001C0880F9A95EAF71E
:1049E0000E943B2B802F0E94EA2B1830F0F4D770E6
:1049F00081E001C0880FDA95EAF70AC080E28C0FE7
:104A0000883098F4C77081E001C0880FCA95EAF732
:104A1000DF91CF911F910F910C94302B802FDF915C
:104A2000CF911F910F910C94EA2BDF91CF911F91A1
:104A30000F9108958091C9048823F9F00E94D12331
:104A4000DC01CB01805A9541AF4FBF4F8093C40426
:104A50009093C504A093C604B093C7048091C80482
:104A600081110BC062E070E083E09CE00E942E1890
:104A7000892B19F481E08093C8048091C8040895BB
:104A8000CF93E82F20913404309135042E523240D8
:104A900040912B02642F70E0C9010E94782E481BC0
:104AA000842FEE2351F066E00E947631C82FC1506A
:104AB000A8F080E20E947B17FACFA901480F511D90
:104AC0004115524018F080E020E030E0280F311D01
:104AD000225D3D4F3093350420933404CF910895E7
:104AE00020912B0236E0839FC0011124629F800D2C
:104AF000911D1124811522E0920714F080E090E0CE
:104B0000825D9D4F90933504809334040895EEE2C6
:104B1000F2E080E092E0DF019C011D9221503040E4
:104B2000E1F7F0933504E09334048FEF9FEF909317
:104B30002D0280932C020895CF93DF93C7E1D1E03B
:104B400060E0CE010E94A92E2196C11584E0D8070D
:104B5000B9F7DF91CF910895CF92DF92EF92FF9254
:104B60000F931F93CF93DF93C0E0D0E08E01045CDE
:104B70001F4F6E018AE0C80ED11CFE01ED5EF44F9E
:104B8000E590F4906F2DCE0187960E94A92E6E2D90
:104B9000CE0188960E94A92E2296CC15DD0569F7D4
:104BA0000C171D0731F7E801003F1105F9F6DF91F9
:104BB000CF911F910F91FF90EF90DF90CF900895CC
:104BC0000F931F93CF93DF93C42FD0E0CC0FDD1F43
:104BD0002AE0629FC00DD11D11243CE3839FC00DCC
:104BE000D11D1124CE0187960E94952E082F10E02A
:104BF000102F0027CE0188960E94952E9801282B11
:104C0000C901DF91CF911F910F910895462F8430F4
:104C100038F4763028F4653018F4672F0C94E025CA
:104C200080E090E00895CF93C82F811102C06FEF0C
:104C300001C061E283E290E00E94A92EC11102C08E
:104C40006FEF01C060E184E290E00E94A92EC111E3
:104C500002C06FEF01C068E285E290E0CF910C9452
:104C6000A92E80E00E94132660E086E290E00E9478
:104C7000A92E0E94AC250E949C2581E00C9413264D
:104C800083E290E00E94952E813281F484E290E0EC
:104C90000E94952E803151F485E290E00E94952E7D
:104CA00091E0883209F090E0892F01C080E08170A6
:104CB00008959091BF0490FF04C09695981740F016
:104CC00003C0811105C090E0961710F40C945F2D7D
:104CD00061E00C94142D882311F0FA0101C0FB014E
:104CE00009948091BF0480FF0AC0869A81B38F7BAC
:104CF00091B390642FB7F894EDEAF4E00BC0EDEABD
:104D0000F4E0118210821282339634E0EF3BF30715
:104D1000C1F7EBCF34E0EF3BF30789F0319148E086
:104D200091BB000000C037FF81BB330F000000C003
:104D300000C000C081BB00C04A9591F7EBCF2FBFE8
:104D40008FE594E00197F1F700C000000895EF921D
:104D5000FF921F93CF93DF93EC018DEAE82E84E05E
:104D6000F82E10E08C8197014091C2046091C1043B
:104D7000810F0E947E2C165D83E0E80EF11C1C3F23
:104D800089F70E9471269A818C8190FF02C08F5F03
:104D900001C081508C83DF91CF911F91FF90EF90E4
:104DA00008955F926F927F928F929F92AF92BF927F
:104DB000CF92DF92EF92FF920F931F93CF93DF93E7
:104DC00000D01F92CDB7DEB7182F762E042F622E9B
:104DD0008091BF0480FF6EC0E82FE695AE2FB0E053
:104DE000A756BE4F9C919093AB048E7F8230A1F466
:104DF0009E012F5F3F4F812F0E947E2C8B819981D6
:104E00002A81EDEAF4E0218390838283339634E0B3
:104E1000EF3BF307C1F73AC0923019F41091C00488
:104E200037C09830A9F5E8508E2F8170582EE6953E
:104E3000F0E0E25FF44FA590B4908DEAC82E84E0D4
:104E4000D82EE12CF12CBB2496E0892E912CAE9C1F
:104E5000C001AF9C900DBE9C900D1124B4010E9426
:104E6000782E812F511002C0860F01C0861B96013B
:104E7000402F672D0E947E2C3FEFE31AF30A83E058
:104E8000C80ED11C36E0E316F10409F70E94712622
:104E90001093C0047092C1040093C204662051F0C4
:104EA0006091BF047091C0048091C1049091C204CC
:104EB0000E945D2C0F900F900F90DF91CF911F916A
:104EC0000F91FF90EF90DF90CF90BF90AF909F90A9
:104ED0008F907F906F905F9008951F93CF93DF9393
:104EE000CDB7DEB767970FB6F894DEBF0FBECDBF64
:104EF0004B8B5C8B6D8B7E8B8F8B61111092A4041E
:104F000086E09E01235F3F4FD901E82F1D92EA956D
:104F1000E9F795E0FE017396D90101900D929A95FB
:104F2000E1F79C894E895F897B897D879E876F87A2
:104F3000598B488BF901DE01179601900D928A95E5
:104F4000E1F7CE0107960E94922081113EC086E0D3
:104F5000FE013796DE01119601900D928A95E1F7D8
:104F6000FF81E8856A857B856115710531F0EF3F2A
:104F700031F481E0FF3F19F403C081E001C080E01B
:104F800080FD23C02091700430E0C9010196877034
:104F900099274091A10450E08417950779F1F9838E
:104FA000EA837D836C8396E0929FD001939FB00D3E
:104FB0001124AF58BB4FFE01319601900D929A9586
:104FC000E1F7809370040E940F2016E08091A10405
:104FD000909170048917F9F0189FC00111248F581F
:104FE0009B4F0E9492208823B1F08091A10490E011
:104FF0000196877099278093A104E8CF0E941B2B0C
:10500000109270041092A104EAE6F4E086E0DF0159
:105010001D928A95E9F767960FB6F894DEBF0FBE2A
:10502000CDBFDF91CF911F910895982F92959F70DA
:1050300019F0892F24E001C020E0982F96959695CD
:1050400011F02E5F892F982F969509F02F5F822FF0
:105050000895CF93DF930E949B2481FBDD27D0F935
:1050600082FBCC27C0F980FD03C086E49CE002C02F
:105070008BE49CE00E941518D11103C08CE39CE0E6
:1050800002C081E49CE00E941518C11103C082E3B4
:105090009CE002C087E39CE0DF91CF910C9415184F
:1050A000CF93C82F0E94872563E080E00E9470257F
:1050B000C11113C08DE30E947B17E6E3F4E0019079
:1050C0000020E9F73197E653F44063E085E18E1B59
:1050D0000E947025CF910C94FB178BE19CE0CF913F
:1050E0000C9415188F929F92AF92BF92CF92DF923D
:1050F000EF92FF928091BB018230E1F0B0F48130F9
:1051000009F077C02091AE013091AF014091B0011C
:105110005091B1016091B2017091B3018091B401DD
:105120009091B5010E94DE2E5CC08330B1F08430D6
:1051300039F15FC02091AE013091AF014091B001D3
:105140005091B1016091B2017091B3018091B401AD
:105150009091B5010E94DD2E44C02091AE013091A6
:10516000AF014091B0015091B1016091B2017091D5
:10517000B3018091B4019091B5010E94AE3031C06D
:10518000C090B201D090B301E090B401F090B501AD
:1051900020E030E0A901C701B6010E944A2F882310
:1051A00089F08090AE019090AF01A090B001B090D6
:1051B000B10120E030E0A901C501B4010E944A2FED
:1051C000811109C01092B6011092B7011092B80176
:1051D0001092B9010EC0A5019401C701B6010E9449
:1051E0004F2F6093B6017093B7018093B8019093ED
:1051F000B901FF90EF90DF90CF90BF90AF909F905C
:105200008F9008958F929F92AF92BF92CF92DF922C
:10521000EF92FF920F931F93CF93DF932091BC01E6
:105220002111FCC0EC018091BA01811179C0C090BC
:10523000B201D090B301E090B401F090B5010AE062
:1052400010E08AE0C017D1073CF09801829F8001EE
:10525000839F100D1124F6CF20E030E0A901C70193
:10526000B6010E944A2FA801110F660B770B4E0161
:105270000D2E000CAA08BB0887FF15C0CB01BA0190
:105280000E94F92FA70196010E94AE306B017C01AC
:10529000C501B4010E94F92F9B01AC01C701B60101
:1052A0000E94DD2E14C0CB01BA010E94F92FA70184
:1052B00096010E94AE306B017C01C501B4010E94D1
:1052C000F92F9B01AC01C701B6010E94DE2E60934D
:1052D000B2017093B3018093B4019093B501299703
:1052E00019F040E050E002C041E050E00E94411659
:1052F0006091B2017091B3018091B4019091B501B8
:1053000040E050E00E9441160E948725E6E3F4E069
:1053100001900020E9F73197E653F44062E06CC059
:10532000C090AE01D090AF01E090B001F090B1011B
:105330000AE010E08AE0C017D1073CF09801829F94
:105340008001839F100D1124F6CF20E030E0A901E9
:10535000C701B6010E944A2F4E01DD0FAA08BB0803
:10536000A801110F660B770B87FF15C0CB01BA019F
:105370000E94F92FA70196010E94AE306B017C01BB
:10538000C501B4010E94F92F9B01AC01C701B60110
:105390000E94DD2E14C0CB01BA010E94F92FA70193
:1053A00096010E94AE306B017C01C501B4010E94E0
:1053B000F92F9B01AC01C701B6010E94DE2E60935C
:1053C000AE017093AF018093B0019093B10140E0C2
:1053D00050E00E94411663E081E00E94702585E064
:1053E0009CE00E941518E6E3F4E001900020E9F744
:1053F0003197E653F44063E085E18E1B0E947025EF
:10540000DF91CF911F910F91FF90EF90DF90CF90A0
:10541000BF90AF909F908F900C94FB17DF91CF912E
:105420001F910F91FF90EF90DF90CF90BF90AF90C2
:105430009F908F9008951092B2011092B301109234
:10544000B4011092B5011092AE011092AF0110920A
:10545000B0011092B1011092B6011092B7011092F2
:10546000B8011092B9011092BB011092BA011092CA
:10547000BC01089580E090E00E94852480E090E0E7
:105480000E946F241092A4041092A3040C94921F03
:10549000CF92DF92FF920F931F93CF93DF936C0114
:1054A00000912A028091A704082BC7E0D0E010E009
:1054B000C8010C2E02C0959587950A94E2F780FDED
:1054C00004C02197A8F7F12C09C0FC2EB6018C2F3F
:1054D0000E9406260E947D1D019799F38F2DDF9172
:1054E000CF911F910F91FF90DF90CF90089524E00E
:1054F000929F900D1124890F682F66956695669589
:10550000982F977083E0689FB001112440E050E02D
:1055100080E0FB01E40FF51FE352FB4F208130E0F8
:10552000092E02C0369527950A94E2F72170332799
:10553000042E01C0220F0A94EAF7822B4F5F5F4FBF
:105540004330510531F7089524E0929F900D1124C6
:10555000890FE82FE695E695E695877051E001C042
:10556000550F8A95EAF783E0E89FF0011124E35292
:10557000FB4F20E030E070E04081CB01022E02C002
:10558000969587950A94E2F7817081958427852303
:10559000842781932F5F3F4F2330310569F70895AA
:1055A00080932A020C943A2A21E030E001C0220FB5
:1055B0008A95EAF7209580912A0282230C94D02ABA
:1055C00021E030E001C0220F8A95EAF780912A029B
:1055D000822B0C94D02A8093A7040C943A2AFC01C5
:1055E000808191810E948520292F2F70E92FE295DB
:1055F000EF704E2F50E0FA013297EE30F105B8F41B
:10560000E158FF4F0C94B531803F99F018F4883E73
:1056100070F40FC0843F59F40CC0883E50F0813FB5
:1056200031F407C0822F869586958695089580E08F
:10563000089581E008951092A504809112018823B5
:1056400031F08091D80487FF02C08EE101C086E06E
:10565000ECE4F4E0DF011D928A95E9F70C943A2A14
:10566000882341F080959091A50489238093A50417
:105670000C94921F0895882339F09091A504892BEA
:105680008093A5040C94921F0895882379F19CEFD0
:10569000980F913A30F4682F8AE494E00E94122423
:1056A00014C090E2980F983090F4877021E030E0B9
:1056B000A90102C0440F551F8A95E2F7CA018095DF
:1056C0009091A50489238093A5040C94921F9BE5D7
:1056D000980F933020F480E090E00C948524885A51
:1056E000873120F480E090E00C946F240895CF93EC
:1056F000882309F46DC09CEF980F913AC8F5C82F24
:10570000809112018823E1F08091D80487FF18C0AE
:10571000EC2FE695E695E695F0E0E65BFB4F82819F
:10572000282F30E04C2F477081E090E002C0880FB6
:10573000991F4A95E2F782239323892B61F412C0C3
:10574000ECE4F4E082E594E02191C21721F08E1799
:105750009F07D1F707C06C2F8AE494E00E941224BF
:105760000E94921F6C2F8AE494E00E943A2413C096
:1057700090E2980F983090F4877021E030E0A90112
:1057800002C0440F551F8A95E2F7CA019091A50403
:10579000892B8093A504CF910C94921FEBE5E80F21
:1057A000E33040F4F0E0E859FE4F808190E0CF9183
:1057B0000C948524885A873158F4E82FF0E0EE0FD6
:1057C000FF1FE559FE4F80819181CF910C946F248A
:1057D000CF9108951F93CF93DF93182F893319F03A
:1057E000C0E0D0E002C0C0E5D0E0812F0E94772B5E
:1057F000209741F08FE99FE00197F1F700C000008A
:105800002197F6CF812FDF91CF911F910C94452BDB
:10581000EFEBF4E0438128E0421B08F440E021E094
:10582000628181810C94D126EFEBF4E0438128E082
:10583000420F08F44FEF21E0628181810C94D12660
:10584000EFEBF4E0628128E0621B08F460E021E005
:10585000438181810C94D126EFEBF4E0628128E052
:10586000620F08F46FEF21E0438181810C94D1260F
:10587000EFEBF4E0818121E04381628188500C9458
:10588000D126EFEBF4E0818121E043816281885FE2
:105890000C94D1268091BF04282F269530E0211545
:1058A000310519F48170826005C02231310524F080
:1058B000817082628093BF040895CF92DF92EF924D
:1058C000FF926B017C010E944A2CB701A60188E07F
:1058D00090E0FF90EF90DF90CF900C94BB2EEFEB19
:1058E000F4E083E0808311828FEF828383831482CC
:1058F00060817181828193810C945D2CAF92BF9203
:10590000CF92DF92EF92FF920F931F93CF93DF938B
:10591000E82EF62EE901E42FF0E0611106C0E05B0D
:10592000F34FE4914E2F2E2F71C0062F10E0E05B55
:10593000F34F4491F42FC42ED12C26E0829FC00156
:1059400011242FEF30E0B9010E94782E5BEA560354
:10595000C001579F900D11248E0D911D8E0D911D2C
:10596000582F550F580FD901A01BB10BAC9DC0018A
:10597000AD9D900DBC9D900D1124E92FF59ED00199
:105980001124AB2FBB277901EA1AFB0AEC9CD0014A
:10599000ED9CB00DFC9CB00D11245901A51AB10865
:1059A000A09E7001A19EF00CB09EF00C1124EF2C73
:1059B000FF242E193F092C9D80012D9D100D3C9D2B
:1059C000100D1124212F6230710591F048F46115FA
:1059D0007105E1F061307105B9F4242F4B2F16C029
:1059E0006430710569F040F06630710579F00CC0E3
:1059F000242F492FE12F0AC0492FEF2F2B2F06C04C
:105A0000292FE42F412F02C0292FEB2F4983288310
:105A1000EA83DF91CF911F910F91FF90EF90DF907C
:105A2000CF90BF90AF9008959091BF0490FF3DC07C
:105A30009170811102C0926006C0823110F09262B2
:105A400002C0880F982B9093BF04662351F0609199
:105A5000BF047091C0048091C1049091C2040E945F
:105A60005D2C6091BF04669570E04BE050E083E1EF
:105A700091E00E94E431892B19F01092AC0409C026
:105A800081E08093AC040E94DD239093EA0480932C
:105A9000E90481E08093EC0420E04091C20460912D
:105AA000C1048091C0040C94D12608958091BF0454
:105AB0008695815009F481E161E00C94142D809168
:105AC000BF0486958F5F823108F081E061E00C941D
:105AD000142D1092B9008CE08093B80008959F9225
