:100000000C9430070C9477070C9477070C947707BF
:100010000C9477070C9477070C9477070C94770768
:100020000C9477070C9477070C94F61C0C94321CF4
:100030000C94DC260C9477070C9477070C947707C4
:100040000C9477070C9477070C9477070C94770738
:100050000C9477070C948F260C9477070C947707F1
:100060000C9477070C9477070C9477070C94770718
:100070000C9477070C9477070C9477070C94770708
:100080000C9477070C9477070C9477070C947707F8
:100090000C9477070C9477070C9477070C947707E8
:1000A0000C9477070C9477070C9477070B0E0B0EC4
:1000B000450E450E9E0EB90FB90FB90FBA0E2E0F91
:1000C0003F0F3F0FDD14E0140315101517153715FA
:1000D0003A157C159E1548164816A915AB15AF158F
:1000E000D715FC15FF1502162616461A6D1A141C94
:1000F0006D1A141CB91ADC1A141CD11BE11B7A2FBF
:100100007A2F8D2F8D2F832F8D2F8D2F8D2F7A2F3F
:100110007A2F882F8D2F8D2F882F00000000000050
:1001200000000000000000000000000000000000CF
:1001300000000000000000000000000000007E0F32
:1001400000D4FFFFFFC7000000780000000000009F
:1001500000002A2B28000000000000000000000022
:10016000000000000029000000002C1E3420212285
:1001700024342627252E362D3738271E1F202122EE
:10018000232425263333362E37381F040506070867
:10019000090A0B0C0D0E0F10111213141516171857
:1001A000191A1B1C1D2F3130232D35040506070895
:1001B000090A0B0C0D0E0F10111213141516171837
:1001C000191A1B1C1D2F3130354C202020202020D7
:1001D00020202020202020202020202020200A0055
:1001E0002F0A002A0A002D0A002B0A0000DA0281D9
:1001F000FFD9F1DB20A4A62EAF00A0C000A1C8004B
:10020000AED580A81FD300408D14200000047F3F8E
:100210001F643214643214783C1E1E140A05000058
:1002200000000000000000000000000000000000CE
:1002300000000000000000000000000000000000BE
:100240000000000000000000003FBFDFE7E7673765
:10025000DBCB0B0B0BCBCFEDF5F5F5F5F5F5F5F5A8
:10026000F5F5FBFB8B0D05C5454565BDC3FFFFFFE0
:10027000FFFFFFFF00000000000000000000000082
:10028000000000000000000000000000000000006E
:10029000000000000000000000000000000000005E
:1002A000000000000000000000000000000000004E
:1002B000000000000000000000000000000000003E
:1002C000000000000000000000E3E6C7CFDFFEFEF4
:1002D000FDBA8AC200FFF3E3FFFFFFFFFFFFFFFF4E
:1002E000FFFFF9F1FBF8040EFEFE3187FFFFFFFF71
:1002F000FFFFFFFF00000000000000000000000002
:1003000000000000000000000000000000000000ED
:1003100000000000000000000000000000000000DD
:1003200000000000000000000000000000000000CD
:1003300000000000000000000000000000000000BD
:10034000000000000000000000BFDFCFCFFFFDF87D
:10035000F1F3F3FFFFF0670F3F7FFFFFAF6F4F0F2A
:100360000F4F6FBF1FC1CCFE3F1F9EE1FFFFFFFF7E
:10037000FFFFFFFF00000000000000000000000081
:10038000000000000000000000000000000000006D
:10039000000000000000000000000000000000005D
:1003A000000000000000000000000000000000004D
:1003B000000000000000000000000000000000003D
:1003C000000000000000000000FFFFFFEFCFCFDFC4
:1003D000DFDFD9F9F8F8ECEEDFDFFEFCDDD9D9D9A3
:1003E000D9D9C1EEFFFFFFCF0E06E1FFFFFFFFFFF0
:1003F000FFFFFFFF00000000000000000000000001
:1004000000000000000000000000000000000000EC
:100410000000000000000000000000000000556E19
:10042000646566696E6564004C617965723A2000A6
:1004300041444A0A004C617965723A2000202D2D12
:100440002D2D2043616C63756C61746F72202D2DAE
:100450002D2D0A004D6163726F0A004C617965723F
:100460003A20004E756D7061640A004C61796572C6
:100470003A200000AE05010980A101850319012A77
:10048000B700150126B700950175108100C0050C55
:100490000901A101850419012AA002150126A00263
:1004A000950175108100C005010906A101850505AA
:1004B0000719E029E7150025019508750181020556
:1004C00007190029EF1500250195F0750181020536
:1004D000081901290595057501910295017503918A
:1004E00001C00660FF0961A1010962150026FF0035
:1004F0009520750881020963150026FF0095207577
:10050000089102C005010906A101050719E029E7C4
:100510001500250195087501810295017508810175
:100520000507190029FF150026FF009506750881AB
:1005300000050819012905950575019102950175B8
:10054000039101C009025B00030100A0FA09040045
:1005500000010301010009211101000122400007EF
:1005600005810308000A09040100020300000009D4
:10057000211101000122220007058203200001074A
:100580000503032000010904020001030000000923
:100590002111010001226D000705840320000A12C9
:1005A00001000200000008EDFE696901000102007F
:1005B0000114035300680065006500700079005065
:1005C00000610064000000100343006900700075C2
:1005D000006C006F00740000000403090407087F2A
:1005E0000807003E5B4F5B3E003E6B4F6B3E001CBE
:1005F0003E7C3E1C00183C7E3C18001C577D571C5E
:10060000001C5E7F5E1C0000183C180000FFE7C362
:10061000E7FF00001824180000FFE7DBE7FF0030C9
:10062000483A060E00262979292600407F0505074D
:1006300000407F05253F005A3CE73C5A007F3E1CA6
:100640001C0800081C1C3E7F0014227F2214005F3F
:100650005F005F5F0006097F017F00006689956A81
:100660000060606060600094A2FFA2940008047EB5
:1006700004080010207E20100008082A1C0800082A
:100680001C2A0808001E10101010000C1E0C1E0C56
:100690000030383E383000060E3E0E0600000000E6
:1006A00000000000005F00000000070007000014C9
:1006B0007F147F1400242A7F2A1200231308646207
:1006C00000364956205000000807030000001C2295
:1006D0004100000041221C00002A1C7F1C2A000847
:1006E000083E08080000807030000008080808086C
:1006F000000000606000002010080402003E514924
:10070000453E0000427F40000072494949460021B1
:1007100041494D33001814127F10002745454539D3
:10072000003C4A4949310041211109070036494935
:10073000493600464949291E000000140000000007
:100740004034000000000814224100141414141452
:10075000000041221408000201590906003E415DD3
:10076000594E007C1211127C007F49494936003EE7
:1007700041414122007F4141413E007F4949494179
:10078000007F09090901003E41415173007F0808BB
:10079000087F0000417F4100002040413F01007F71
:1007A00008142241007F40404040007F021C027F2D
:1007B000007F0408107F003E4141413E007F09094F
:1007C0000906003E4151215E007F09192946002695
:1007D000494949320003017F0103003F4040403F47
:1007E000001F2040201F003F4038403F0063140896
:1007F0001463000304780403006159494D43000069
:100800007F41414100020408102000004141417F26
:100810000004020102040040404040400000030781
:100820000800002054547840007F284444380038A1
:100830004444442800384444287F00385454541811
:100840000000087E09020018A4A49C78007F080418
:1008500004780000447D4000002040403D00007FBF
:10086000102844000000417F4000007C0478047898
:10087000007C0804047800384444443800FC182400
:1008800024180018242418FC007C080404080048DC
:10089000545454240004043F4424003C4040207C31
:1008A000001C2040201C003C4030403C00442810EC
:1008B0002844004C9090907C004464544C440000C8
:1008C00008364100000000770000000041360800B3
:1008D000000201020402003C2623263C0000000026
:1008E000000000404040F0F8F8FF38FFF8F83FF80B
:1008F000F8FF38FFF8F8F04040400000000000002A
:1009000080C0C0C0800000C0C08000000080C0C0A7
:1009100000C0C0000080C0C00000000000C0C0C017
:10092000C0C000C0C00000000000000000000000C7
:1009300000000000000000000000000000000000B7
:1009400000000000000000000000000000000000A7
:10095000000000000000000000000000C0F0F8FCF3
:100960003E1E06010000007F4141417F007F414162
:10097000417F000080C0E07E5B4F5BFEC00000C096
:1009800000DCD7DEDEDED7DC00C0000000000000A7
:100990000000000000000000000000000000000057
:1009A000000000494949FFFFFFFFE0DFBFBF00BF74
:1009B000BFDFE0FFFFFFFF49494900000000001FC3
:1009C0003F6060E0BF1F007F7F071E381E077F7FEC
:1009D000007F7F0E1F3B716000000000007F7F0CD6
:1009E0000C0C007E7E007F7E0303007F7E03037E6F
:1009F0007E03037F7E000F3E703C063C703E0F007E
:100A0000327B49493F7E007F7E0303001E3F6969B8
:100A10006F2600000000000000000000030F1F3FD1
:100A20003C7870600000007F4141417F007F414180
:100A3000417F00307B7F7830202030787F3B00037F
:100A4000000F7F0F0F0F7F0F00030000000000005A
:100A50000000000000000000000000000000000096
:100A6000000000010101070F0F7F0F7F0F0F7E0FA6
:100A70000F7F0F7F0F0F0701010100000000000032
:100A80000000000001010000000000000000000064
:100A90000000000000000000000000000000000056
:100AA0000000000000000000000000000000000046
:100AB0000000000000000000000000000000000036
:100AC0000000000000000000000000000000000026
:100AD0000000000000000000000000000000000016
:100AE0000000000000000000000000000000000006
:100AF00000000000000000000000000000000000F6
:100B000000000000000000000000000000000000E5
:100B1000000000000000000000000000002223256B
:100B20002628292A2C2D2F3032333536383A3B3DB2
:100B30003E4042434547494A4C4E50515355575900
:100B40005A5C5E6062646668696B6D6F717375771D
:100B5000797B7D7F81838587898A8C8E909294961C
:100B6000989A9C9E9FA1A3A5A7A8AAACAEAFB1B32B
:100B7000B4B6B8B9BBBCBEBFC1C2C3C5C6C7C9CA7B
:100B8000CBCCCDCED0D1D2D2D3D4D5D6D7D7D8D93D
:100B9000D9DADADBDBDBDCDCDCDCDCDDDDDDDDDC9B
:100BA000DCDCDCDCDBDBDBDADAD9D9D8D7D7D6D5AD
:100BB000D4D3D2D2D1D0CECDCCCBCAC9C7C6C5C36F
:100BC000C2C1BFBEBCBBB9B8B6B4B3B1AFAEACAABC
:100BD000A8A7A5A3A19F9E9C9A98969492908E8C6C
:100BE0008A89878583817F7D7B79777573716F6D46
:100BF0006B6968666462605E5C5A59575553515020
:100C00004E4C4A4947454342403E3D3B3A383635D3
:100C10003332302F2D2C2A292826252322AE0000FE
:100C200000000000000000000000402F00300054D1
:100C3000000000580026022702550000005F0060F7
:100C4000006100560000005C005D005E005700007F
:100C50000059005A005B006200AE00000000000076
:100C6000000000000001000100010001000000017F
:100C7000000100010001000000010001000100016D
:100C8000000000010001000100010000000100015E
:100C90000001000100AE00000000000000000000A4
:100CA000000100745D735D725D0000695D6A5D6BDB
:100CB0005D715D0000665D675D685D705D0000638D
:100CC0005D645D655D6F5D0000625D6D5D6C5D6EB8
:100CD0005DAE00000000000000000000000100C246
:100CE0005CD45CD05C0000C55CC65CC75CC85C00C2
:100CF00000C95CCA5CCB5CCC5C000000000000005A
:100D00000000000000005C00000000DE5C00AF009E
:100D100001010101010101010102020202020202BC
:100D2000020203030303030303030404040404048F
:100D30000405050505050606060606070707070755
:100D400008080808090909090A0A0A0B0B0B0C0C08
:100D50000C0D0D0D0E0E0E0F0F0F101011111112A4
:100D60001213131414151516161717181819191A23
:100D70001A1B1B1C1D1D1E1E1F2020212222232486
:100D800024252626272829292A2B2C2D2D2E2F30C5
:100D9000313232333435363738393A3B3C3D3E3FD9
:100DA000404142434445464748494A4C4D4E4F50C6
:100DB000515354555658595A5B5D5E5F6162646584
:100DC0006668696B6C6D6F7072737577787A7B7D0E
:100DD0007E8082838587888A8C8E8F919395969862
:100DE0009A9C9EA0A2A3A5A7A9ABADAFB1B3B5B77E
:100DF000BABCBEC0C2C4C6C9CBCDCFD1D4D6D8DB55
:100E0000DDDFE2E4E7E9EBEEF0F3F5F8FAFDFFFFF2
:100E1000AA7F554020202020202020202020202094
:100E200020202020202020200A003D2020202020DB
:100E3000496D6167696E61727920526F6F74210A22
:100E4000002020202000534352200020202020009A
:100E5000434150200020202020004E554D2000000E
:100E600011241FBECFEFDAE0DEBFCDBF04B603FE14
:100E700027C08091080590910905A0910A05B091BD
:100E80000B058730904BA740B04BD1F4109208056A
:100E90001092090510920A0510920B0514BE84B732
:100EA000877F84BF0FB6F894A89580916000886111
:100EB00080936000109260000FBEE0E0F8E30995B7
:100EC00011E0A0E0B1E0E8EAFAE602C005900D9278
:100ED000A23CB107D9F725E0A2ECB1E001C01D9218
:100EE000A830B207E1F70E940E100C9452350C9412
:100EF00000003F924F925F926F927F928F929F92EB
:100F0000AF92BF92CF92DF92EF92FF920F931F9317
:100F1000CF93DF93CDB7DEB729970FB6F894DEBF36
:100F20000FBECDBFFC018081918123813481232BB1
:100F300031F09F3F31F491E08F3F19F403C091E00D
:100F400001C090E090FF02C00C94F60F7F0185E095
:100F5000DE01119601900D928A95E1F7F701228149
:100F600089819A81222349F00E94BE2E182F682F72
:100F700089819A810E941A2F03C00E94ED2E182F9A
:100F800069817A81812F0E94F9288C01F701828181
:100F9000882309F4F2C0980122513F4520313105E0
:100FA00008F019C18FEF93E00E94AA318111EFC0C0
:100FB000025167E1862E99249394002379F08114DD
:100FC000F4E09F0609F4E3C0C4010E94AA31811134
:100FD00001C001502FEF821A920AEFCF1E821F82AA
:100FE00018861986442443945AE0352E84010F5FF5
:100FF0001F4FC4010E94AA318E831F82882309F4E7
:10100000C6C09FEF980F933060F48F834E8232E01A
:10101000830E911CC8010E94AA318887811102C0E9
:10102000B6C048018E010A5F1F4FF80120812223BC
:10103000E9F2213009F04CC08181813049F4680126
:10104000F2E0CF0ED11CF80182810E9460300AC00C
:10105000823051F46801F2E0CF0ED11CF801828198
:101060000E94ED2F860186C0833049F46801F2E0CA
:10107000CF0ED11CF80182810E94BB2FF3CF8430A8
:1010800019F00F5F1F4F76C0F80122810E5F1F4FCE
:1010900080E090E030E0205331092A30310568F4D7
:1010A000389EA001399E500D1124C901840F951F4F
:1010B0000F5F1F4FF8012081EDCF009709F45AC050
:1010C000EFE9FFE03197F1F700C000000197F5CF9D
:1010D000E22FF0E0E65BFE4F5490822F86958695D6
:1010E000869590E0FC01E65CFE4F64902770712CC1
:1010F000022E02C0759467940A94E2F7F1E06F2221
:101100007724FC01E65DFE4FA490B12C022E02C0B4
:10111000B594A7940A94E2F731E0A322BB24FC0122
:10112000E65EFE4FC490D12C02C0D594C7942A9598
:10113000E2F781E0C822DD246114710419F081EE28
:101140000E94ED2FA114B10419F086EE0E94ED2F3C
:10115000852D0E946030AB2819F086EE0E94BB2FCF
:10116000672819F081EE0E94BB2FCD2819F08CE280
:101170000E9460300F5F1F4F58CF00313FE51307CB
:1011800009F02BC781E00E944A2F0E942C19809100
:10119000B804877009F42AC7F7018281882309F40B
:1011A00025C782E029960FB6F894DEBF0FBECDBFEB
:1011B000DF91CF911F910F91FF90EF90DF90CF9033
:1011C000BF90AF909F908F907F906F905F904F9067
:1011D0003F900C94FB200031FFE51F0711F481E0E4
:1011E00005C001312FE5120721F482E00E94562F3D
:1011F000CCCF0A36FDE51F0739F4882341F288E099
:1012000090E00E94782DC3CF0B362DE5120708F031
:1012100016C205363DE5130731F4882309F4B7CF2C
:1012200083E090E0EECF06369DE5190708F0DEC1B9
:101230000236EDE51E0731F4882309F4A8CF80E0DB
:1012400090E0DFCF0336FDE51F0708F040C0011531
:1012500020E4120709F045C0F7019581907F59F10C
:10126000882389F180914002882311F080FF05C016
:1012700080E00E944A2F81E00EC090E09C013595ED
:10128000279520FF0BC081E00E944A2F0E94912EDB
:101290000E947A2882E00E94562F79CF95958795F3
:1012A0009595879580FF73CF0E947A2882E00E94EF
:1012B0004A2F80E0F0CF882331F00E94912E0E94C7
:1012C0007A2883E0E8CF83E00E944A2F60CF03367C
:1012D0003DE5130709F47EC104369DE5190709F4BD
:1012E0007FC1033FFCE51F0741F190F4083D3CE559
:1012F0001307E9F0093D9CE5190789F1073DECE585
:101300001E07B1F506E221EE41EE67ED7CE52CC04B
:10131000053FFCE51F07E9F0B0F0063F3CE5130789
:1013200039F507E225EE46EE66EF7CE51DC007E2E3
:1013300025EE45EE68ED7CE517C006E221EE40EEB5
:1013400063EF7CE511C007E225EE44EE64EF7CE537
:101350000BC006E221EE42EE65EF7CE505C008E237
:1013600021E045EE69ED7CE5C7010E949A270FCF89
:10137000882309F4DEC21092E30403308DE51807D8
:1013800058F40A3F9CE5190760F4C80182509C4557
:10139000449708F0B8C205C00136EDE51E0709F014
:1013A000B2C20E940F209093F0048093EF040031AA
:1013B000FCE51F0709F4CAC008F041C008303CE54D
:1013C000130709F4A4C0F0F404309CE5190709F4EC
:1013D0008CC068F40230FCE51F0709F482C00330BA
:1013E0001C4509F0E7C08091EF048260E1C006303F
:1013F0003CE5130709F483C008F085C08091EF0431
:101400008860D6C00C309CE5190709F490C068F4D8
:101410000A30FCE51F0709F47EC008F084C00E9472
:10142000912F8091EF048068C3C00E303CE5130714
:1014300009F481C008F086C08091EF0494C00C3F8D
:101440009CE5190709F47BC038F50431FCE51F075A
:1014500009F49AC058F402313CE5130709F47AC044
:1014600008F07EC08091EF048F7BA2C00A3F9CE50C
:101470001907F1F108F03FC005311C4509F09AC089
:101480008091EF0482FB222720F991E0922790FBC4
:1014900082F990FB83F98CC001152DE5120709F440
:1014A00067C050F48091F0040E3F9CE51907C1F12C
:1014B00008F05BC08D7F65C00230FDE51F0709F4B1
:1014C00071C008F46DC001361D4509F073C08091EC
:1014D000EF0484FB222720F991E0922790FB84F906
:1014E00067C08091EF04816063C08091EF0416C0F3
:1014F0008091F00416C08091F004826042C0809117
:10150000EF04806155C08091EF04806251C08091EA
:10151000EF0480644DC08091EF048860846048C00F
:10152000826081602EC08091EF048E7F41C08091E7
:10153000EF048D7F3DC08091EF04877F39C080919B
:10154000F00414C08091EF048F7E32C08091EF04CC
:101550008F7D2EC00E94912F8091EF048F7728C03D
:101560008091EF04877F8B7F23C08D7F8E7F09C0A2
:101570008091F004982F909591708E7F892B90FB2D
:1015800081F98093F00416C00E94912F8091EF049E
:1015900087FB222720F991E0922790FB87F908C06A
:1015A00061E001C060E08EE090E00E94BE3102C0C8
:1015B0008093EF046091EF041091F00484E090E0D8
:1015C0000E94BE31612F82E290E00E94BE310E94F3
:1015D000912FDDCD882309F4DACD81E090E011CEA2
:1015E000882309F4D4CD82E090E00BCE0736EDE5F8
:1015F0001E0731F4882309F4CACD85E090E001CEBE
:101600000736FDE51F0730F4882309F4C0CD84E0D8
:1016100090E0F7CD08362DE5120731F4882309F460
:10162000B6CD86E090E0EDCD09363DE5130709F033
:1016300058CE882309F4ABCD87E090E0E2CD0037A7
:101640009DE51907A1F4882309F4A1CD8091D20169
:1016500081119DCD83E08093D10181E08093D00101
:1016600063E080E00E94632883EE91E022C00137AE
:10167000EDE51E0708F071C00C36FDE51F07E1F02F
:1016800008F44CC00E363DE5130709F04DC0882321
:1016900009F47DCD8091D201811179CD81E08093D3
:1016A000D1018093D00163E080E00E94632889EE3D
:1016B00091E00E941E196BCD882309F468CD9091AA
:1016C000D0018091D2019923A1F0811112C08091A3
:1016D000D101882381F00E94E82C81E08093D2011F
:1016E0006091CC017091CD018091CE019091CF019C
:1016F0000DC081114CCD81E08093D2016091C80171
:101700007091C9018091CA019091CB014FEF5FEFB9
:101710000E944A1780E00E94C62C39CD882309F424
:1017200036CD89E090E06DCD0F369DE5190709F0C3
:10173000D8CD882309F42BCD8091D201811127CDFA
:1017400082E08093D10181E08093D00163E080E06A
:101750000E94632886EE91E0ACCF0237EDE51E07CC
:1017600041F4882309F413CD0E94912E0E947A2817
:101770000ECD0237FDE51F07A0F4882309F407CD3D
:101780008091D201811103CD84E08093D10181E069
:101790008093D00163E080E00E94632880EE91E0B6
:1017A00088CF03372DE5120709F05DC0882309F4BF
:1017B000EECC8091D2018111EACC8091D0018111CF
:1017C00023C08091C8019091C901A091CA01B09134
:1017D000CB01BC01CD0190586093C8017093C90141
:1017E0008093CA019093CB0140E050E00E944A17D9
:1017F0000E947A28ECE4F4E001900020E9F73197A8
:10180000EC54F44062E028C08091C4019091C5017D
:10181000A091C601B091C701BC01CD019058609361
:10182000C4017093C5018093C6019093C70140E045
:1018300050E00E944A1763E081E00E9463288AEC2E
:1018400091E00E941E19ECE4F4E001900020E9F719
:101850003197EC54F44063E085E18E1B0E946328CD
:101860000E94041994CC04373DE5130709F039CDE3
:10187000882309F48CCC9091D0018091D2019111F0
:101880000FC0811184CC8091D101811180CC8090D6
:10189000C8019090C901A090CA01B090CB0111C0BD
:1018A000811175CC8091D101882309F470CC0E94FC
:1018B000E82C8090CC019090CD01A090CE01B0900A
:1018C000CF0120E030E0A901C501B4010E94BE3380
:1018D00087FF07C081E00E94C62C81E08093D2017F
:1018E00056CCC501B4010E9436346093CC0170938C
:1018F000CD018093CE019093CF014FEF5FEF0E9417
:101900004A1780E0E8CF8091BB0406319CE51907B7
:1019100009F58A7A91E009F490E09093D301882345
:1019200011F065E301C069E280E694E00E942D2792
:101930000EC006311C4509F026C18091D3018823D1
:1019400009F452C365E380E694E00E9405270E94F3
:101950009B201DCC82720C3C9CE5190709F4C2C087
:1019600008F045C0063CFCE51F0709F4A7C0D8F401
:10197000033C3CE5130709F497C030F4023CECE566
:101980001E0709F46CC0CEC0043CFCE51F0709F437
:1019900090C0053C2CE5120709F0C4C04CE75BE29F
:1019A00065E87BE2A3C0093C3CE5130709F490C05D
:1019B00078F4073CECE51E0709F485C0083CFCE51B
:1019C0001F0709F0AFC040E75BE264E67BE28EC030
:1019D0000A3C2CE5120709F480C00B3C3CE51307D8
:1019E00009F0A0C040ED59E261EE79E27FC0013D0F
:1019F0008CE5180709F486C0A0F40E3CECE51E0740
:101A000009F47AC008F475C00F3C2CE5120709F4FC
:101A100076C0003D3CE5130709F084C06EE089E024
:101A200079C0043D8CE5180709F472C068F4023DE2
:101A3000ECE51E0709F469C0033DFCE51F0709F04A
:101A400071C061E088E16BC0053D2CE5120709F427
:101A500064C00D353DE5130709F499CB63C080914F
:101A6000D60480FF1BC08E7F8093D6046091D6047D
:101A70007091D7048091D8049091D9040E94BE2916
:101A80001092FB048FEF90E7E2E081509040E0403D
:101A9000E1F700C000000E94642979CB8160809347
:101AA000D60461E086953BC040ED5BE269ED7BE2E8
:101AB0001DC049ED5BE260ED7BE218C045E85BE2EA
:101AC0006CE77BE213C044E65BE260E77BE20EC0BA
:101AD0004CE45BE268E57BE209C048E55BE26CE46C
:101AE0007BE204C041EE59E260ED79E20E945E299A
:101AF0004ECB61E081E013C065E082E00BC068E09E
:101B000086E008C064E18FE005C067E185E102C0BE
:101B100062E289E10E944C293ACB61E083E20E94B3
:101B20008E2B35CB0A35FDE51F0741F150F4011529
:101B30003CE51307A9F00E3D1C4529F50E942B201A
:101B400026CB0B359DE51907D9F00C351D45D9F489
:101B50008091F00482FB882780F991E0892711C0E9
:101B60000E94912FFFEF24E33CE0F15020403040F1
:101B7000E1F700C000000E947E2609CB81E001C091
:101B800080E00E94E120F701828100811181882399
:101B900049F0C8010E94BE2ED82E682FC8010E94AD
:101BA0001A2F04C0C8010E94ED2ED82EB8018D2D29
:101BB0000E94F9280E94861E8C01982EF701B2809F
:101BC000A580A2949FE0A9228091B804877099F023
:101BD000BB2089F0812F807F803421F080E2800F4C
:101BE000883048F082E00E94FB208091B804877022
:101BF000DD24D3948111D12CC12EC2948FE0C82250
:101C00008C2D90E08C30910508F0B3C1FC01EA5AAC
:101C1000FF4F0C94FA34812F807F1F70882311F0BE
:101C20001295107FBB20B9F0112309F48EC180E218
:101C3000800F883010F0911006C08091BB04182BE3
:101C40001093BB0405C08091BA04182B1093BA04FA
:101C50000E949B207AC1802F0E94BB2F112309F480
:101C600088C1005E1095083010F0911006C0809178
:101C7000BB0418231093BB0405C08091BA04182339
:101C80001093BA040E949B2074C1812F807F1F7023
:101C9000803211F01295107F992021F0F1E09F160B
:101CA00011F130C0BB20B1F0AA2081F021E0A212D6
:101CB0000DC08091F00482FD5CC18091BC04182BA2
:101CC000181709F456C11093BC0453C18091BC0489
:101CD000812B10C0AA2021F031E0A31609F449C1DC
:101CE0000E94952027C0BB2041F085E08A1508F4AA
:101CF00040C1812F0E94B12F3CC194E09A1508F495
:101D000038C118C0BB2049F0AA2099F3F70185819A
:101D100080FF1BC18F708583ECCFAA2059F0093357
:101D200009F024C1FFEF27EE33E0F15020403040AE
:101D3000E1F71AC1812F0E94A62F1BC1812F869522
:101D40008695837019F0813059F013C1BB2019F0CA
:101D5000C801937002C080E090E00E9478270FC114
:101D6000BB2019F0C801937002C080E090E00E948F
:101D7000622705C1812F8370A9F5B110FEC0402FE5
:101D8000429546954770440F440F802F8F7090E026
:101D90009C01042E01C0220F0A94EAF704FF08C038
:101DA0008FE090E001C0880F4A95EAF7809501C066
:101DB00080E0169516951370123069F088F49091B2
:101DC000BD04113019F0822B892302C0922B892B7C
:101DD0000E94612FD2C0822B9091BD048927F8CF39
:101DE000822BF6CFBB2019F0812F817001C0869520
:101DF000882309F4C2C0402F429546954770440F8E
:101E0000440F802F8F7090E09C01042E01C0220FA0
:101E10000A94EAF704FF08C08FE090E001C0880F41
:101E20004A95EAF7809501C080E0169516951370E3
:101E3000123059F078F490914002113019F0822B51
:101E4000892309C0922B892B06C0822B90914002D6
:101E5000892701C0822B0E94462F8FC01F70BB2094
:101E600039F0812F0E94562F802F0E94B12F85C0FC
:101E7000802F0E94A62F812F0E944A2F7EC0802F84
:101E800092EF991659F1991538F0E0EF9E1659F036
:101E9000F1EF9F16F1F055C023EF921631F134EFB8
:101EA000931681F14EC0BB2079F084E08A1508F4C6
:101EB00060C01F7181E090E001C0880F1A95EAF7B9
:101EC0009091400289271BC095E09A1508F451C0F3
:101ED000F0CFBB2029F0812F8F7126C0BB20D9F312
:101EE000812F8F710E944A2F44C0BB2039F01F718F
:101EF00081E001C0880F1A95EAF701C080E00E94D6
:101F0000462F37C0BB2099F01F71812F0E94562F9A
:101F10008091F00482FD07C0E8E01E9FC0011124FB
:101F200083608093B804812F0E94562F22C081E0E5
:101F30000E94FB20F1E0FA15E0F482E00E94FB2011
:101F400018C0BB2031F0AA2031F2802F0E94ED2F63
:101F500010C0AA2029F2893349F42FEF37EE83E02D
:101F6000215030408040E1F700C00000802F0E94E7
:101F7000BB2F88EF8C0D843010F40E948E27DD205B
:101F8000A9F18091B80480FD31C0F70112828595D6
:101F9000859585950E94562FC7010E9479078091EB
:101FA000B80485958595859529960FB6F894DEBF7A
:101FB0000FBECDBFDF91CF911F910F91FF90EF909A
:101FC000DF90CF90BF90AF909F908F907F906F9059
:101FD0005F904F903F900C944A2F01319FE5190775
:101FE00009F007C982E0CFC869E2ADCC29960FB6E7
:101FF000F894DEBF0FBECDBFDF91CF911F910F913F
:10200000FF90EF90DF90CF90BF90AF909F908F9018
:102010007F906F905F904F903F900895CF93DF93A4
:10202000CDB7DEB7AE970FB6F894DEBF0FBECDBF0B
:1020300084B7877F84BF0FB6F894A895809160001D
:10204000886180936000109260000FBE90E080E88D
:102050000FB6F89480936100909361000FBE85B72E
:10206000806885BF85B7806885BF8AE29EE19093CE
:10207000C3018093C2010E94761C0E94951C80912E
:10208000E20084608093E200789480913602882395
:10209000A1F01091E9001F709091EC00892F8170E0
:1020A00090FD80E8182B1092E9008091E80083FDF4
:1020B0000E9460191F701093E90082E084BD93E0D4
:1020C00095BD9AEF97BD80936E000E9433298111D0
:1020D00002C00E94242901E211E087E2E82E81E09B
:1020E000F82ED8018D918D018F3F11F00E946F1E47
:1020F000E016F106B1F707E211E0BCE2EB2EB1E029
:10210000FB2EF80181918F018F3F11F00E946F1E0D
:10211000E016F106B1F7E4EDF1E08AED91E0ABE015
:10212000B2E011921D928E179F07D9F70E942020CE
:10213000811102C00E942B2082E090E00E94AA310F
:10214000809304020E940F209093F0048093EF0488
:102150000E943C23FFEF06E711E0F15000401040E1
:10216000E1F700C000000E943C2380910B0280FF39
:1021700008C06FEF7FEF80E090E00E94DC310E94AA
:102180007E2683E090E00E94AA310E94612F0E9487
:10219000D0269093E0018093DF011092010280E845
:1021A000809341020E947E306DE070E08FEF91E0FD
:1021B0000E943719892B89F58091010263E070E054
:1021C00081FD28C08CEF91E00E943719892B29F5F9
:1021D0006DE070E08CEE91E00E943719892BE9F4F4
:1021E0000E94C426DC01CB01805A9541AF4FBF4FFE
:1021F0008093DB049093DC04A093DD04B093DE04B1
:102200000E947A2881E08093E0048093DF0410929A
:10221000020203C089EF91E0D7CF8091DA018111EA
:1022200033C00E942020811104C00E942B200E94F4
:10223000F22988E090E00E94B2316093D604709356
:10224000D7048093D8049093D9046E7F71F40E94D0
:10225000F22988E090E00E94B2316093D604709336
:10226000D7048093D8049093D9040E94AB2910928C
:10227000FB048091D60480FF04C060E086950E9434
:102280008E2B81E08093DA0153985B9A52985A9A88
:1022900089B183FB882780F94A9B02C092E001C084
:1022A00090E0892B8093DD010E947A280E94912E74
:1022B00080E091E09093E7048093E604F0E46F2ED1
:1022C000CC24C394D12C80913602853009F046C0CD
:1022D00000E112E180913602853009F03BC0809127
:1022E0003602843029F10E947A281092EA0468E1CB
:1022F00070E00FB6F894A895609360000FBE6092EE
:10230000600083B7817F846083BF83B7816083BFB0
:102310007894889583B78E7F83BF0FB6F894A8957D
:1023200080916000886180936000109260000FBE11
:1023300080913502882309F4CDCF0E943C23EBE045
:10234000F2E081918111CDC481E192E08E179F0767
:10235000C1F7C0CF0E94912F0E948E270E943C237C
:10236000A82E81110E94C426A5E0B2E0EBE0F2E0C5
:1023700000E010E0302F21919D91922721F180E023
:10238000FF24F3944F2D4923D1F089A33AA32F21A1
:1023900081E009F480E08BA30E94D0268160782F31
:1023A0009DA38CA349A15AA16BA18DA10E94E32BEF
:1023B000F801EB5FFD4F8081F826F08219C08F5F36
:1023C000FF0C8530F9F60F5F1F4F0630110591F6AF
:1023D0008FEF8EA38FA318A60E94D0268160782F3E
:1023E0009AA789A74EA15FA168A58AA50E94E32BA1
:1023F0008091FB04882309F493C08091FA04E09152
:10240000D604E695E81BE093F604823059F4F0E038
:10241000E65EFD4FE4910E2F10E0E0E4EE2EE6E2E2
:10242000FE2E59C0863059F4F0E0E95EFD4FE4918C
:102430000E2F10E070E3E72E76E2F72E4CC08930C5
:1024400061F4E695F0E0EC5EFD4FE4910E2F10E0B4
:1024500066ECE62E65E2F62E3EC08F3061F4E6951E
:10246000F0E0EF5EFD4FE4910E2F10E059E5E52E10
:1024700055E2F52E30C0853159F4F0E0E25FFD4FB2
:10248000E4910E2F10E04BE0E42E45E2F42E23C041
:102490008831A1F0833249F4ECE0F2E00591149127
:1024A00030EFE32E35E2F32E16C0843271F000EDEA
:1024B00017E022E0E22E24E2F22E0DC008E210E046
:1024C00092E8E92E94E2F92E06C004EF11E088E4C8
:1024D000E82E84E2F82E8091F704882361F01092B0
:1024E000F7040E94D0269093F5048093F404109290
:1024F000F9041092F8040E94D026E091F404F091BF
:10250000F5048E1B9F0B8F3F9F4750F40E0F1F1F2C
:102510001093F5040093F40484EF94E0F701099517
:102520008091DD01E82FEE0FEE0FE093DD0189B120
:1025300083FB442440F8512C4A9B03C082E090E086
:1025400002C080E090E0842995298E2B8093DD01E4
:102550008F70E82FF0E0E45DFE4F90818091DC0108
:10256000890F8093DC0184305CF08091DB018F5F08
:102570008093DB018AEA0E946030BB24B39401C0DF
:10258000B12C8091DC018D3F54F48091DB018150AE
:102590008093DB0189EA0E946030BB24B394809170
:1025A000DC01082E000C990B64E070E00E94A53459
:1025B0008093DC01B1100E94C4268091E00488233E
:1025C00009F4A3C160E080E00E9463288091DF01EC
:1025D0009091E0010E94B526883B9B4008F044C0E2
:1025E0008091DE01811140C080914A0490914B049A
:1025F000845492409C013E5F2130324028F020E01C
:1026000032E0281B390B02C020E032E06091420228
:1026100070914302DC01AC5BBD4FAC01280F391F48
:1026200042175307E0F4FA01E81BF90BE25EFD4F95
:10263000E491FC91EF1779F0EC93FA0115E0F6952F
:10264000E7951A95E1F7860102C0000F111FEA9580
:10265000E2F7602B712B4F5F5F4F1196E1CF7093C4
:102660004302609342023FC081E08093DE0180918B
:102670000A01882321F00E947A2810920A01809191
:1026800040020E948B2C813099F058F08230D9F0B2
:102690008330F1F485E394E00E941E1980E394E016
:1026A0000DC08BE694E00E941E1983E694E006C0FC
:1026B0008BE594E00E941E1984E594E00E941E19A7
:1026C0000E949F2C10C08DE394E00E941E190BC045
:1026D00088E294E00E941E198EE194E00E941E1987
:1026E00081E00E9433288091E004882309F4E2C04D
:1026F00020914202309143022115310509F4DAC0DC
:10270000809102028111D6C0282E312C7601082E2C
:1027100002C0EE0CFF1C0A94E2F7A9014E215F21D2
:10272000452B11F48F5FF0CF90910102910165E08C
:10273000220F331F6A95E1F790FD12C08295880F32
:10274000807680930D01220F232F221F330B3195AA
:1027500020931001815E80930E011092110112C02E
:1027600045E0369527954A95E1F7220F220F220F73
:1027700020930D0110921001295F20930E0183E038
:102780008093110124E630E047E050E06BE071E017
:1027900088E70E943531892B09F08CC080910102B5
:1027A00080FD23C0C10125E0880F991F2A95E1F71C
:1027B000AC014C5B5D4F04E610E020E230E060E4E9
:1027C00088E70E945C31892B09F074C00E940D28B3
:1027D000E094F0948091420290914302E822F92221
:1027E000F0924302E092420265C080E2E1EEF1E045
:1027F000DF011D928A95E9F795E0220C331C9A952A
:10280000E1F7E0E4F1E0FEA7EDA74CE351E0ADA570
:10281000BEA58D91BEA7ADA7FA019191AF0191011F
:10282000290F311D89010C5B1D4F1CA70BA790E0E0
:102830008F519E4FFC0107E09F01281B390B8C2C08
:1028400001C0880C2A95EAF76BA57CA5912CDB01C9
:102850001D91BD011821202F29192770722E022EDB
:10286000000C330BB12F01C0BB0F7A94EAF77B2E1B
:102870003195219531092770332701C016952A9586
:10288000EAF7712A1081712A7082939418E09112EC
:10289000DECF015031960F3F79F66DA57EA56454C9
:1028A000714009F0B4CF04E610E020E230E041EEE0
:1028B00051E085CF8091DF04882339F10E94C4263E
:1028C0000091DB041091DC042091DD043091DE04E2
:1028D000DC01CB01801B910BA20BB30B8F3F9F4FF1
:1028E000AF4FBF4790F48091E004882371F080914E
:1028F000DF04882351F062E070E083E794E00E94F7
:102900003719892B11F41092DF04A11001C0B11006
:102910000E940D280E948E2790910302891721F0B2
:102920000E948E278093030280913602843009F042
:10293000CACC83E08093E9008091E80082FFC3CC99
:102940008091E80085FF23C00E94CB1D81111DC02E
:1029500080E2E82EF12C8E010F5F1F4F09C080919D
:10296000F100D8018D938D01B1E0EB1AF10869F007
:102970008091E80085FDF3CF8091E8008B7780930C
:10298000E8000E94CB1D882399F391E001C090E0FC
:102990008091E8008B778093E800992309F493CC29
:1029A000E9818E2F90E0FC013197E331F10508F0C9
:1029B0006FC1EE59FF4F0C94FA341A8289E0BCC003
:1029C0008A81823009F4A3C1833051F0813009F04B
:1029D0005FC10E94C4269B838C837D836E835AC112
:1029E00080910B028B8380910C028C8380910D026D
:1029F0008D8380910E028E8380910F028F83809150
:102A00001002888747C18A81823009F041C16B81F9
:102A10007C818D819E810E94003586E290E024C0F9
:102A20004C816B818A810E94D3289D8377C10D815F
:102A30001E811027012710278C81EB809A81EAE004
:102A4000EE9E70011124FCE39F9FE00CF11C112409
:102A5000E80EF11CE80EF11C612FC70187960E9459
:102A6000BE31602FC70188960E94BE3113C10E94FB
:102A70009F2810C18A818138B1F050F4803809F064
:102A800009C120E04B816091D8048091D70431C006
:102A9000823859F1833809F0FDC020E04091D90413
:102AA0006C818B8126C060E08B810E948E2B9B8184
:102AB0008091D604911111C08E7F8093D60410921C
:102AC000FB040FEF10E722E0015010402040E1F737
:102AD00000C000000E946429DDC081608093D6049C
:102AE00060E086950E948E2BD5C08B818093DA049E
:102AF000D1C00E94B12ACEC08A81813899F030F4C9
:102B0000803809F0C7C08091D90416C0823891F08E
:102B1000833809F0BFC08091D7048B838091D8049B
:102B20008C83B8C08091D60480FF02C0869504C013
:102B300080E002C08091DA048B83ACC06091D6043F
:102B40007091D7048091D8049091D9040E94BE2935
:102B5000A1C080E155C082E08A8389EEEDCF0A8171
:102B60001B81102701271027AC80B12CBE016F5F9D
:102B70007F4F4B017B01C801895E9E4F9701281949
:102B800039092A153B0508F085C0093E72E0170790
:102B900030F40E94AA31D70114968C9302C0F70139
:102BA00014820F5F1F4FFFEFEF1AFF0AE4CF0A8175
:102BB0001B81102701271027AC80B12CBE016F5F4D
:102BC0007F4F4B017B01C801895E9E4F97012819F9
:102BD00039092A153B0508F05DC0093E72E0170768
:102BE00028F4D70114966C910E94BE310F5F1F4FDD
:102BF000BFEFEB1AFB0AE7CF0E948F284BC084E09F
:102C00008A8348C00A811B81102701271027AC80C6
:102C1000B12CFE0131964F017F01C80187969701C3
:102C2000281939092A153B05A8F5003F110530F48C
:102C30000E94AA31D70114968C9302C0F701148226
:102C40000F5F1F4FFFEFEF1AFF0AE7CF0A811B81CB
:102C5000102701271027AC80B12CBE016F5F7F4F7A
:102C60004B017B01C80187969701281939092A155C
:102C70003B0580F4003F110528F4D70114966C91B0
:102C80000E94BE310F5F1F4FBFEFEB1AFB0AEACF66
:102C90008FEF898380913602843009F014CB109134
:102CA000E9001F709091EC00892F817090FD80E801
:102CB000182B82E08093E9008091E80080FF0DC02E
:102CC00040E050E060E270E0CE0101960E94FE1DFF
:102CD0008091E8008E778093E8001F701093E900E0
:102CE000F2CA09BD19BD09B400FEFDCF8091D8001C
:102CF0008F7D8093D8008091E00082608093E00017
:102D00008091E00081FDFCCF0E94912FE3CA86E212
:102D100090E00E94AA311B821C821D828E83BACF52
:102D20008091380287FF11C08091E80082FD05C0C4
:102D3000809136028111F8CF11C08091E8008B7725
:102D40000BC080913602882349F08091E80080FF13
:102D5000F8CF8091E8008E778093E8000895982F4F
:102D6000973068F59093E900981739F07091EC006E
:102D70002091ED005091F00003C0242F762F50E0F9
:102D800021FD02C09F5FECCF3091EB003E7F30937E
:102D9000EB003091ED003D7F3093ED003091EB0082
:102DA00031603093EB007093EC002093ED00509372
:102DB000F0002091EE0027FDE5CF80E008958F70B0
:102DC0008093E90081E0089520913E0230913F0216
:102DD0002617370748F06115710539F42091E8008E
:102DE0002E772093E80001C0B901FC0120E06115B5
:102DF000710579F1809136028823F1F18530F1F186
:102E00008091E80083FD3CC08091E80082FD2EC0E7
:102E10008091E80080FFEBCF2091F3008091F200D9
:102E200090E0922B6115710551F08830910538F4CE
:102E300021912093F100615071090196F3CF21E0B7
:102E4000089709F020E08091E8008E778093E800F1
:102E5000CECF2111CFCF0AC080913602882361F0F6
:102E6000853061F08091E80083FD0AC08091E80020
:102E700082FFF2CF80E0089582E0089583E0089514
:102E800081E00895BC0184E00C945426BC0183E0E9
:102E90000C9454262F923F924F925F926F927F92A2
:102EA0008F929F92AF92BF92CF92DF92EF92FF925A
:102EB0000F931F93CF93DF9300D000D0CDB7DEB731
:102EC0006B017C015C834B834630510524F025E087
:102ED00030E03C832B8320E030E0A901C701B6013C
:102EE0000E945F3287FF0CC0F7FAF094F7F8F09475
:102EF0008DE280934C045DE4252E54E0352E04C011
:102F00004CE4242E44E0342E8B819C8197FF3FC0FB
:102F100020E030E040E85FE3C701B6010E945F3285
:102F200087FDBFC020E030E040E251E4C701B601B8
:102F30000E945F3287FDB8C020E030E048EC52E4E8
:102F4000C701B6010E945F3287FDB1C020E030E0CA
:102F50004AE754E4C701B6010E945F3287FDAAC068
:102F600020E030E44CE156E4C701B6010E945F3234
:102F700087FDA5C020E030E543EC57E4C701B6016A
:102F80000E945F3287FDA0C01C821B8216C0EB81AD
:102F9000FC81EF2B91F0EB81FC81EE0FFF1FEE0F18
:102FA000FF1FED5AFE4F2081318142815381C701BD
:102FB000B6010E94F3316B017C01C701B6010E948A
:102FC000D6324B015C01611571058105910539F41B
:102FD00081010F5F1F4F80E3F101808326C08101D3
:102FE0002AE0422E512C612C712C0F5F1F4F98014B
:102FF000215031093A832983A30192010E94DB34D5
:10300000605DE981FA816083B901CA0161157105CA
:103010008105910551F7F101D801EA17FB0728F462
:103020008E9190819C938193F8CF2B813C81232BAF
:1030300009F44FC0C501B4010E940E339B01AC01DD
:10304000C701B6010E94F23178013FEFE31AF30A9B
:103050002EE2F801208367010B811C8101501109C8
:10306000D8F020E030E040E251E40E94C3334B014D
:103070005C010E94DD3280E3860FF60181936F01CF
:1030800070E080E090E00E940E339B01AC01C5012E
:10309000B4010E94F231E2CF0B811C810E0D1F1D85
:1030A00018C026E030E008C085E090E00AC0E4E007
:1030B000F0E00CC023E030E03C832B836CCF82E057
:1030C00090E09C838B8367CFE1E0F0E0FC83EB83AF
:1030D00062CFF80110828CE494E00F900F900F9073
:1030E0000F90DF91CF911F910F91FF90EF90DF90A4
:1030F000CF90BF90AF909F908F907F906F905F9098
:103100004F903F902F900895CF93DF938A3011F422
:1031100081E003C08D3029F480E0DF91CF910C94E1
:103120003328682F80914A0490914B0426E0FC01DB
:10313000A4E4B4E001900D922A95E1F7603E30F0EE
:1031400026E0FC0111922A95E9F70AC0F6E06F9F8C
:10315000B001112463527A4F46E050E00E94A13141
:10316000C0914A04D0914B0446E050E0BE0184E493
:1031700094E00E944535892B49F19E012454324048
:10318000A90185E0569547958A95E1F781E090E0A1
:10319000BC0102C0660F771F4A95E2F740914202D8
:1031A00050914302462B572B2B5F3F4F65E03695DE
:1031B00027956A95E1F702C0880F991F2A95E2F7D3
:1031C000842B952B90934302809342029E012E53B1
:1031D000324040914102642F70E0C9010E948D315C
:1031E000481B463010F4240F311D211582E03807AA
:1031F00010F020E030E02C5B3D4F30934B042093E7
:103200004A04DF91CF9108950F931F93CF93DF93DB
:10321000CCE4D4E009900020E9F721970CE414E015
:103220000C171D0730F4F80181918F010E9484185A
:10323000F7CFDF91CF911F910F910895CF93DF9337
:10324000EC01FE018491882321F00E9484182196CC
:10325000F8CFDF91CF91089580914002982F96701A
:10326000963011F4886001C0877F0C94462FEF924E
:10327000FF920F931F93CF93DF93EC017B0164E6E2
:1032800070E088E70E9484308C01EC0EFD1ECE15A4
:10329000DF0561F017FD0AC0FE01849164E670E06D
:1032A0000E9405318C012196892B89F30E94893176
:1032B000C801DF91CF911F910F91FF90EF9008957A
:1032C0001F93CF93DF93CDB7DEB7AA970FB6F894CD
:1032D000DEBF0FBECDBFE8E3F2E08091F100819345
:1032E00042E0E034F407C9F780913902833009F4F1
:1032F00062C030F4813071F0823009F49CC0B3C0F8
:103300008A3009F488C08B3009F46DC0893009F027
:10331000AAC020C080913802813A09F0A4C08091EF
:10332000E800877F8093E80080913C0290913D0205
:10333000892B21F460E284E192E003C060E080E048
:1033400090E070E00E94E4168091E8008B77809313
:10335000E80089C080913802813209F084C08091F0
:103360003C0290913D02009719F0029709F07BC052
:103370008091E800877F8093E8008091E80082FDDB
:1033800005C0809136028111F8CF6DC02091F30005
:103390008091F20090E0922B029729F48091F10045
:1033A0008B7F813021F48091F10080931302809112
:1033B000E8008B7754C080913802813A09F053C0FD
:1033C00080913C0290913D02892B09F04CC0809184
:1033D000E800877F8093E8008091E80080FFFCCFC1
:1033E0008091120137C0809138028132E1F58091DD
:1033F0003C0290913D02892BB1F58091E800877FD6
:103400008093E8000E94901680913A028093120106
:103410000E94912F28C080913802813221F580913D
:10342000E800877F8093E8000E94901680913B021D
:103430008093120218C080913802813AA1F48091E1
:10344000E800877F8093E8008091E80080FFFCCF50
:10345000809112028093F1008091E8008E77809332
:10346000E8000E9490168091E80083FFDDC1809102
:10347000380290913902492F50E04A30510508F046
:10348000D3C1FA01EB58FF4F0C94FA34803821F085
:10349000823809F0C9C108C0809134029091350288
:1034A000992389F082600FC080913C028F70873031
:1034B00008F0BAC18093E9008091EB0085FB882772
:1034C00080F91092E9009091E800977F9093E800CE
:1034D0008093F1001092F10070C1282F2D7F09F028
:1034E000A3C1882319F0823061F09EC180913A0215
:1034F000813009F099C1933009F080E08093350262
:103500002EC080913A0281112AC080913C028F70B6
:103510002FEF280F263008F087C18093E900209113
:10352000EB0020FF1CC0933021F48091EB008062FF
:1035300014C09091EB0090619093EB0021E030E09B
:10354000A90102C0440F551F8A95E2F74093EA0093
:103550001092EA008091EB0088608093EB0010925B
:10356000E9008091E800877F8093E8000E94901630
:103570005BC1811159C110913A021F778091E3001C
:103580008078812B8093E3008091E800877F80938F
:10359000E8000E9490168091E80080FFFCCF8091A7
:1035A000E30080688093E300111102C082E001C053
:1035B00083E08093360238C18058823008F034C1ED
:1035C00020913A0230913B022C3D53E0350779F5CA
:1035D00083E08A838AE289834FB7F894DE011396E9
:1035E00020E03EE051E2E32FF0E050935700E491F9
:1035F00020FF03C0E295EF703F5FEF708E2F90E0E9
:10360000EA3010F0C79601C0C0968D939D932F5F4E
:10361000243149F74FBF8091E800877F8093E8000D
:103620006AE270E0CE0101960E94E416B4C0809177
:103630003C0290913D02432F552743305105A9F09C
:1036400068F44130510509F4FEC04230510509F0DB
:10365000EBC08BE590E0E4E4F5E04BC0413251056E
:1036600029F14232510589F1DFC0C9019927813022
:103670009105A1F058F0029709F0D6C0E1EBF5E012
:10368000E4918E2F90E0E1EBF5E030C0E9EDF5E05C
:10369000E4918E2F90E0E9EDF5E028C0E7ECF5E04D
:1036A000E4918E2F90E0E7ECF5E020C083309105A7
:1036B00008F0BAC0880F991FFC01E35BFE4F019030
:1036C000F081E02D89E090E014C08330910508F08E
:1036D000ABC0FC01EE0FFF1FE95BFE4F0190F081D4
:1036E000E02DDC01AC5BBE4F8C9190E0009709F4BB
:1036F0009BC02091E800277F2093E80020913E02A4
:1037000030913F022817390708F4C90140E00097BB
:1037100089F120913602222309F43DC02530D9F1E8
:103720002091E80023FD37C02091E80022FD2FC042
:103730002091E80020FFEBCF4091F3002091F200B0
:1037400030E0342B009759F02830310540F4449193
:103750004093F100319601972F5F3F4FF3CF41E047
:103760002830310509F040E02091E8002E772093C1
:10377000E800CDCF4111CDCF0AC080913602882319
:1037800051F0853041F08091E80083FD04C08091C4
:10379000E80082FFF2CF8091E8008B778093E80009
:1037A00043C0803809F040C08091E800877F809353
:1037B000E800809137028093F1008091E8008E77D5
:1037C000D3CE811131C080913A0290913B0299276A
:1037D000029754F58091E800877F8093E80010916C
:1037E0003A02109337020E949016111106C0809180
:1037F000E30087FD02C081E001C084E080933602CF
:1038000042E061EC81E00E94AF1642E261EC84E0AC
:103810000E94AF1642E261EC82E00E94AF1642E2E3
:1038200060EC83E00E94AF168091E80083FF10C037
:103830008091E800877F8093E8008091EB008062B0
:103840008093EB0005C082E190E0EFE9F5E051CF15
:10385000AA960FB6F894DEBF0FBECDBFDF91CF9111
:103860001F9108951F920F920FB60F9211242F935C
:103870003F934F935F936F937F938F939F93AF93F8
:10388000BF93CF93DF93EF93FF93C091E900CF7085
:103890008091EC00D82FD17080FDD0E81092E90023
:1038A0008091F000877F8093F00078940E946019E7
:1038B0001092E9008091F00088608093F000CD2B99
:1038C000CF70C093E900FF91EF91DF91CF91BF914D
:1038D000AF919F918F917F916F915F914F913F91A8
:1038E0002F910F900FBE0F901F901895E8EDF0E00C
:1038F00080818E7F80831092E2001092DA00109215
:10390000E100A0EEB0E08C9181608C9380818F7794
:10391000808319BCA7EDB0E08C918E7F8C93808161
:103920008F7E8083109211020895CF92DF92EF92E2
:10393000FF920F931F93CF93DF93C8EDD0E0888160
:103940008F7E8883E7EDF0E080818160808384E072
:1039500082BF81E08093110288818E7F888302EE8E
:1039600010E0F80110821092DA0081EEC82ED12CFE
:10397000F601108288818F778883888180688883A8
:1039800088818F7D888319BC10923602109237028D
:10399000109235021092340290EEE92EF12CF701CC
:1039A00080818B7F808388818160888342E060E0B2
:1039B00080E00E94AF16F60180818E7F8083F8013F
:1039C000808181608083808188608083F70180812D
:1039D0008E7F8083888180618883DF91CF911F9162
:1039E0000F91FF90EF90DF90CF9008951F920F926C
:1039F0000FB60F9211242F933F934F935F936F93C2
:103A00007F938F939F93AF93BF93EF93FF93809197
:103A1000E10082FF09C08091E20082FF05C0809131
:103A2000E1008B7F8093E1008091DA0080FF2AC063
:103A30008091D80080FF26C08091DA008E7F80932D
:103A4000DA008091D90080FF18C080E189BD82E151
:103A500089BD09B400FEFDCF81E0809336028091DC
:103A6000110281110FC00E94761C0E94951C80914A
:103A7000E20084608093E20005C019BC1092360217
:103A8000109211028091E10080FF17C08091E20046
:103A900080FF13C08091E2008E7F8093E2008091CE
:103AA000E20080618093E2008091D8008062809380
:103AB000D80019BC85E0809336028091E10084FF34
:103AC0002EC08091E20084FF2AC080E189BD82E19E
:103AD00089BD09B400FEFDCF8091D8008F7D809311
:103AE000D8008091E1008F7E8093E1008091E20018
:103AF0008F7E8093E2008091E20081608093E200FB
:103B000080913702882311F084E007C08091E300A0
:103B100087FD02C081E001C083E08093360280917E
:103B2000E10083FF27C08091E20083FF23C08091E2
:103B3000E100877F8093E10082E08093360210925B
:103B400037028091E1008E7F8093E1008091E20056
:103B50008E7F8093E2008091E20080618093E2009A
:103B600042E060E080E00E94AF168091F000886043
:103B70008093F000FF91EF91BF91AF919F918F9152
:103B80007F916F915F914F913F912F910F900FBE59
:103B90000F901F9018952091E4003091E50095E674
:103BA0004091EC00842F817040FF23C08091E80099
:103BB00080FD1DC080913602882399F0853099F0F0
:103BC0008091EB0085FD11C04091E4005091E5002B
:103BD0002417350729F3915011F09A01E1CF84E0C1
:103BE000089582E0089583E0089581E0089580E0DB
:103BF00008954091E80042FFDDCF0895EF92FF92D3
:103C00000F931F93CF93DF937C018B010E94CB1DF9
:103C1000811119C0E70101151105A1F08091E8009B
:103C200085FD0AC08091E8008E778093E8000E94AD
:103C3000CB1D882381F307C089918093F100015047
:103C40001109E9CF80E0DF91CF911F910F91FF9093
:103C5000EF90089580E008959091EF0492FF0DC0D9
:103C6000282F2871283019F4877F846006C0282FF8
:103C70002471243011F48B7F886093FF0DC0282FAE
:103C80002871283119F4877E846106C0282F247199
:103C9000243111F48B7E88612091F00420FF0DC047
:103CA000382F3871383019F4877F816006C0382F7B
:103CB0003171313011F48E7F886021FF0DC0282FC3
:103CC0002871283119F4877E816106C0282F21715F
:103CD000213111F48E7E886194FD877E0895F894D9
:103CE000E82FE295EF70F0E031A1282F2F7081E0EE
:103CF00090E001C0880F2A95EAF7982F90959323BA
:103D000091A392A1892B82A378940895CF93DF93F6
:103D10008238910569F1B0F48133910509F46FC0DF
:103D200048F48932910509F465C08A32910509F495
:103D30006BC08AC08533910509F457C0893391055A
:103D4000B9F082C0833E910571F138F4803E91054F
:103D5000B1F0823E910511F177C0863E9105B9F12F
:103D6000873E9105C9F1843E910509F06DC024C0DC
:103D70002091EF0420FD53C021FD51C065C080910A
:103D8000EF0480FD46C08091F00480FF48C0809120
:103D9000EF0484FD3FC183EE90E03EC18091EF04CB
:103DA00082FF3AC0F4CF8091EF0482FD35C080914C
:103DB000F00480FD34C0EBCF8091F00481FF35C06A
:103DC0008091EF0484FD26C187EE90E025C18091AB
:103DD000EF0483FF27C0F4CF8091EF0483FD22C05E
:103DE0008091F00481FD21C0EBCF8091EF0485FD2F
:103DF0001FC021C08091EF0485FD1DC019C08091B6
:103E0000EF0486FD1BC01DC08091EF0486FD19C024
:103E100015C089E390E000C182EE90E0FDC080EE25
:103E200090E0FAC086EE90E0F7C084EE90E0F4C037
:103E300089E290E0F1C085E390E0EEC08AE290E094
:103E4000EBC081E390E0E8C0811532E5930708F00C
:103E500069C0811541E5940728F0982F8827816F64
:103E6000906ADAC0883E910568F5803E910508F0B9
:103E7000D3C0883A9105B8F4853A910548F0855A3F
:103E8000E82FF0E0E559FE4F808190E09064C4C0D7
:103E90008130910509F4BBC008F4BCC084309105A1
:103EA00008F4B8C0B9C08F3B910508F0B3C0885A78
:103EB000E82FF0E0EE0FFF1FE259FE4F8081918165
:103EC0009464AAC0811520E59207F0F09C0174E08B
:103ED000369527957A95E1F7922F9370482F437086
:103EE00021E030E002C0220F331F4A95E2F73C6820
:103EF000392B8F70982F9695969540E2949FC0012C
:103F00001124822B932B88C0811530E4930718F07D
:103F10009F70906A81C09C013A9521153F4108F439
:103F20007BC078C0EC01C11586E5D807E8F5C1155E
:103F300025E5D20748F08C2F0E942C1E8F7190E04F
:103F4000982F8827906268C0C11534E5D30728F000
:103F50009C2F8827846F906A5FC0AE0143705527FD
:103F60002C2F26952695C115D34578F481E090E055
:103F700002C0880F991F4A95E2F740E2249F900102
:103F80001124822B932B9C6847C081E090E002C0F3
:103F9000880F991F4A95E2F740E2249F900111246F
:103FA000822B932B9A6838C0C1152AE5D207F8F402
:103FB000C11539E5D30790F08C2F8F700E942C1E0D
:103FC00094E0D695C7959A95E1F7CF70D0E0DC2FB5
:103FD000CC27D0699E01282BC9011EC0C11548E518
:103FE000D407C0F09C2F8827806F906A15C0CE013F
:103FF00090568115904270F48D2F8F710E942C1E67
:10400000282F2F71CE0199279062922B05C081E055
:1040100090E002C080E090E0DF91CF910895CF93CF
:1040200084E090E00E94AA31C82F82E290E00E94D2
:10403000AA312C2F30E0A901582BCA01CF91089545
:1040400080E090E00E94B831893E9E4F11F40C94BC
:10405000332980E0089569EE7EEF80E090E00E94D1
:10406000DC3160E082E090E00E94BE3160E083E0FD
:1040700090E00E94BE311092BD0460E084E090E0C8
:104080000E94BE3160E082E290E00E94BE3160E0BA
:1040900085E090E00E94BE3160E086E090E00E9402
:1040A000BE316FEF87E090E00E94BE3140E050E00B
:1040B000BA0188E090E00E94D03160E08DE090E0AD
:1040C0000E94BE3140E050E0BA0188E190E00E94D9
:1040D000D03160E087E190E00E94BE3140E050E0E6
:1040E000BA018CE190E00E94D03160E070E080E2A3
:1040F00090E00E94DC3140E050E0BA0188E190E0BD
:104100000E94D03180E00E9406290E94242940E0CC
:1041100050E0BA018FE090E00E94D03140E050E0E2
:10412000BA0183E190E00C94D0318091BC048111FC
:104130001092BC0408959091BB048091BA04892B1D
:104140002091B904982F922B909360048091BC0425
:104150008823D9F0892B80936004809112018823F1
:1041600031F08091EF0487FF02C08EE101C086E04C
:10417000E2E6F4E090E0815028F021912223D9F387
:104180009F5FF9CF91110E949520E091E604F09194
:10419000E7043097A9F080911201882359F08091AB
:1041A000EF0487FF07C0809160048093610485E07D
:1041B000809360040280F381E02D80E694E009940E
:1041C0000895CF93C091F004C2FB992790F99817F6
:1041D00081F080FBC2F9C093F0046091EF0484E0A9
:1041E00090E00E94BE316C2F82E290E0CF910C945F
:1041F000BE31CF9108952091B80480958223809399
:10420000B804982F977041F430E0482F082E000C26
:10421000550B2417350721F49091F00492FF07C045
:104220008595859585950E944A2F1092B80408952A
:104230008091B70490918604891719F08F5F877079
:10424000FBCF08950F931F93CF93DF938091850445
:1042500082958F7009F05DC080918204882309F4F3
:1042600058C08091B70410918604609180047091C9
:104270008104C0918304D091840491E06F3F09F0E0
:1042800090E0292F06E0811709F443C0209721F020
:104290007F3F21F030E003C031E001C0322F90E0D9
:1042A00030FD34C0089FF001099FF00D1124DF019B
:1042B000A957BB4F11963C911197371327C03C91DA
:1042C000361324C012963C91129731111FC01396D9
:1042D0004D915C9114974C1B5D0B483C5105B0F41B
:1042E000809185048F70806180938504E457FB4F33
:1042F00080818F708061808380E894E00E947907DC
:10430000DF91CF911F910F910C9418210196877026
:10431000BACFDF91CF911F910F910895CF93DF9383
:10432000EC010E94BE2EBE010E94F9280E94861E4A
:10433000DF91CF9108959F92AF92BF92CF92DF927B
:10434000EF92FF920F931F93CF93DF93CDB7DEB71A
:1043500061970FB6F894DEBF0FBECDBF8C0185E02C
:10436000F801DE011D9601900D928A95E1F7F801A2
:10437000E280909180046091810440918304509187
:1043800084044115510531F06F3F31F481E09F3FC6
:1043900019F403C081E001C080E0F82FF1709F2E76
:1043A00080FD1AC1F80130812181C380D48080E86A
:1043B000A82E84E0B82EF0908204F601E41BF50BE1
:1043C000FF2009F4C6C080918504E83CF10508F09F
:1043D00091C0482F407F09F050C0621311C0931361
:1043E0000FC0FE2CE1100CC08F708061809385049B
:1043F000C5010E94790780918504F801858329C150
:10440000CD2831F02F3F31F481E03F3F19F403C054
:1044100081E001C080E080FD03C081E08E2502C004
:1044200080E090E0F82FF170FF2E80FF1CC080919B
:10443000B7044091860456E0841709F4E8C090E080
:10444000589FF001599FF00D1124E957FB4F6181EE
:10445000261306C06081631303C06281E61203C0A5
:1044600001968770E9CFFE2CEE2009F4F2C080910E
:10447000850481608093850449C0621306C093134C
:1044800004C0E11002C0F80186C0C8010E94652F77
:10449000882351F1EE2041F120918504822F8295ED
:1044A0008F7090E0029774F0809180049091810465
:1044B00098878F831986DB86CA862C87CE0107965C
:1044C0000E94790786E0F801A0E8B4E001900D921F
:1044D0008A95E1F70E9422210AC06217C9F0C8013B
:1044E0000E94652F81111EC0C8010E947907FF2418
:1044F000F394AFC0482F407F81F780E894E00E949A
:10450000790786E0F50111928A95E9F7F12CA1C0AF
:104510009313E5CFE110E3CFF8018583C8010E9432
:10452000790754C0EE2001F320918504822F8295F3
:104530008F7090E0029734F2809180049091810412
:104540009A8389831B82DD82CC822E83CE010196E1
:10455000B7CFE83CF105D0F5FE2CEE2029F262132E
:1045600027C0931325C02091850420FD18C0822FF9
:1045700082958F70482F50E04115510581F0F80168
:1045800025834F30510541F08F5F982F9295907F92
:10459000822F8F70892B8583C8010E94790786E05E
:1045A000F801A0E8B4E001900D928A95E1F751C0BE
:1045B000C8010E94652F811185CF8091850481609B
:1045C00080938504C8010E94790743C086E0F50105
:1045D00011928A95E9F73DC0EE2009F485CFC80114
:1045E0000E94652FF82E882309F47ECF86E0F8011B
:1045F000A0E8B4E001900D928A95E1F780918004E3
:10460000909181040E948E210E94222122C03D8728
:104610002E878D859E850E948E21292F22952F70B1
:10462000223028F49F7039F0811105C00BC024306E
:1046300028F49F7049F4805E883020F0C8010E9401
:1046400079079F2CF92C05C0F8019581907F99F787
:10465000F9CF8F2D61960FB6F894DEBF0FBECDBF98
:10466000DF91CF911F910F91FF90EF90DF90CF904E
:10467000BF90AF909F9008957F928F929F92AF923C
:10468000BF92CF92DF92EF92FF920F931F93CF933F
:10469000DF9300D000D000D0CDB7DEB7AE014F5FC2
:1046A0005F4F7A0186E0DA011D928A95E9F701E20F
:1046B00011E06A0187E2882E81E0982EAA24A39453
:1046C000B12CF80180818F3F09F448C0F894E82F9D
:1046D000E295EF70F0E021A18F70A50102C0440FB8
:1046E000551F8A95E2F7CA01922F982B91A392A1A8
:1046F0008095892382A3789400C0E7E2F1E020E06E
:1047000030E0712C81918F3FB9F0A82FA295AF7046
:10471000B0E090964C9150E08F70DA0102C0B595F0
:10472000A7958A95E2F7A0FD07C08A2D022E01C049
:10473000880F0A94EAF701C080E0782A2F5F3F4F84
:1047400025303105F9F6F80180818F3F11F00E9484
:104750006F1EF0EAFA95F1F7D6017C920F5F1F4FBA
:10476000BFEFCB1ADB0A8016910609F0AACF46E00C
:1047700050E0B70184ED91E00E94453511E00097CB
:1047800009F410E0892B89F086E0F701A4EDB1E08F
:1047900001900D928A95E1F781E08093C0040E9418
:1047A000D0269093BF048093BE048091C0048823D8
:1047B000A1F08091BE049091BF040E94B526059798
:1047C00060F0E4EDF1E0ABE0B2E081918D9341E087
:1047D000EA3DF407D1F71092C004812F26960FB658
:1047E000F894DEBF0FBECDBFDF91CF911F910F9127
:1047F000FF90EF90DF90CF90BF90AF909F908F9001
:104800007F90089508950895809113020895CF939D
:10481000DF9320911201222339F02091EF0427FF2A
:1048200003C060E224E002C068E021E02093E900D8
:104830002FEF3091E800215035FD06C035ED3A9557
:10484000F1F700002111F5CF2091E80025FF1DC0F0
:10485000EC0180911201811105C040E050E068E058
:1048600070E003C070E040E050E0CE010E94FE1D09
:104870008091E8008E778093E80080E2FE01A4E159
:10488000B2E001900D928A95E1F7DF91CF91089502
:10489000EF92FF920F931F93CF93DF938C01C4ECA1
:1048A000D4E0E12CF12CF8018481F3E0EF16F1045F
:1048B0001CF4882339F002C0811104C09E0140918C
:1048C000D90402C09E0140E06091D8048091D704D1
:1048D0000E94012A8FEFE81AF80A239696E0E9165B
:1048E000F10409F70E946429F801848190E001969F
:1048F000817099278483DF91CF911F910F91FF9051
:10490000EF9008958F929F92AF92BF92CF92DF92D5
:10491000EF92FF920F931F93CF93DF93EC014C81A3
:10492000042F10E09801D8010E940F359B01AC01C3
:104930000E9425356B017C01E0E2F0E0E01BF10B09
:10494000A5E5B0E09B01AC010E9425354B015C015F
:104950009F01DF010E9407359B01AC010E943035A9
:104960009B01AC012C0D3D1D4E1D5F1DC501B40109
:104970000E94B934822FF22E99E2921728F093E028
:10498000299F900111240DC025E530E0281B310935
:10499000C901880F991F280F391F37FF02C02F5FE9
:1049A0003F4F35952795122F109594ECC92E94E022
:1049B000D92E00E085E5E82EEF1801FD02C08E2D0E
:1049C00001C08F2D9601412F6091D8040E94012AC9
:1049D0000F5F83E0C80ED11C063079F70E9464296E
:1049E0008C81811102C091E003C0803219F49FEFE5
:1049F0009093150190911501890F8C83DF91CF91D0
:104A00001F910F91FF90EF90DF90CF90BF90AF90EC
:104A10009F908F9008950F931F93CF93DF93C4ECD3
:104A2000D4E0FE01118210821282339684E0E63DCA
:104A3000F807C1F700E010E08091C204082E000CD6
:104A4000990B0817190794F080911401082E000C97
:104A5000990B8017910754F09E014091D904609101
:104A6000D8048091D7040E94012A03C019821882B9
:104A70001A820F5F1F4F239606301105E9F60E9438
:104A80006429809113019091C204980F9093C204FD
:104A900020911401280F20931401121614F495305C
:104AA0001CF0819580931301DF91CF911F910F919D
:104AB0000895BF92CF92DF92EF92FF920F931F93D0
:104AC000CF93DF93FC01828180FF03C0DD24DA9461
:104AD00002C0DD24D39404EC14E0C0E0D0E026E072
:104AE000B22EF80111821082128294E0E92EF12C8C
:104AF000C12C8091C1048C0D87302CF06B2D0E944D
:104B00009734892F02C087FD8A5F082E000C990B0D
:104B1000C817D90791F48091D9048E9DA0018F9D6B
:104B2000500D1124559547955595479598016091DD
:104B3000D8048091D7040E94012ACD0CF1E0EF1A2D
:104B4000F108B9F621960D5F1F4FC630D10549F621
:104B50000E9464298091C10491E0D91206C081119C
:104B600002C085E007C0815005C090E00196BE01FB
:104B70000E94A5348093C104DF91CF911F910F91C2
:104B8000FF90EF90DF90CF90BF900895EF92FF924B
:104B90001F93CF93DF93EC0184ECE82E84E0F82E92
:104BA00010E08C8197014091D9046091D804810F65
:104BB0000E94012A165D83E0E80EF11C1C3F89F774
:104BC0000E9464299A818C8190FF02C08F5F01C08E
:104BD00081508C83DF91CF911F91FF90EF900895CA
:104BE0000F931F93CF93DF9300D01F92CDB7DEB703
:104BF0008C018091C30481110AC09E012F5F3F4F39
:104C00004FEF6FEF0E94012A8A818093C304F8015D
:104C10008481813051F028F0823061F44091C304E6
:104C20000AC08091C30440E007C06091C30440E023
:104C300080E003C040E080E060E00E949A29F80133
:104C4000848190E0019663E070E00E94A534848343
:104C50000F900F900F90DF91CF911F910F910895BA
:104C6000CF93DF93EC01E6EDF4E0438162818C8128
:104C70000E94972A8C818F5F8C83DF91CF9108955A
:104C8000CF93DF93EC01EC81F0E0E35EF44F4491CD
:104C9000E6EDF4E0628181810E94972A8C818F5F2A
:104CA0008C83DF91CF91089590913602943029F54D
:104CB0008093F1047093F3046093F2049093E900FD
:104CC0008FEF9091E800815095FD06C095ED9A9583
:104CD000F1F700008111F5CF8091E80085FF0DC04C
:104CE00040E050E063E070E081EF94E00E94FE1D40
:104CF0008091E8008E778093E800089587E797E732
:104D000090930108809300089AE088E10FB6F89428
:104D1000A895809360000FBE90936000FFCF7894B9
:104D20001F920F920FB60F9211248F939F93AF9300
:104D3000BF938091EB049091EC04A091ED04B091AD
:104D4000EE040196A11DB11D8093EB049093EC0439
:104D5000A093ED04B093EE04BF91AF919F918F911A
:104D60000F900FBE0F901F9018959C014FB7F894AD
:104D70008091EB049091EC04A091ED04B091EE04CD
:104D80004FBF821B930B08952FB7F8946091EB04EB
:104D90007091EC048091ED049091EE042FBF089582
:104DA0002FB7F8948091EB049091EC04A091ED045E
:104DB000B091EE042FBF08951F920F920FB60F927D
:104DC00011248F939F93AF93BF938091EA04811135
:104DD00013C08091EB049091EC04A091ED04B0918C
:104DE000EE044196A11DB11D8093EB049093EC0459
:104DF000A093ED04B093EE04BF91AF919F918F917A
:104E00000F900FBE0F901F90189520911201222332
:104E1000C9F02091EF0427FF15C0262F269526956F
:104E200026952E31C8F4FC01E20FF11D677081E078
:104E300090E001C0880F6A95EAF7809592818923F6
:104E400082830895FC0106962281621301C01282BA
:104E50003196E817F907C1F708952091120122232E
:104E6000C1F02091EF0427FF14C0262F2695269528
:104E700026952E3130F5FC01E20FF11D677081E0BF
:104E800090E001C0880F6A95EAF79281892B8283AE
:104E90000895FC0132962FEF30E04191641789F0BC
:104EA0002F3F19F4411101C0232F3F5F3630A9F77E
:104EB0002F3F39F0FC01E20FF11D27FDFA956283C7
:104EC000089508952091E8043091E90428173907DE
:104ED00071F09093E9048093E804E091E604F09186
:104EE000E704309721F00084F185E02D09940895BE
:104EF0002091E4043091E5042817390771F090936C
:104F0000E5048093E404E091E604F091E70430972F
:104F100021F00680F781E02D09940895E091E604E0
:104F2000F091E704309721F00190F081E02D099491
:104F300080E008950F931F93CF93DF93C42FD22F58
:104F4000FC0182818823C9F04093E3040E94D026AB
:104F50009093E2048093E10480E28C0F883008F0A3
:104F600057C0C77081E001C0880FCA95EAF7DF918A
:104F7000CF911F910F910C94B12F8091E3044813AE
:104F800030C08091E1049091E2040E94B526883CF3
:104F9000910538F510E21D0FCD17B9F080E28C0FA6
:104FA000883040F4C77081E001C0880FCA95EAF7E5
:104FB0000E94A62F183028F581E09D2F977001C020
:104FC000880F9A95EAF70E94B12F802F0E946030D7
:104FD0001830F0F4D77081E001C0880FDA95EAF755
:104FE0000AC080E28C0F883098F4C77081E001C05D
:104FF000880FCA95EAF7DF91CF911F910F910C941A
:10500000A62F802FDF91CF911F910F910C946030CC
:10501000DF91CF911F910F9108958091E004882333
:10502000F9F00E94C426DC01CB01805A9541AF4FB4
:10503000BF4F8093DB049093DC04A093DD04B09316
:10504000DE048091DF0481110BC062E070E08DE02E
:105050009DE00E943719892B19F481E08093DF04C9
:105060008091DF040895CF93E82F20914A04309176
:105070004B042454324040914102642F70E0C90136
:105080000E948D31481B842FEE2351F066E00E9470
:105090008B34C82FC150A8F080E20E948418FACF48
:1050A000A901480F511D4115524018F080E020E041
:1050B00030E0280F311D2C5B3D4F30934B04209383
:1050C0004A04CF9108952091410236E0839FC001A8
:1050D0001124629F800D911D1124811522E09207F9
:1050E00014F080E090E08C5B9D4F90934B04809394
:1050F0004A040895E4E4F2E080E092E0DF019C01DC
:105100001D9221503040E1F7F0934B04E0934A04A4
:105110008FEF9FEF90934302809342020895CF93C5
:10512000DF93C7E1D1E060E0CE010E94BE3121965D
:10513000C11584E0D807B9F7DF91CF910895CF92D8
:10514000DF92EF92FF920F931F93CF93DF93C0E014
:10515000D0E08E01045C1F4F6E018AE0C80ED11CA6
:10516000FE01E35EF34FE590F4906F2DCE0187963C
:105170000E94BE316E2DCE0188960E94BE312296CD
:10518000CC15DD0569F70C171D0731F7E801003F65
:105190001105F9F6DF91CF911F910F91FF90EF90DC
:1051A000DF90CF9008950F931F93CF93DF93C42F79
:1051B000D0E0CC0FDD1F2AE0629FC00DD11D11246D
:1051C0003CE3839FC00DD11D1124CE0187960E9420
:1051D000AA31082F10E0102F0027CE0188960E94D8
:1051E000AA319801282BC901DF91CF911F910F910E
:1051F0000895462F843038F4763028F4653018F45A
:10520000672F0C94D32880E090E00895CF93C82FA7
:10521000811102C06FEF01C061E283E290E00E9461
:10522000BE31C11102C06FEF01C061E184E290E0C4
:105230000E94BE31C11102C06FEF01C065E085E27E
:1052400090E0CF910C94BE3180E00E94062960E08E
:1052500086E290E00E94BE310E949F280E948F2823
:1052600081E00C94062983E290E00E94AA31813209
:1052700081F484E290E00E94AA31813151F485E208
:1052800090E00E94AA3191E0853009F090E0892FEA
:1052900001C080E0817008959091D60490FF04C011
:1052A0009695981740F003C0811105C090E09617BD
:1052B00010F40C94D92B61E00C948E2B882311F000
:1052C000FA0101C0FB0109948091D60480FF0AC055
:1052D000869A81B38F7B91B390642FB7F894E4ECF6
:1052E000F4E00BC0E4ECF4E01182108212823396F9
:1052F00034E0E63DF307C1F7EBCF34E0E63DF307DA
:1053000089F0319148E091BB000000C037FF81BBBC
:10531000330F000000C000C000C081BB00C04A9530
:1053200091F7EBCF2FBF8FE594E00197F1F700C025
:10533000000008959091D60490FF0CC0E4ECF4E0D6
:10534000818360834283339694E0E63DF907C1F799
:105350000C94642908958091D604282F269530E076
:105360002115310519F48170826005C0253231059F
:1053700024F0817088648093D6040895CF92DF92E0
:10538000EF92FF926B017C010E94AB29B701A6014D
:1053900088E090E0FF90EF90DF90CF900C94D031B8
:1053A0008091DA04882319F081508093DA046091A7
:1053B000D6047091D7048091D8049091D9040C94AC
:1053C000BE298091DA04833018F48F5F8093DA0469
:1053D0006091D6047091D7048091D8049091D9043B
:1053E0000C94BE29E6EDF4E083E0808311828FEF18
:1053F00082838383148260817181828193810C9482
:10540000BE29AF92BF92CF92DF92EF92FF920F939D
:105410001F93CF93DF93E82EF62EE901E42FF0E0FF
:10542000611106C0E15FF24FE4914E2F2E2F71C043
:10543000062F10E0E15FF24F4491F42FC42ED12CDF
:1054400026E0829FC00111242FEF30E0B9010E94B5
:105450008D315BEA5603C001579F900D11248E0DCC
:10546000911D8E0D911D582F550F580FD901A01B5E
:10547000B10BAC9DC001AD9D900DBC9D900D112454
:10548000E92FF59ED0011124AB2FBB277901EA1A31
:10549000FB0AEC9CD001ED9CB00DFC9CB00D1124DE
:1054A0005901A51AB108A09E7001A19EF00CB09EF2
:1054B000F00C1124EF2CFF242E193F092C9D8001A4
:1054C0002D9D100D3C9D100D1124212F6230710572
:1054D00091F048F461157105E1F061307105B9F49E
:1054E000242F4B2F16C06430710569F040F06630F0
:1054F000710579F00CC0242F492FE12F0AC0492FE4
:10550000EF2F2B2F06C0292FE42F412F02C0292F68
:10551000EB2F49832883EA83DF91CF911F910F916D
:10552000FF90EF90DF90CF90BF90AF900895CF9312
:10553000DF9300D01F92CDB7DEB79091D60490FFD5
:105540000AC09E012F5F3F4F0E94012A4B81698153
:105550008A810E949A290F900F900F90DF91CF912E
:1055600008955F926F927F928F929F92AF92BF92B7
:10557000CF92DF92EF92FF920F931F93CF93DF931F
:1055800000D01F92CDB7DEB7182F762E042F622ED3
:105590009091D60490FF6DC0E92FE695AE2FB0E054
:1055A000A456BE4F8C918093FA049E7F923061F492
:1055B0009E012F5F3F4F812F0E94012A4B816981FD
:1055C0008A810E949A2943C0823019F40091D9043B
:1055D0003EC0863019F41091D70439C08930D9F310
:1055E0008931A9F5E9518E2F8170582EE695F0E0AA
:1055F000E15FF14FA590B49084ECC82E84E0D82EE2
:10560000E12CF12CBB2496E0892E912CAE9CC0019C
:10561000AF9C900DBE9C900D1124B4010E948D3161
:10562000812F511002C0860F01C0861B9601402FAA
:10563000672D0E94012A8FEFE81AF80A83E0C80E4E
:10564000D11C86E0E816F10409F70E946429109342
:10565000D7047092D8040093D904662051F0609169
:10566000D6047091D7048091D8049091D9040E94F7
:10567000BE290F900F900F90DF91CF911F910F9146
:10568000FF90EF90DF90CF90BF90AF909F908F9062
:105690007F906F905F900895E6EDF4E0438128E0FD
:1056A000421B08F440E021E0628181810C94B12A20
:1056B000E6EDF4E0438128E0420F08F44FEF21E0EB
:1056C000628181810C94B12AE6EDF4E0628128E0E8
:1056D000621B08F460E021E0438181810C94B12ACF
:1056E000E6EDF4E0628128E0620F08F46FEF21E05C
:1056F000438181810C94B12AE6EDF4E0818121E0BF
:105700004381628188500C94B12AE6EDF4E08181F6
:1057100021E043816281885F0C94B12A9091D60484
:1057200090FF3DC09170811102C0926006C0853229
:1057300010F0986402C0880F982B9093D6046623CB
:1057400051F06091D6047091D7048091D804909163
:10575000D9040E94BE296091D604669570E04BE0A2
:1057600050E086E191E00E943835892B19F01092C3
:10577000FB0409C081E08093FB040E94D026909333
:10578000F5048093F40481E08093F70420E04091D5
:10579000D9046091D8048091D7040C94B12A08955B
:1057A0008091D6048695815009F484E261E00C94DE
:1057B0008E2B8091D60486958F5F853208F081E02C
:1057C00061E00C948E2B1F93CF93DF93CDB7DEB7A0
:1057D00067970FB6F894DEBF0FBECDBF4B8B5C8BC7
:1057E0006D8B7E8B8F8B61111092BA0486E09E01C7
:1057F000235F3F4FD901E82F1D92EA95E9F795E025
:10580000FE017396D90101900D929A95E1F79C895A
:105810004E895F897B897D879E876F87598B488BEF
:10582000F901DE01179601900D928A95E1F7CE01FC
:1058300007960E949B2181113EC086E0FE013796AB
:10584000DE01119601900D928A95E1F7FF81E885BE
:105850006A857B856115710531F0EF3F31F481E098
:10586000FF3F19F403C081E001C080E080FD23C048
:105870002091860430E0C9010196877099274091F4
:10588000B70450E08417950779F1F983EA837D83A3
:105890006C8396E0929FD001939FB00D1124A9577D
:1058A000BB4FFE01319601900D929A95E1F78093DE
:1058B00086040E94182116E08091B7049091860416
:1058C0008917F9F0189FC001112489579B4F0E9436
:1058D0009B218823B1F08091B70490E001968770F6
:1058E00099278093B704E8CF0E94912F10928604E5
:1058F0001092B704E0E8F4E086E0DF011D928A959B
:10590000E9F767960FB6F894DEBF0FBECDBFDF9103
:10591000CF911F910895982F92959F7019F0892F1C
:1059200024E001C020E0982F9695969511F02E5F07
:10593000892F982F969509F02F5F822F0895CF9386
:10594000DF930E948E2781FBDD27D0F982FBCC27D5
:10595000C0F980FD03C085E59EE002C08AE59EE0B7
:105960000E941E19D11103C08BE49EE002C080E5A5
:105970009EE00E941E19C11103C081E49EE002C096
:1059800086E49EE0DF91CF910C941E19CF93C82F2F
:105990000E947A2863E080E00E946328C11113C04E
:1059A0008DE30E948418ECE4F4E001900020E9F714
:1059B0003197EC54F44063E085E18E1B0E9463282C
:1059C000CF910C9404198AE29EE0CF910C941E1999
:1059D0008F929F92AF92BF92CF92DF92EF92FF92FF
:1059E0008091D1018230E1F0B0F4813009F077C0CC
:1059F0002091C4013091C5014091C6015091C70169
:105A00006091C8017091C9018091CA019091CB0148
:105A10000E94F3315CC08330B1F0843039F15FC053
:105A20002091C4013091C5014091C6015091C70138
:105A30006091C8017091C9018091CA019091CB0118
:105A40000E94F23144C02091C4013091C5014091BF
:105A5000C6015091C7016091C8017091C901809140
:105A6000CA019091CB010E94C33331C0C090C801DC
:105A7000D090C901E090CA01F090CB0120E030E065
:105A8000A901C701B6010E945F32882389F0809086
:105A9000C4019090C501A090C601B090C70120E05C
:105AA00030E0A901C501B4010E945F32811109C033
:105AB0001092CC011092CD011092CE011092CF0124
:105AC0000EC0A5019401C701B6010E946432609323
:105AD000CC017093CD018093CE019093CF01FF90C4
