:100000000C94A8060C94EF060C94EF060C94EF06E3
:100010000C94EF060C94EF060C94EF060C94EF068C
:100020000C94EF060C94EF060C947C1C0C94B81BFB
:100030000C9478240C94EF060C94EF060C94EF06C5
:100040000C94EF060C94EF060C94EF060C94EF065C
:100050000C94EF060C942B240C94EF060C94EF06F2
:100060000C94EF060C94EF060C94EF060C94EF063C
:100070000C94EF060C94EF060C94EF060C94EF062C
:100080000C94EF060C94EF060C94EF060C94EF061C
:100090000C94EF060C94EF060C94EF060C94EF060C
:1000A0000C94EF060C94EF060C94EF06E30DE30DB1
:1000B0001D0E1D0E760E910F910F910F920E060FD1
:1000C000170F170F63146614891496149D14BD142A
:1000D000C01402152415CE15CE152F153115351562
:1000E0005D15821585158815AC15CC19F3199A1B69
:1000F000F3199A1B3F1A621A9A1B571B671BC628D3
:10010000C628D928D928CF28D928D928D928C62817
:10011000C628D428D928D928D428000000000000F7
:1001200000000000000000000000000000000000CF
:1001300000000000000000000000000000007E0F32
:1001400000D4FFFFFFC7000000780000000000009F
:1001500000002A2B28000000000000000000000022
:10016000000000000029000000002C1E3420212285
:1001700024342627252E362D3738271E1F202122EE
:10018000232425263333362E37381F040506070867
:10019000090A0B0C0D0E0F10111213141516171857
:1001A000191A1B1C1D2F3130232D35040506070895
:1001B000090A0B0C0D0E0F10111213141516171837
:1001C000191A1B1C1D2F3130354C3D2020202020BA
:1001D000496D6167696E61727920526F6F74210A8F
:1001E000002020202020202020202020202020202F
:1001F00020202020200A002F0A002A0A002D0A00B1
:100200002B0A0000DA0281FFD9F1DB20A4A62EAF71
:1002100000A0C000A1C800AED580A81FD300408DAB
:1002200014200064321400000000000000000000F0
:1002300000000000000000000000000000000000BE
:1002400000000000000000000000000000000000AE
:10025000003FBFDFE7E76737DBCB0B0B0BCBCFED07
:10026000F5F5F5F5F5F5F5F5F5F5FBFB8B0D05C5A4
:10027000454565BDC3FFFFFFFFFFFFFF0000000016
:10028000000000000000000000000000000000006E
:10029000000000000000000000000000000000005E
:1002A000000000000000000000000000000000004E
:1002B000000000000000000000000000000000003E
:1002C000000000000000000000000000000000002E
:1002D00000E3E6C7CFDFFEFEFDBA8AC200FFF3E30C
:1002E000FFFFFFFFFFFFFFFFFFFFF9F1FBF8040E29
:1002F000FEFE3187FFFFFFFFFFFFFFFF0000000052
:1003000000000000000000000000000000000000ED
:1003100000000000000000000000000000000000DD
:1003200000000000000000000000000000000000CD
:1003300000000000000000000000000000000000BD
:1003400000000000000000000000000000000000AD
:1003500000BFDFCFCFFFFDF8F1F3F3FFFFF0670F32
:100360003F7FFFFFAF6F4F0F0F4F6FBF1FC1CCFE1F
:100370003F1F9EE1FFFFFFFFFFFFFFFF00000000A8
:10038000000000000000000000000000000000006D
:10039000000000000000000000000000000000005D
:1003A000000000000000000000000000000000004D
:1003B000000000000000000000000000000000003D
:1003C000000000000000000000000000000000002D
:1003D00000FFFFFFEFCFCFDFDFDFD9F9F8F8ECEE5A
:1003E000DFDFFEFCDDD9D9D9D9D9C1EEFFFFFFCFC0
:1003F0000E06E1FFFFFFFFFFFFFFFFFF0000000011
:1004000000000000000000000000000000000000EC
:1004100000000000000000000000000000000000DC
:10042000000000000000556E646566696E6564003A
:100430004C617965723A200041444A0A004C617966
:1004400065723A2000202D2D2D2D2043616C63759F
:100450006C61746F72202D2D2D2D0A004D61637219
:100460006F0A004C617965723A20004E756D7061BB
:10047000640A004C617965723A200000AE050109FA
:1004800080A101850319012AB700150126B700953F
:100490000175108100C0050C0901A1018504190135
:1004A0002AA002150126A002950175108100C00541
:1004B000010906A1018505050719E029E7150025B1
:1004C000019508750181020507190029EF1500251E
:1004D0000195F07501810205081901290595057539
:1004E000019102950175039101C00660FF0961A1A8
:1004F000010962150026FF00952075088102096335
:10050000150026FF00952075089102C00501090617
:10051000A101050719E029E71500250195087501D6
:1005200081029501750881010507190029FF150051
:1005300026FF009506750881000508190129059513
:100540000575019102950175039101C009025B00D7
:10055000030100A0FA0904000001030101000921C0
:10056000110100012240000705810308000A090467
:1005700001000203000000092111010001222200F4
:100580000705820320000107050303200001090479
:1005900002000103000000092111010001226D0089
:1005A0000705840320000A1201000200000008ED84
:1005B000FE6969010001020001140353006800652F
:1005C00000650070007900500061006400000010B8
:1005D0000343006900700075006C006F0074000038
:1005E000000403090407087F0807003E5B4F5B3ED9
:1005F000003E6B4F6B3E001C3E7C3E1C00183C7E58
:100600003C18001C577D571C001C5E7F5E1C0000C0
:10061000183C180000FFE7C3E7FF0000182418008B
:1006200000FFE7DBE7FF0030483A060E0026297995
:10063000292600407F05050700407F05253F005A19
:100640003CE73C5A007F3E1C1C0800081C1C3E7FF7
:100650000014227F2214005F5F005F5F0006097FA5
:10066000017F00006689956A0060606060600094A8
:10067000A2FFA2940008047E04080010207E20102F
:100680000008082A1C0800081C2A0808001E101070
:100690001010000C1E0C1E0C0030383E38300006C6
:1006A0000E3E0E060000000000000000005F00008B
:1006B00000000700070000147F147F1400242A7F25
:1006C0002A120023130864620036495620500000A5
:1006D0000807030000001C224100000041221C000A
:1006E000002A1C7F1C2A0008083E080800008070B1
:1006F00030000008080808080000006060000020C2
:1007000010080402003E5149453E0000427F40006F
:10071000007249494946002141494D3300181412DD
:100720007F10002745454539003C4A494931004181
:100730002111090700364949493600464949291E11
:100740000000001400000000403400000000081405
:100750002241001414141414000041221408000251
:1007600001590906003E415D594E007C1211127C70
:10077000007F49494936003E41414122007F4141C5
:10078000413E007F49494941007F09090901003E76
:1007900041415173007F0808087F0000417F4100FC
:1007A000002040413F01007F08142241007F40406B
:1007B0004040007F021C027F007F0408107F003E43
:1007C0004141413E007F09090906003E4151215E39
:1007D000007F091929460026494949320003017F53
:1007E0000103003F4040403F001F2040201F003FCA
:1007F0004038403F00631408146300030478040386
:10080000006159494D4300007F4141410002040805
:10081000102000004141417F000402010204004019
:100820004040404000000307080000205454784036
:10083000007F284444380038444444280038444465
:10084000287F0038545454180000087E090200180C
:10085000A4A49C78007F080404780000447D400034
:10086000002040403D00007F102844000000417FF0
:100870004000007C04780478007C08040478003888
:100880004444443800FC182424180018242418FC7C
:10089000007C080404080048545454240004043F15
:1008A0004424003C4040207C001C2040201C003C94
:1008B0004030403C004428102844004C9090907CEC
:1008C000004464544C4400000836410000000077A6
:1008D0000000000041360800000201020402003C52
:1008E0002623263C00000000000000404040F0F8B5
:1008F000F8FF38FFF8F83FF8F8FF38FFF8F8F04055
:10090000404000000000000080C0C0C0800000C067
:10091000C08000000080C0C000C0C0000080C0C017
:100920000000000000C0C0C0C0C000C0C000000087
:1009300000000000000000000000000000000000B7
:1009400000000000000000000000000000000000A7
:100950000000000000000000000000000000000097
:1009600000000000C0F0F8FC3E1E06010000007F01
:100970004141417F007F4141417F000080C0E07ED6
:100980005B4F5BFEC00000C000DCD7DEDEDED7DCE4
:1009900000C0000000000000000000000000000097
:1009A0000000000000000000000000494949FFFF6E
:1009B000FFFFE0DFBFBF00BFBFDFE0FFFFFFFF497A
:1009C000494900000000001F3F6060E0BF1F007F3A
:1009D0007F071E381E077F7F007F7F0E1F3B7160E1
:1009E00000000000007F7F0C0C0C007E7E007F7EEC
:1009F0000303007F7E03037E7E03037F7E000F3EA2
:100A0000703C063C703E0F00327B49493F7E007FC0
:100A10007E0303001E3F69696F260000000000008E
:100A200000000000030F1F3F3C7870600000007F53
:100A30004141417F007F4141417F00307B7F7830E1
:100A4000202030787F3B0003000F7F0F0F0F7F0FB8
:100A50000003000000000000000000000000000093
:100A60000000000000000000000000010101070F6D
:100A70000F7F0F7F0F0F7E0F0F7F0F7F0F0F07016D
:100A80000101000000000000000000000101000062
:100A90000000000000000000000000000000000056
:100AA0000000000000000000000000000000000046
:100AB0000000000000000000000000000000000036
:100AC0000000000000000000000000000000000026
:100AD0000000000000000000000000000000000016
:100AE0000000000000000000000000000000000006
:100AF00000000000000000000000000000000000F6
:100B000000000000000000000000000000000000E5
:100B100000000000000000000000000000000000D5
:100B20000000000000FFAA7F5540AE00000000005A
:100B300000000000000000402F00300054000000C2
:100B4000580026022702550000005F006000610087
:100B5000560000005C005D005E0057000000590078
:100B60005A005B006200AE000000000000000000C0
:100B7000000001000100010001000000010001006F
:100B8000010001000000010001000100010000005F
:100B9000010001000100010000000100010001004E
:100BA0000100AE0000000000000000000000010095
:100BB000745D735D725D0000695D6A5D6B5D715DA2
:100BC0000000665D675D685D705D0000635D645D8B
:100BD000655D6F5D0000625D6D5D6C5D6E5DAE00BC
:100BE000000000000000000000000100C25CD45CB6
:100BF000D05C0000C55CC65CC75CC85C0000C95C1A
:100C0000CA5CCB5CCC5C000000000000000000006F
:100C10000000005C00000000DE5C00AF202020200F
:100C200020202020202020202020202020202020C4
:100C30000A002020202000534352200020202020A2
:100C400000434150200020202020004E554D200020
:100C5000000101010101010101010202020202027F
:100C60000202020303030303030303040404040452
:100C70000404050505050506060606060707070719
:100C80000708080808090909090A0A0A0B0B0B0CCE
:100C90000C0C0D0D0D0E0E0E0F0F0F10101111116B
:100CA00012121313141415151616171718181919EC
:100CB0001A1A1B1B1C1D1D1E1E1F20202122222351
:100CC0002424252626272829292A2B2C2D2D2E2F92
:100CD00030313232333435363738393A3B3C3D3EA9
:100CE0003F404142434445464748494A4C4D4E4F98
:100CF00050515354555658595A5B5D5E5F6162645A
:100D0000656668696B6C6D6F7072737577787A7BE6
:100D10007D7E8082838587888A8C8E8F919395963D
:100D2000989A9C9EA0A2A3A5A7A9ABADAFB1B3B55D
:100D3000B7BABCBEC0C2C4C6C9CBCDCFD1D4D6D839
:100D4000DBDDDFE2E4E7E9EBEEF0F3F5F8FAFDFFD7
:100D500011241FBECFEFDAE0DEBFCDBF04B603FE25
:100D600027C08091EF049091F004A091F104B0911C
:100D7000F2048730904BA740B04BD1F41092EF04AF
:100D80001092F0041092F1041092F20414BE84B791
:100D9000877F84BF0FB6F894A89580916000886122
:100DA00080936000109260000FBEE0E0F8E30995C8
:100DB00011E0A0E0B1E0EAEBF3E602C005900D928D
:100DC000AC3AB107D9F724E0ACEAB1E001C01D921A
:100DD000AF3EB207E1F70E94E60F0C94DB310C94B2
:100DE00000003F924F925F926F927F928F929F92FC
:100DF000AF92BF92CF92DF92EF92FF920F931F9329
:100E0000CF93DF93CDB7DEB729970FB6F894DEBF47
:100E10000FBECDBFFC018081918123813481232BC2
:100E200031F09F3F31F491E08F3F19F403C091E01E
:100E300001C090E090FF02C00C94CE0F7F0185E0CE
:100E4000DE01119601900D928A95E1F7F70122815A
:100E500089819A81222349F00E940A28182F682F3D
:100E600089819A810E94662803C00E943928182F20
:100E700069817A81812F0E9495268C01F7018281F8
:100E8000882309F4F2C0980122513F4520313105F1
:100E900008F019C18FEF93E00E94722E8111EFC00C
:100EA000025167E1862E99249394002379F08114EE
:100EB000F4E09F0609F4E3C0C4010E94722E811180
:100EC00001C001502FEF821A920AEFCF1E821F82BB
:100ED00018861986442443945AE0352E84010F5F06
:100EE0001F4FC4010E94722E8E831F82882309F433
:100EF000C6C09FEF980F933060F48F834E8232E02C
:100F0000830E911CC8010E94722E8887811102C035
:100F1000B6C048018E010A5F1F4FF80120812223CD
:100F2000E9F2213009F04CC08181813049F4680137
:100F3000F2E0CF0ED11CF80182810E94AC290AC0D8
:100F4000823051F46801F2E0CF0ED11CF8018281A9
:100F50000E943929860186C0833049F46801F2E095
:100F6000CF0ED11CF80182810E940729F3CF843073
:100F700019F00F5F1F4F76C0F80122810E5F1F4FDF
:100F800080E090E030E0205331092A30310568F4E8
:100F9000389EA001399E500D1124C901840F951F60
:100FA0000F5F1F4FF8012081EDCF009709F45AC061
:100FB000EFE9FFE03197F1F700C000000197F5CFAE
:100FC000E22FF0E0E65BFE4F5490822F86958695E7
:100FD000869590E0FC01E65CFE4F64902770712CD2
:100FE000022E02C0759467940A94E2F7F1E06F2232
:100FF0007724FC01E65DFE4FA490B12C022E02C0C6
:10100000B594A7940A94E2F731E0A322BB24FC0133
:10101000E65EFE4FC490D12C02C0D594C7942A95A9
:10102000E2F781E0C822DD246114710419F081EE39
:101030000E943929A114B10419F086EE0E943929C1
:10104000852D0E94AC29AB2819F086EE0E94072955
:10105000672819F081EE0E940729CD2819F08CE24B
:101060000E94AC290F5F1F4F58CF00313FE5130797
:1010700009F08BC781E00E9496280E94B2188091E7
:10108000A204877009F48AC7F7018281882309F4D2
:1010900085C782E029960FB6F894DEBF0FBECDBF9C
:1010A000DF91CF911F910F91FF90EF90DF90CF9044
:1010B000BF90AF909F908F907F906F905F904F9078
:1010C0003F900C9481200031FFE51F0711F481E06F
:1010D00005C001312FE5120721F482E00E94A22809
:1010E000CCCF0A36FDE51F0739F4882341F288E0AA
:1010F00090E00E94AD2AC3CF0B362DE5120708F011
:1011000016C205363DE5130731F4882309F4B7CF3D
:1011100083E090E0EECF06369DE5190708F0DEC1CA
:101120000236EDE51E0731F4882309F4A8CF80E0EC
:1011300090E0DFCF0336FDE51F0708F040C0011542
:1011400020E4120709F045C0F7019581907F59F11D
:10115000882389F180912A02882311F080FF05C03D
:1011600080E00E94962881E00EC090E09C013595B9
:10117000279520FF0BC081E00E9496280E94C62B75
:101180000E94162682E00E94A22879CF9595879525
:101190009595879580FF73CF0E94162682E00E9466
:1011A000962880E0F0CF882331F00E94C62B0E9461
:1011B000162683E0E8CF83E00E94962860CF0336AE
:1011C0003DE5130709F47EC104369DE5190709F4CE
:1011D0007FC1033FFCE51F0741F190F4083D3CE56A
:1011E0001307E9F0093D9CE5190789F1073DECE596
:1011F0001E07B1F506E221EE41EE67ED7CE52CC05D
:10120000053FFCE51F07E9F0B0F0063F3CE513079A
:1012100039F507E225EE46EE66EF7CE51DC007E2F4
:1012200025EE45EE68ED7CE517C006E221EE40EEC6
:1012300063EF7CE511C007E225EE44EE64EF7CE548
:101240000BC006E221EE42EE65EF7CE505C008E248
:1012500021E045EE69ED7CE5C7010E9436250FCF00
:10126000882309F46DC31092CC0403308DE5180770
:1012700058F40A3F9CE5190760F4C80182509C4568
:10128000449708F047C305C00136EDE51E0709F095
:1012900041C30E94951F9093D9048093D8040031D4
:1012A000FCE51F0709F4CAC008F041C008303CE55E
:1012B000130709F4A4C0F0F404309CE5190709F4FD
:1012C0008CC068F40230FCE51F0709F482C00330CB
:1012D0001C4509F0E7C08091D8048260E1C0063067
:1012E0003CE5130709F483C008F085C08091D80459
:1012F0008860D6C00C309CE5190709F490C068F4EA
:101300000A30FCE51F0709F47EC008F084C00E9483
:10131000DD288091D8048068C3C00E303CE51307F7
:1013200009F481C008F086C08091D80494C00C3FB5
:101330009CE5190709F47BC038F50431FCE51F076B
:1013400009F49AC058F402313CE5130709F47AC055
:1013500008F07EC08091D8048F7BA2C00A3F9CE534
:101360001907F1F108F03FC005311C4509F09AC09A
:101370008091D80482FB222720F991E0922790FBEC
:1013800082F990FB83F98CC001152DE5120709F451
:1013900067C050F48091D9040E3F9CE51907C1F154
:1013A00008F05BC08D7F65C00230FDE51F0709F4C2
:1013B00071C008F46DC001361D4509F073C08091FD
:1013C000D80484FB222720F991E0922790FB84F92E
:1013D00067C08091D804816063C08091D80416C032
:1013E0008091D90416C08091D904826042C0809156
:1013F000D804806155C08091D804806251C080912A
:10140000D80480644DC08091D8048860846048C04E
:10141000826081602EC08091D8048E7F41C080910F
:10142000D8048D7F3DC08091D804877F39C08091DA
:10143000D90414C08091D8048F7E32C08091D80422
:101440008F7D2EC00E94DD288091D8048F7728C020
:101450008091D804877F8B7F23C08D7F8E7F09C0CA
:101460008091D904982F909591708E7F892B90FB55
:1014700081F98093D90416C00E94DD288091D80498
:1014800087FB222720F991E0922790FB87F908C07B
:1014900061E001C060E08EE090E00E94862E02C014
:1014A0008093D8046091D8041091D90484E090E02E
:1014B0000E94862E612F82E290E00E94862E0E947A
:1014C000DD28DDCD882309F4DACD81E090E011CE6E
:1014D000882309F4D4CD82E090E00BCE0736EDE509
:1014E0001E0731F4882309F4CACD85E090E001CECF
:1014F0000736FDE51F0730F4882309F4C0CD84E0EA
:1015000090E0F7CD08362DE5120731F4882309F471
:10151000B6CD86E090E0EDCD09363DE5130709F044
:1015200058CE882309F4ABCD87E090E0E2CD0037B8
:101530009DE51907A1F4882309F4A1CD8091BC0190
:1015400081119DCD83E08093BB0181E08093BA013E
:1015500063E080E00E94FF258AEF91E022C001371E
:10156000EDE51E0708F003C10C36FDE51F07E1F0AD
:1015700008F4DEC00E363DE5130709F0DFC088230E
:1015800009F47DCD8091BC01811179CD81E08093FA
:10159000BB018093BA0163E080E00E94FF2580E0F8
:1015A00092E00E94A4186BCD882309F468CD909135
:1015B000BA018091BC01992309F490C081118EC0B9
:1015C0008091BB01882309F48BC08230E1F0B0F434
:1015D000813009F077C02091B2013091B301409180
:1015E000B4015091B5016091B6017091B70180913D
:1015F000B8019091B9010E94BB2E5CC08330B1F05C
:10160000843039F15FC02091B2013091B301409133
:10161000B4015091B5016091B6017091B70180910C
:10162000B8019091B9010E94BA2E44C02091B20134
:101630003091B3014091B4015091B5016091B60170
:101640007091B7018091B8019091B9010E948B30DF
:1016500031C08090B6019090B701A090B801B090D1
:10166000B90120E030E0A901C501B4010E94272F93
:10167000882389F04090B2015090B3016090B4018A
:101680007090B50120E030E0A901C301B2010E94D1
:10169000272F811109C01092AE011092AF01109254
:1016A000B0011092B1010EC0A3019201C501B401B5
:1016B0000E942C2F6093AE017093AF018093B00114
:1016C0009093B10181E08093BC016091AE01709173
:1016D000AF018091B0019091B1010DC08111CFCCCB
:1016E00081E08093BC016091B6017091B701809157
:1016F000B8019091B9014FEF5FEF0E94D0160E94A0
:10170000162663E080E00E94FF258DE30E940A1800
:10171000E6E3F4E001900020E9F73197E653F44066
:1017200063E085E18E1B0E94FF250E948A18A7CCEA
:10173000882309F4A4CC89E090E0DBCC0F369DE54A
:10174000190709F046CD882309F499CC8091BC0192
:10175000811195CC82E08093BB0181E08093BA0136
:1017600063E080E00E94FF258DEF91E01ACF023701
:10177000EDE51E0741F4882309F481CC0E94C62BB5
:101780000E9416267CCC0237FDE51F07A0F48823B3
:1017900009F475CC8091BC01811171CC84E08093F7
:1017A000BB0181E08093BA0163E080E00E94FF25E5
:1017B00087EF91E0F6CE03372DE5120709F04EC012
:1017C000882309F45CCC8091BC01811158CC8091B4
:1017D000BA01811123C08091B6019091B701A09107
:1017E000B801B091B901BC01CD0190586093B60128
:1017F0007093B7018093B8019093B90140E050E035
:101800000E94D0160E941626E6E3F4E00190002024
:10181000E9F73197E653F44062E083CF8091B2015B
:101820009091B301A091B401B091B501BC01CD017B
:1018300090586093B2017093B3018093B401909378
:10184000B50140E050E00E94D01663E081E00E94C4
:10185000FF2581EE91E00E94A4185ACF04373DE5A0
:10186000130709F0B6CC882309F409CC8091BA019A
:10187000811105CC8091BC01811101CC8091BB010B
:101880008111FDCB8090B6019090B701A090B80176
:10189000B090B90120E030E0A901C501B4010E9477
:1018A000863087FD29C0C501B4010E94FE306093D7
:1018B000AE017093AF018093B0019093B1014FEFEF
:1018C0005FEF0E94D0160E94162663E080E00E941F
:1018D000FF258DE30E940A18E6E3F4E00190002062
:1018E000E9F73197E653F44063E085E18E1B0E94EF
:1018F000FF250E948A180AC00E94162663E080E035
:101900000E94FF258AEC91E00E94A41881E0809358
:10191000BC01B5CB8091A50406319CE5190709F5FA
:101920008A7A91E009F490E09093BD01882311F048
:1019300065E301C069E28AE494E00E94C9240EC014
:1019400006311C4509F0F7C08091BD01882309F4D8
:1019500023C365E38AE494E00E94A1240E9421202D
:101960008ECB82720B3C9CE5190709F49FC0B8F539
:10197000063CFCE51F0709F485C0D8F4033C3CE5B0
:10198000130709F475C030F4023CECE51E0709F4B6
:101990004AC0A0C0043CFCE51F0709F46EC0053C2A
:1019A0002CE5120709F096C045E15CE26EE17CE2AD
:1019B00081C0083C3CE5130709F46EC008F467C019
:1019C000093CECE51E0709F46CC00A3CFCE51F0766
:1019D00009F080C041EF5BE265EE7BE26BC0003D49
:1019E0002CE5120709F46EC060F40D3C9CE5190764
:1019F00009F463C008F043CB4FED53E26EEC73E2A1
:101A000059C0043DFCE51F0709F45FC008F437CB5B
:101A1000053D3CE5130709F432CB0D358DE518077C
:101A200009F42DCB57C08091BF0480FF1BC08E7F6F
:101A30008093BF046091BF047091C0048091C10481
:101A40009091C2040E943A2C1092AC049FEFE0E700
:101A5000F2E09150E040F040E1F700C000000E9449
:101A600000270DCB81608093BF0461E0869527C07D
:101A700043E35DE26CE37DE21DC04CE35DE263E3C2
:101A80007DE218C04EE15CE265E17CE213C04DEFFF
:101A90005BE269E07CE20EC049E05CE26DEF7BE274
:101AA00009C045EE5BE261EF7BE204C04EEC53E21D
:101AB0006FED73E20E94FA26E2CA61E081E00E94C3
:101AC000F12CDDCA67E082E002C061E188E00E949B
:101AD000E826D5CA0A352DE5120741F150F4011563
:101AE0008CE51807A9F00E3D1C4529F50E94B11F91
:101AF000C6CA0B35EDE51E07D9F00C351D45D9F4E6
:101B00008091D90482FB882780F991E0892711C050
:101B10000E94DD282FEF34E38CE0215030408040DC
:101B2000E1F700C000000E941A24A9CA81E001C0A8
:101B300080E00E946720F701828100811181882363
:101B400049F0C8010E940A28D82E682FC8010E94B7
:101B5000662804C0C8010E943928D82EB8018D2DEE
:101B60000E9495260E940C1E8C01982EF701B280CF
:101B7000A580A2949FE0A9228091A204877099F089
:101B8000BB2089F0812F807F803421F080E2800F9C
:101B9000883048F082E00E9481208091A204877002
:101BA000DD24D3948111D12CC12EC2948FE0C822A0
:101BB0008C2D90E08C30910508F0B3C1FC01EA5AFD
:101BC000FF4F0C949231812F807F1F70882311F07A
:101BD0001295107FBB20B9F0112309F48EC180E269
:101BE000800F883010F0911006C08091A504182B4A
:101BF0001093A50405C08091A404182B1093A4048D
:101C00000E9421207AC1802F0E940729112309F404
:101C100088C1005E1095083010F0911006C08091C8
:101C2000A50418231093A50405C08091A4041823CB
:101C30001093A4040E94212074C1812F807F1F7003
:101C4000803211F01295107F992021F0F1E09F165B
:101C500011F130C0BB20B1F0AA2081F021E0A21226
:101C60000DC08091D90482FD5CC18091A604182B1F
:101C7000181709F456C11093A60453C18091A60405
:101C8000812B10C0AA2021F031E0A31609F449C12C
:101C90000E941B2027C0BB2041F085E08A1508F474
:101CA00040C1812F0E94FD283CC194E09A1508F4A0
:101CB00038C118C0BB2049F0AA2099F3F7018581EB
:101CC00080FF1BC18F708583ECCFAA2059F00933A8
:101CD00009F024C1FFEF27EE33E0F15020403040FF
:101CE000E1F71AC1812F0E94F2281BC1812F86952E
:101CF0008695837019F0813059F013C1BB2019F01B
:101D0000C801937002C080E090E00E9414250FC1CA
:101D1000BB2019F0C801937002C080E090E00E94DF
:101D2000FE2405C1812F8370A9F5B110FEC0402F9C
:101D3000429546954770440F440F802F8F7090E076
:101D40009C01042E01C0220F0A94EAF704FF08C088
:101D50008FE090E001C0880F4A95EAF7809501C0B6
:101D600080E0169516951370123069F088F4909102
:101D7000A704113019F0822B892302C0922B892BE2
:101D80000E94AD28D2C0822B9091A7048927F8CF5A
:101D9000822BF6CFBB2019F0812F817001C0869570
:101DA000882309F4C2C0402F429546954770440FDE
:101DB000440F802F8F7090E09C01042E01C0220FF1
:101DC0000A94EAF704FF08C08FE090E001C0880F92
:101DD0004A95EAF7809501C080E016951695137034
:101DE000123059F078F490912A02113019F0822BB8
:101DF000892309C0922B892B06C0822B90912A023D
:101E0000892701C0822B0E9492288FC01F70BB209F
:101E100039F0812F0E94A228802F0E94FD2885C0C2
:101E2000802F0E94F228812F0E9496287EC0802F4A
:101E300092EF991659F1991538F0E0EF9E1659F086
:101E4000F1EF9F16F1F055C023EF921631F134EF08
:101E5000931681F14EC0BB2079F084E08A1508F416
:101E600060C01F7181E090E001C0880F1A95EAF709
:101E700090912A0289271BC095E09A1508F451C059
:101E8000F0CFBB2029F0812F8F7126C0BB20D9F362
:101E9000812F8F710E94962844C0BB2039F01F719A
:101EA00081E001C0880F1A95EAF701C080E00E9426
:101EB000922837C0BB2099F01F71812F0E94A22861
:101EC0008091D90482FD07C0E8E01E9FC001112463
:101ED00083608093A204812F0E94A22822C081E007
:101EE0000E948120F1E0FA15E0F482E00E94812056
:101EF00018C0BB2031F0AA2031F2802F0E9439296E
:101F000010C0AA2029F2893349F42FEF37EE83E07D
:101F1000215030408040E1F700C00000802F0E9437
:101F2000072988EF8C0D843010F40E942A25DD20CB
:101F3000A9F18091A20480FD31C0F701128285953C
:101F4000859585950E94A228C7010E94F10680917F
:101F5000A20485958595859529960FB6F894DEBFE0
:101F60000FBECDBFDF91CF911F910F91FF90EF90EA
:101F7000DF90CF90BF90AF909F908F907F906F90A9
:101F80005F904F903F900C94962801319FE5190780
:101F900009F0A7C882E06FC869E2DCCC29960FB6C9
:101FA000F894DEBF0FBECDBFDF91CF911F910F918F
:101FB000FF90EF90DF90CF90BF90AF909F908F9069
:101FC0007F906F905F904F903F900895CF93DF93F5
:101FD000CDB7DEB7AE970FB6F894DEBF0FBECDBF5C
:101FE00084B7877F84BF0FB6F894A895809160006E
:101FF000886180936000109260000FBE90E080E8DE
:102000000FB6F89480936100909361000FBE85B77E
:10201000806885BF85B7806885BF80EB9DE1909320
:10202000AD018093AC010E94FC1B0E941B1C80919F
:10203000E20084608093E2007894809120028823FB
:10204000A1F01091E9001F709091EC00892F817030
:1020500090FD80E8182B1092E9008091E80083FD44
:102060000E94E6181F701093E90082E084BD93E09F
:1020700095BD9AEF97BD80936E000E94CF26811187
:1020800002C00E94C0260EE111E054E2E52E51E0AC
:10209000F52ED8018D918D018F3F11F00E94F51D15
:1020A000E016F106B1F704E211E049E2E42E41E066
:1020B000F42EF80181918F018F3F11F00E94F51DE0
:1020C000E016F106B1F7EEEBF1E084EC91E0A5EF5C
:1020D000B1E011921D928E179F07D9F70E94A61F9B
:1020E000811102C00E94B11F82E090E00E94722E16
:1020F0008093EE010E94951F9093D9048093D80499
:102100000E94C222FFEF06E711E0F15000401040AC
:10211000E1F700C000000E94C2228091F50180FF1B
:1021200008C06FEF7FEF80E090E00E94A42E0E9435
:102130001A2483E090E00E94722E0E94AD280E9433
:102140006C249093CA018093C9011092EB0180E83E
:1021500080932B020E94462D6DE070E086E192E0B4
:102160000E94BD18892B89F58091EB0163E070E036
:1021700081FD28C083E192E00E94BD18892B29F5DA
:102180006DE070E083E092E00E94BD18892BE9F4D5
:102190000E946024DC01CB01805A9541AF4FBF4FB4
:1021A0008093C4049093C504A093C604B093C7045D
:1021B0000E94162681E08093C9048093C80410927F
:1021C000EC0103C080E192E0D7CF8091C40181117E
:1021D00033C00E94A61F811104C00E94B11F0E943B
:1021E0004C2C88E090E00E947A2E6093BF0470939C
:1021F000C0048093C1049093C2046E7F71F40E9466
:102200004C2C88E090E00E947A2E6093BF0470937B
:10221000C0048093C1049093C2040E94272C1092A2
:10222000AC048091BF0480FF04C060E086950E94EA
:10223000F12C81E08093C40153985B9A52985A9A8A
:1022400089B183FB882780F94A9B02C092E001C0D4
:1022500090E0892B8093C7010E9416260E94C62B0E
:1022600080E091E09093D0048093CF0420E4622E2C
:10227000CC24C394D12C80912002853009F046C033
:1022800000E112E180912002853009F03BC080918D
:102290002002843029F10E9416261092D30468E1AE
:1022A00070E00FB6F894A895609360000FBE60923E
:1022B000600083B7817F846083BF83B7816083BF01
:1022C0007894889583B78E7F83BF0FB6F894A895CE
:1022D00080916000886180936000109260000FBE62
:1022E00080911F02882309F4CDCF0E94C222E5EF1E
:1022F000F1E0819181117BC48BEF91E08E179F07F4
:10230000C1F7C0CF0E94DD280E942A250E94C22268
:10231000A82E81110E946024AFEEB1E0E5EFF1E05C
:1023200000E010E0302F21919D91922721F180E073
:10233000FF24F3944F2D4923D1F089A33AA32F21F1
:1023400081E009F480E08BA30E946C248160782FE7
:102350009DA38CA349A15AA16BA18DA10E94CA295A
:10236000F801E151FE4F8081F826F08219C08F5F9D
:10237000FF0C8530F9F60F5F1F4F0630110591F6FF
:102380008FEF8EA38FA318A60E946C248160782FF4
:102390009AA789A74EA15FA168A58AA50E94CA290C
:1023A0008091AC04882309F441C08091AB04E09192
:1023B000BF04E695E81BE093EB04823061F4E695F8
:1023C000F0E0ED5DFD4FE4910E2F10E096E3E92E75
:1023D00097E2F92E06C000ED17E088E8E82E83E2C8
:1023E000F82E8091EC04882361F01092EC040E9496
:1023F0006C249093EA048093E9041092EE04109206
:10240000ED040E946C24E091E904F091EA048E1B33
:102410009F0B8F3F9F4750F40E0F1F1F1093EA042E
:102420000093E90489EE94E0F70109958091C701D2
:10243000E82FEE0FEE0FE093C70189B183FB442430
:1024400040F8512C4A9B03C082E090E002C080E03B
:1024500090E0842995298E2B8093C7018F70E82FF7
:10246000F0E0E75DFE4F90818091C601890F809377
:10247000C60184305CF08091C5018F5F8093C501F7
:102480008AEA0E94AC29BB24B39401C0B12C80918C
:10249000C6018D3F54F48091C50181508093C501E0
:1024A00089EA0E94AC29BB24B3948091C601082E0E
:1024B000000C990B64E070E00E945F318093C601CC
:1024C000B1100E9460248091C904882309F4A3C13B
:1024D00060E080E00E94FF258091C9019091CA01CF
:1024E0000E945124883B9B4008F044C08091C80161
:1024F000811140C080913404909135048E529240F5
:102500009C013E5F2130324028F020E032E0281B61
:10251000390B02C020E032E060912C0270912D0254
:10252000DC01A25DBD4FAC01280F391F42175307D4
:10253000E0F4FA01E81BF90BEA5DFD4FE491FC9130
:10254000EF1779F0EC93FA0115E0F695E7951A95F7
:10255000E1F7860102C0000F111FEA95E2F7602B38
:10256000712B4F5F5F4F1196E1CF70932D026093F7
:102570002C023FC081E08093C80180910A0188232A
:1025800021F00E94162610920A0180912A020E94D0
:10259000722A813099F058F08230D9F08330F1F40A
:1025A0008DE394E00E94A41888E394E00DC083E7D3
:1025B00094E00E94A4188BE694E006C083E694E0C1
:1025C0000E94A4188CE594E00E94A4180E94862A18
:1025D00010C085E494E00E94A4180BC080E394E04E
:1025E0000E94A41886E294E00E94A41881E00E9450
:1025F000CF258091C904882309F4E2C020912C02E0
:1026000030912D022115310509F4DAC08091EC01D9
:102610008111D6C0282E312C7601082E02C0EE0C76
:10262000FF1C0A94E2F7A9014E215F21452B11F40A
:102630008F5FF0CF9091EB01910165E0220F331F86
:102640006A95E1F790FD12C08295880F807680939D
:102650000D01220F232F221F330B319520931001E0
:10266000815E80930E011092110112C045E03695F3
:1026700027954A95E1F7220F220F220F20930D0193
:1026800010921001295F20930E0183E080931101C5
:1026900024E630E047E050E06BE071E088E70E941C
:1026A000FD2D892B09F08CC08091EB0180FD23C0AA
:1026B000C10125E0880F991F2A95E1F7AC01425D21
:1026C0005D4F04E610E020E230E060E488E70E941D
:1026D000242E892B09F074C00E94A925E094F0945F
:1026E00080912C0290912D02E822F922F0922D0285
:1026F000E0922C0265C080E2EBECF1E0DF011D927C
:102700008A95E9F795E0220C331C9A95E1F7EDE301
:10271000F1E0FEA7EDA749E351E0ADA5BEA58D917F
:10272000BEA7ADA7FA019191AF019101290F311D0B
:102730008901025D1D4F1CA70BA790E085539E4F9A
:10274000FC0107E09F01281B390B8C2C01C0880C71
:102750002A95EAF76BA57CA5912CDB011D91BD01A3
:102760001821202F29192770722E022E000C330BEE
:10277000B12F01C0BB0F7A94EAF77B2E31952195DA
:1027800031092770332701C016952A95EAF7712A77
:102790001081712A7082939418E09112DECF01505B
:1027A00031960F3F79F66DA57EA56154714009F011
:1027B000B4CF04E610E020E230E04BEC51E085CFEE
:1027C0008091C804882339F10E9460240091C404D8
:1027D0001091C5042091C6043091C704DC01CB01DF
:1027E000801B910BA20BB30B8F3F9F4FAF4FBF4787
:1027F00090F48091C904882371F08091C8048823E3
:1028000051F062E070E08BE794E00E94BD18892BE4
:1028100011F41092C804A11001C0B1100E94A925A2
:102820000E942A259091ED01891721F00E942A2506
:102830008093ED0180912002843009F01CCD83E06B
:102840008093E9008091E80082FF15CD8091E80037
:1028500085FF23C00E94511D81111DC080E2E82E1A
:10286000F12C8E010F5F1F4F09C08091F100D8013C
:102870008D938D01B1E0EB1AF10869F08091E800C9
:1028800085FDF3CF8091E8008B778093E8000E946C
:10289000511D882399F391E001C090E08091E800F8
:1028A0008B778093E800992309F4E5CCE9818E2F9A
:1028B00090E0FC013197E331F10508F06FC1EE596A
:1028C000FF4F0C9492311A8289E0BCC08A81823019
:1028D00009F4A3C1833051F0813009F05FC10E9437
:1028E00060249B838C837D836E835AC18091F50124
:1028F0008B838091F6018C838091F7018D83809189
:10290000F8018E838091F9018F838091FA01888785
:1029100047C18A81823009F041C16B817C818D8100
:102920009E810E94983186E290E024C04C816B81A8
:102930008A810E946F269D8377C10D811E81102799
:10294000012710278C81EB809A81EAE0EE9E7001CE
:102950001124FCE39F9FE00CF11C1124E80EF11CF4
:10296000E80EF11C612FC70187960E94862E602F0A
:10297000C70188960E94862E13C10E943B2610C173
:102980008A818138B1F050F4803809F009C120E023
:102990004B816091C1048091C00431C0823859F1EB
:1029A000833809F0FDC020E04091C2046C818B8126
:1029B00026C060E08B810E94F12C9B818091BF0436
:1029C000911111C08E7F8093BF041092AC040FEF61
:1029D00010E722E0015010402040E1F700C0000065
:1029E0000E940027DDC081608093BF0460E086956F
:1029F0000E94F12CD5C08B818093C304D1C00E946A
:102A00006027CEC08A81813899F030F4803809F08F
:102A1000C7C08091C20416C0823891F0833809F093
:102A2000BFC08091C0048B838091C1048C83B8C0E7
:102A30008091BF0480FF02C0869504C080E002C080
:102A40008091C3048B83ACC06091BF047091C004BB
:102A50008091C1049091C2040E943A2CA1C080E1EF
:102A600055C082E08A8389EEEDCF0A811B81102751
:102A700001271027AC80B12CBE016F5F7F4F4B0147
:102A80007B01C801895E9E4F9701281939092A15D3
:102A90003B0508F085C0093E72E0170730F40E943C
:102AA000722ED70114968C9302C0F70114820F5F27
:102AB0001F4FFFEFEF1AFF0AE4CF0A811B81102797
:102AC00001271027AC80B12CBE016F5F7F4F4B01F7
:102AD0007B01C801895E9E4F9701281939092A1583
:102AE0003B0508F05DC0093E72E0170728F4D701E6
:102AF00014966C910E94862E0F5F1F4FBFEFEB1A4A
:102B0000FB0AE7CF0E942B264BC084E08A8348C093
:102B10000A811B81102701271027AC80B12CFE01F0
:102B200031964F017F01C80187969701281939090D
:102B30002A153B05A8F5003F110530F40E94722EBE
:102B4000D70114968C9302C0F70114820F5F1F4FB8
:102B5000FFEFEF1AFF0AE7CF0A811B811027012739
:102B60001027AC80B12CBE016F5F7F4F4B017B0102
:102B7000C80187969701281939092A153B0580F461
:102B8000003F110528F4D70114966C910E94862EFF
:102B90000F5F1F4FBFEFEB1AFB0AEACF8FEF89835E
:102BA00080912002843009F066CB1091E9001F70FB
:102BB0009091EC00892F817090FD80E8182B82E0C5
:102BC0008093E9008091E80080FF0DC040E050E074
:102BD00060E270E0CE0101960E94841D8091E800C1
:102BE0008E778093E8001F701093E90044CB09BDF5
:102BF00019BD09B400FEFDCF8091D8008F7D809370
:102C0000D8008091E00082608093E0008091E00035
:102C100081FDFCCF0E94DD2835CB86E290E00E944A
:102C2000722E1B821C821D828E83BACF809122025B
:102C300087FF11C08091E80082FD05C080912002CD
:102C40008111F8CF11C08091E8008B770BC0809183
:102C50002002882349F08091E80080FFF8CF80911E
:102C6000E8008E778093E8000895982F973068F5F4
:102C70009093E900981739F07091EC002091ED00E5
:102C80005091F00003C0242F762F50E021FD02C0A8
:102C90009F5FECCF3091EB003E7F3093EB003091A3
:102CA000ED003D7F3093ED003091EB0031603093CB
:102CB000EB007093EC002093ED005093F000209116
:102CC000EE0027FDE5CF80E008958F708093E90046
:102CD00081E00895209128023091290226173707B4
:102CE00048F06115710539F42091E8002E772093A2
:102CF000E80001C0B901FC0120E06115710579F11E
:102D0000809120028823F1F18530F1F18091E80073
:102D100083FD3CC08091E80082FD2EC08091E800D8
:102D200080FFEBCF2091F3008091F20090E0922B96
:102D30006115710551F08830910538F42191209387
:102D4000F100615071090196F3CF21E0089709F075
:102D500020E08091E8008E778093E800CECF2111AB
:102D6000CFCF0AC080912002882361F0853061F0C6
:102D70008091E80083FD0AC08091E80082FFF2CFD5
:102D800080E0089582E0089583E0089581E0089549
:102D9000BC0184E00C94F023BC0183E00C94F0238C
:102DA0002F923F924F925F926F927F928F929F925B
:102DB000AF92BF92CF92DF92EF92FF920F931F9349
:102DC000CF93DF9300D000D0CDB7DEB76B017C018D
:102DD0005C834B834630510524F025E030E03C8392
:102DE0002B8320E030E0A901C701B6010E94272F04
:102DF00087FF0CC0F7FAF094F7F8F0948DE2809317
:102E0000360457E3252E54E0352E04C046E3242E25
:102E100044E0342E8B819C8197FF3FC020E030E05E
:102E200040E85FE3C701B6010E94272F87FDBFC0BE
:102E300020E030E040E251E4C701B6010E94272FB4
:102E400087FDB8C020E030E048EC52E4C701B6018D
:102E50000E94272F87FDB1C020E030E04AE754E40C
:102E6000C701B6010E94272F87FDAAC020E030E4E9
:102E70004CE156E4C701B6010E94272F87FDA5C08B
:102E800020E030E543EC57E4C701B6010E94272F4C
:102E900087FDA0C01C821B8216C0EB81FC81EF2B3A
:102EA00091F0EB81FC81EE0FFF1FEE0FFF1FE05B47
:102EB000FE4F2081318142815381C701B6010E94BA
:102EC000BB2E6B017C01C701B6010E949E2F4B01F6
:102ED0005C01611571058105910539F481010F5F70
:102EE0001F4F80E3F101808326C081012AE0422E3A
:102EF000512C612C712C0F5F1F4F9801215031090B
:102F00003A832983A30192010E947331605DE981B4
:102F1000FA816083B901CA016115710581059105C6
:102F200051F7F101D801EA17FB0728F48E9190813F
:102F30009C938193F8CF2B813C81232B09F44FC0C4
:102F4000C501B4010E94D62F9B01AC01C701B60197
:102F50000E94BA2E78013FEFE31AF30A2EE2F8013D
:102F6000208367010B811C8101501109D8F020E0FA
:102F700030E040E251E40E948B304B015C010E9442
:102F8000A52F80E3860FF60181936F0170E080E04A
:102F900090E00E94D62F9B01AC01C501B4010E94B4
:102FA000BA2EE2CF0B811C810E0D1F1D18C026E02A
:102FB00030E008C085E090E00AC0E4E0F0E00CC03A
:102FC00023E030E03C832B836CCF82E090E09C8355
:102FD0008B8367CFE1E0F0E0FC83EB8362CFF80105
:102FE000108286E394E00F900F900F900F90DF9186
:102FF000CF911F910F91FF90EF90DF90CF90BF90F6
:10300000AF909F908F907F906F905F904F903F9088
:103010002F900895CF93DF938A3011F481E003C09D
:103020008D3029F480E0DF91CF910C94CF25682F6B
:10303000809134049091350426E0FC01AEE2B4E0C6
:1030400001900D922A95E1F7603E30F026E0FC01F8
:1030500011922A95E9F70AC0F6E06F9FB00111249A
:103060006B517A4F46E050E00E94692EC0913404C3
:10307000D091350446E050E0BE018EE294E00E941B
:10308000CE31892B49F19E012E523240A90185E0B3
:10309000569547958A95E1F781E090E0BC0102C022
:1030A000660F771F4A95E2F740912C0250912D024E
:1030B000462B572B2B5F3F4F65E0369527956A953A
:1030C000E1F702C0880F991F2A95E2F7842B952B10
:1030D00090932D0280932C029E0128523240409101
:1030E0002B02642F70E0C9010E94552E481B463008
:1030F00010F4240F311D211582E0380710F020E074
:1031000030E0225D3D4F3093350420933404DF914D
:10311000CF9108950F931F93CF93DF93C6E3D4E02D
:1031200009900020E9F7219706E314E00C171D072A
:1031300030F4F80181918F010E940A18F7CFDF91D6
:10314000CF911F910F910895CF93DF93EC01FE0172
:103150008491882321F00E940A182196F8CFDF91EC
:10316000CF91089580912A02982F9670963011F48D
:10317000886001C0877F0C949228EF92FF920F9392
:103180001F93CF93DF93EC017B0164E670E088E747
:103190000E944C2D8C01EC0EFD1ECE15DF0561F05A
:1031A00017FD0AC0FE01849164E670E00E94CD2DF7
:1031B0008C012196892B89F30E94512EC801DF9141
:1031C000CF911F910F91FF90EF9008951F93CF9390
:1031D000DF93CDB7DEB7AA970FB6F894DEBF0FBE68
:1031E000CDBFE2E2F2E08091F100819342E0EA3269
:1031F000F407C9F780912302833009F462C030F4E8
:10320000813071F0823009F49CC0B3C08A3009F477
:1032100088C08B3009F46DC0893009F0AAC020C085
:1032200080912202813A09F0A4C08091E800877F52
:103230008093E8008091260290912702892B21F447
:1032400060E28EEF91E003C060E080E090E070E02B
:103250000E946A168091E8008B778093E80089C00D
:1032600080912202813209F084C0809126029091DF
:103270002702009719F0029709F07BC08091E800BF
:10328000877F8093E8008091E80082FD05C08091EF
:1032900020028111F8CF6DC02091F3008091F200DF
:1032A00090E0922B029729F48091F1008B7F81307E
:1032B00021F48091F1008093FD018091E8008B77EB
:1032C00054C080912202813A09F053C080912602B5
:1032D00090912702892B09F04CC08091E800877FEC
:1032E0008093E8008091E80080FFFCCF809112017C
:1032F00037C0809122028132E1F5809126029091BF
:103300002702892BB1F58091E800877F8093E80040
:103310000E94161680912402809312010E94DD28DB
:1033200028C080912202813221F58091E800877FB8
:103330008093E8000E941616809125028093FC017C
:1033400018C080912202813AA1F48091E800877F21
:103350008093E8008091E80080FFFCCF8091FC0121
:103360008093F1008091E8008E778093E8000E94BE
:1033700016168091E80083FFDDC1809122029091B2
:103380002302492F50E04A30510508F0D3C1FA0119
:10339000EB58FF4F0C949231803821F0823809F0BD
:1033A000C9C108C080911E0290911F02992389F023
:1033B00082600FC0809126028F70873008F0BAC1FA
:1033C0008093E9008091EB0085FB882780F91092BB
:1033D000E9009091E800977F9093E8008093F100D6
:1033E0001092F10070C1282F2D7F09F0A3C188230E
:1033F00019F0823061F09EC180912402813009F081
:1034000099C1933009F080E080931F022EC0809113
:10341000240281112AC0809126028F702FEF280F7D
:10342000263008F087C18093E9002091EB0020FF4F
:103430001CC0933021F48091EB00806214C0909105
:10344000EB0090619093EB0021E030E0A90102C015
:10345000440F551F8A95E2F74093EA001092EA0064
:103460008091EB0088608093EB001092E9008091DE
:10347000E800877F8093E8000E9416165BC18111E7
:1034800059C1109124021F778091E3008078812B2D
:103490008093E3008091E800877F8093E8000E949A
:1034A00016168091E80080FFFCCF8091E3008068D1
:1034B0008093E300111102C082E001C083E0809399
:1034C000200238C18058823008F034C12091240293
:1034D000309125022C3D53E0350779F583E08A834E
:1034E0008AE289834FB7F894DE01139620E03EE02C
:1034F00051E2E32FF0E050935700E49120FF03C026
:10350000E295EF703F5FEF708E2F90E0EA3010F0A1
:10351000C79601C0C0968D939D932F5F243149F7C4
:103520004FBF8091E800877F8093E8006AE270E0F7
:10353000CE0101960E946A16B4C080912602909135
:103540002702432F552743305105A9F068F4413035
:10355000510509F4FEC04230510509F0EBC08BE57E
:1035600090E0ECE4F5E04BC04132510529F14232E4
:10357000510589F1DFC0C901992781309105A1F07A
:1035800058F0029709F0D6C0E9EBF5E0E4918E2FF0
:1035900090E0E9EBF5E030C0E1EEF5E0E4918E2F4C
:1035A00090E0E1EEF5E028C0EFECF5E0E4918E2F3D
:1035B00090E0EFECF5E020C08330910508F0BAC050
:1035C000880F991FFC01E65BFE4F0190F081E02D12
:1035D00089E090E014C08330910508F0ABC0FC0195
:1035E000EE0FFF1FEC5BFE4F0190F081E02DDC0140
:1035F000AF5BBE4F8C9190E0009709F49BC0209187
:10360000E800277F2093E8002091280230912902CA
:103610002817390708F4C90140E0009789F1209183
:103620002002222309F43DC02530D9F12091E80081
:1036300023FD37C02091E80022FD2FC02091E80033
:1036400020FFEBCF4091F3002091F20030E0342BCB
:10365000009759F02830310540F444914093F1002F
:10366000319601972F5F3F4FF3CF41E0283031056E
:1036700009F040E02091E8002E772093E800CDCFBC
:103680004111CDCF0AC080912002882351F08530AE
:1036900041F08091E80083FD04C08091E80082FF42
:1036A000F2CF8091E8008B778093E80043C08038A8
:1036B00009F040C08091E800877F8093E800809106
:1036C00021028093F1008091E8008E77D3CE8111A2
:1036D00031C080912402909125029927029754F5D8
:1036E0008091E800877F8093E80010912402109376
:1036F00021020E941616111106C08091E30087FD79
:1037000002C081E001C084E08093200242E061ECCD
:1037100081E00E94351642E261EC84E00E94351699
:1037200042E261EC82E00E94351642E260EC83E006
:103730000E9435168091E80083FF10C08091E80058
:10374000877F8093E8008091EB0080628093EB009C
:1037500005C082E190E0E7EAF5E051CFAA960FB606
:10376000F894DEBF0FBECDBFDF91CF911F910895BA
:103770001F920F920FB60F9211242F933F934F93E6
:103780005F936F937F938F939F93AF93BF93CF93E9
:10379000DF93EF93FF93C091E900CF708091EC002D
:1037A000D82FD17080FDD0E81092E9008091F00010
:1037B000877F8093F00078940E94E6181092E900C9
:1037C0008091F00088608093F000CD2BCF70C09383
:1037D000E900FF91EF91DF91CF91BF91AF919F9160
:1037E0008F917F916F915F914F913F912F910F90AA
:1037F0000FBE0F901F901895E8EDF0E080818E7F4E
:1038000080831092E2001092DA001092E100A0EEA4
:10381000B0E08C9181608C9380818F77808319BC1C
:10382000A7EDB0E08C918E7F8C9380818F7E80831A
:103830001092FB010895CF92DF92EF92FF920F93C7
:103840001F93CF93DF93C8EDD0E088818F7E88836C
:10385000E7EDF0E080818160808384E082BF81E0D9
:103860008093FB0188818E7F888302EE10E0F8014F
:1038700010821092DA0081EEC82ED12CF60110824F
:1038800088818F77888388818068888388818F7D0D
:10389000888319BC109220021092210210921F02FC
:1038A00010921E0290EEE92EF12CF70180818B7FA1
:1038B000808388818160888342E060E080E00E94AC
:1038C0003516F60180818E7F8083F80180818160CA
:1038D0008083808188608083F70180818E7F8083F0
:1038E000888180618883DF91CF911F910F91FF9034
:1038F000EF90DF90CF9008951F920F920FB60F9226
:1039000011242F933F934F935F936F937F938F93E4
:103910009F93AF93BF93EF93FF938091E10082FF5A
:1039200009C08091E20082FF05C08091E1008B7F99
:103930008093E1008091DA0080FF2AC08091D80056
:1039400080FF26C08091DA008E7F8093DA0080911C
:10395000D90080FF18C080E189BD82E189BD09B42A
:1039600000FEFDCF81E0809320028091FB01811158
:103970000FC00E94FC1B0E941B1C8091E20084600F
:103980008093E20005C019BC109220021092FB0146
:103990008091E10080FF17C08091E20080FF13C09A
:1039A0008091E2008E7F8093E2008091E20080614E
:1039B0008093E2008091D80080628093D80019BC87
:1039C00085E0809320028091E10084FF2EC08091E9
:1039D000E20084FF2AC080E189BD82E189BD09B48B
:1039E00000FEFDCF8091D8008F7D8093D80080911C
:1039F000E1008F7E8093E1008091E2008F7E8093D2
:103A0000E2008091E20081608093E20080912102D7
:103A1000882311F084E007C08091E30087FD02C095
:103A200081E001C083E0809320028091E10083FF68
:103A300027C08091E20083FF23C08091E100877F4F
:103A40008093E10082E08093200210922102809115
:103A5000E1008E7F8093E1008091E2008E7F809371
:103A6000E2008091E20080618093E20042E060E049
:103A700080E00E9435168091F00088608093F0000D
:103A8000FF91EF91BF91AF919F918F917F916F9136
:103A90005F914F913F912F910F900FBE0F901F900C
:103AA00018952091E4003091E50095E64091EC00F6
:103AB000842F817040FF23C08091E80080FD1DC0ED
:103AC00080912002882399F0853099F08091EB0055
:103AD00085FD11C04091E4005091E50024173507A1
:103AE00029F3915011F09A01E1CF84E0089582E02A
:103AF000089583E0089581E0089580E0089540915D
:103B0000E80042FFDDCF0895EF92FF920F931F93DD
:103B1000CF93DF937C018B010E94511D811119C04D
:103B2000E70101151105A1F08091E80085FD0AC0AB
:103B30008091E8008E778093E8000E94511D8823D1
:103B400081F307C089918093F10001501109E9CFF9
:103B500080E0DF91CF911F910F91FF90EF9008953A
:103B600080E008959091D80492FF0DC0282F28710D
:103B7000283019F4877F846006C0282F24712430F0
:103B800011F48B7F886093FF0DC0282F2871283196
:103B900019F4877E846106C0282F2471243111F422
:103BA0008B7E88612091D90420FF0DC0382F387199
:103BB000383019F4877F816006C0382F3171313079
:103BC00011F48E7F886021FF0DC0282F28712831C5
:103BD00019F4877E816106C0282F2171213111F4EB
:103BE0008E7E886194FD877E0895F894E82FE29593
:103BF000EF70F0E031A1282F2F7081E090E001C03C
:103C0000880F2A95EAF7982F9095932391A392A174
:103C1000892B82A378940895CF93DF9382389105FE
:103C200069F1B0F48133910509F46FC048F4893229
:103C3000910509F465C08A32910509F46BC08AC008
:103C40008533910509F457C089339105B9F082C0D5
:103C5000833E910571F138F4803E9105B1F0823ECA
:103C6000910511F177C0863E9105B9F1873E910526
:103C7000C9F1843E910509F06DC024C02091D8049B
:103C800020FD53C021FD51C065C08091D80480FD46
:103C900046C08091D90480FF48C08091D80484FD3B
:103CA0003FC183EE90E03EC18091D80482FF3AC0CC
:103CB000F4CF8091D80482FD35C08091D90480FD75
:103CC00034C0EBCF8091D90481FF35C08091D804F6
:103CD00084FD26C187EE90E025C18091D80483FF42
:103CE00027C0F4CF8091D80483FD22C08091D904ED
:103CF00081FD21C0EBCF8091D80485FD1FC021C07C
:103D00008091D80485FD1DC019C08091D80486FD1E
:103D10001BC01DC08091D80486FD19C015C089E361
:103D200090E000C182EE90E0FDC080EE90E0FAC02D
:103D300086EE90E0F7C084EE90E0F4C089E290E077
:103D4000F1C085E390E0EEC08AE290E0EBC081E351
:103D500090E0E8C0811532E5930708F069C081154D
:103D600041E5940728F0982F8827816F906ADAC080
:103D7000883E910568F5803E910508F0D3C0883AE9
:103D80009105B8F4853A910548F0855AE82FF0E09E
:103D9000E859FE4F808190E09064C4C08130910565
:103DA00009F4BBC008F4BCC08430910508F4B8C065
:103DB000B9C08F3B910508F0B3C0885AE82FF0E0F6
:103DC000EE0FFF1FE559FE4F808191819464AAC0D8
:103DD000811520E59207F0F09C0174E03695279557
:103DE0007A95E1F7922F9370482F437021E030E0ED
:103DF00002C0220F331F4A95E2F73C68392B8F70BF
:103E0000982F9695969540E2949FC0011124822B9D
:103E1000932B88C0811530E4930718F09F70906A47
:103E200081C09C013A9521153F4108F47BC078C0C0
:103E3000EC01C11586E5D807E8F5C11525E5D207DF
:103E400048F08C2F0E94B21D8F7190E0982F882728
:103E5000906268C0C11534E5D30728F09C2F8827ED
:103E6000846F906A5FC0AE01437055272C2F269552
:103E70002695C115D34578F481E090E002C0880F03
:103E8000991F4A95E2F740E2249F90011124822B6A
:103E9000932B9C6847C081E090E002C0880F991F77
:103EA0004A95E2F740E2249F90011124822B932B44
:103EB0009A6838C0C1152AE5D207F8F4C11539E56A
:103EC000D30790F08C2F8F700E94B21D94E0D6958E
:103ED000C7959A95E1F7CF70D0E0DC2FCC27D06959
:103EE0009E01282BC9011EC0C11548E5D407C0F0AA
:103EF0009C2F8827806F906A15C0CE01905681153F
:103F0000904270F48D2F8F710E94B21D282F2F7157
:103F1000CE0199279062922B05C081E090E002C00B
:103F200080E090E0DF91CF910895CF9384E090E01E
:103F30000E94722EC82F82E290E00E94722E2C2FD7
:103F400030E0A901582BCA01CF91089580E090E09C
:103F50000E94802E893E9E4F11F40C94CF2680E063
:103F6000089569EE7EEF80E090E00E94A42E60E06C
:103F700082E090E00E94862E60E083E090E00E9464
:103F8000862E1092A70460E084E090E00E94862EC6
:103F900060E082E290E00E94862E60E085E090E0A2
:103FA0000E94862E60E086E090E00E94862E6FEFF1
:103FB00087E090E00E94862E40E050E0BA0188E061
:103FC00090E00E94982E60E08DE090E00E94862EA6
:103FD00040E050E0BA0188E190E00E94982E60E055
:103FE00087E190E00E94862E40E050E0BA018CE12B
:103FF00090E00E94982E60E070E080E290E00E94E5
:10400000A42E40E050E0BA0188E190E00E94982E92
:1040100080E00E94A2260E94C02640E050E0BA0143
:104020008FE090E00E94982E40E050E0BA0183E1DA
:1040300090E00C94982E8091A60481111092A60411
:1040400008959091A5048091A404892B2091A30444
:10405000982F922B90934A048091A6048823D9F03C
:10406000892B80934A0480911201882331F080913A
:10407000D80487FF02C08EE101C086E0ECE4F4E0E2
:1040800090E0815028F021912223D9F39F5FF9CF4E
:1040900091110E941B20E091CF04F091D004309741
:1040A000A9F080911201882359F08091D80487FFEC
:1040B00007C080914A0480934B0485E080934A04B2
:1040C0000280F381E02D8AE494E009940895CF936F
:1040D000C091D904C2FB992790F9981781F080FB11
:1040E000C2F9C093D9046091D80484E090E00E94A2
:1040F000862E6C2F82E290E0CF910C94862ECF9189
:1041000008952091A204809582238093A204982F81
:10411000977041F430E0482F082E000C550B2417FF
:10412000350721F49091D90492FF07C085958595B4
:1041300085950E9496281092A20408958091A1046A
:1041400090917004891719F08F5F8770FBCF0895E5
:104150000F931F93CF93DF9380916F0482958F709D
:1041600009F05DC080916C04882309F458C08091E7
:10417000A1041091700460916A0470916B04C09165
:104180006D04D0916E0491E06F3F09F090E0292F0B
:1041900006E0811709F443C0209721F07F3F21F00A
:1041A00030E003C031E001C0322F90E030FD34C078
:1041B000089FF001099FF00D1124DF01AF58BB4F9C
:1041C00011963C911197371327C03C91361324C0A8
:1041D00012963C91129731111FC013964D915C912C
:1041E00014974C1B5D0B483C5105B0F480916F0453
:1041F0008F70806180936F04EA58FB4F80818F70CD
:10420000806180838AE694E00E94F106DF91CF917D
:104210001F910F910C949E2001968770BACFDF9169
:10422000CF911F910F910895CF93DF93EC010E94DE
:104230000A28BE010E9495260E940C1EDF91CF9194
:1042400008959F92AF92BF92CF92DF92EF92FF922A
:104250000F931F93CF93DF93CDB7DEB761970FB660
:10426000F894DEBF0FBECDBF8C0185E0F801DE0102
:104270001D9601900D928A95E1F7F801E2809091E8
:104280006A0460916B0440916D0450916E04411575
:10429000510531F06F3F31F481E09F3F19F403C0C5
:1042A00081E001C080E0F82FF1709F2E80FD1AC1DF
:1042B000F80130812181C380D4808AE6A82E84E071
:1042C000B82EF0906C04F601E41BF50BFF2009F406
:1042D000C6C080916F04E83CF10508F091C0482FFA
:1042E000407F09F050C0621311C093130FC0FE2C21
:1042F000E1100CC08F70806180936F04C5010E9433
:10430000F10680916F04F801858329C1CD2831F031
:104310002F3F31F481E03F3F19F403C081E001C039
:1043200080E080FD03C081E08E2502C080E090E047
:10433000F82FF170FF2E80FF1CC08091A1044091E6
:10434000700456E0841709F4E8C090E0589FF0012B
:10435000599FF00D1124EF58FB4F6181261306C0C1
:104360006081631303C06281E61203C00196877007
:10437000E9CFFE2CEE2009F4F2C080916F04816039
:1043800080936F0449C0621306C0931304C0E11008
:1043900002C0F80186C0C8010E94B128882351F1EB
:1043A000EE2041F120916F04822F82958F7090E072
:1043B000029774F080916A0490916B0498878F83C0
:1043C0001986DB86CA862C87CE0107960E94F106E5
:1043D00086E0F801AAE6B4E001900D928A95E1F733
:1043E0000E94A8200AC06217C9F0C8010E94B12823
:1043F00081111EC0C8010E94F106FF24F394AFC0D2
:10440000482F407F81F78AE694E00E94F10686E01B
:10441000F50111928A95E9F7F12CA1C09313E5CF2C
:10442000E110E3CFF8018583C8010E94F10654C072
:10443000EE2001F320916F04822F82958F7090E01F
:10444000029734F280916A0490916B049A83898375
:104450001B82DD82CC822E83CE010196B7CFE83C51
:10446000F105D0F5FE2CEE2029F2621327C093133C
:1044700025C020916F0420FD18C0822F82958F7077
:10448000482F50E04115510581F0F80125834F3048
:10449000510541F08F5F982F9295907F822F8F70FA
:1044A000892B8583C8010E94F10686E0F801AAE6FF
:1044B000B4E001900D928A95E1F751C0C8010E94C5
:1044C000B128811185CF80916F04816080936F0442
:1044D000C8010E94F10643C086E0F50111928A9559
:1044E000E9F73DC0EE2009F485CFC8010E94B1284C
:1044F000F82E882309F47ECF86E0F801AAE6B4E01E
:1045000001900D928A95E1F780916A0490916B0475
:104510000E9414210E94A82022C03D872E878D85ED
:104520009E850E941421292F22952F70223028F475
:104530009F7039F0811105C00BC0243028F49F70A2
:1045400049F4805E883020F0C8010E94F1069F2C5B
:10455000F92C05C0F8019581907F99F7F9CF8F2D3F
:1045600061960FB6F894DEBF0FBECDBFDF91CF913D
:104570001F910F91FF90EF90DF90CF90BF90AF9081
:104580009F9008957F928F929F92AF92BF92CF9209
:10459000DF92EF92FF920F931F93CF93DF9300D0A0
:1045A00000D000D0CDB7DEB7AE014F5F5F4F7A01CC
:1045B00086E0DA011D928A95E9F70EE111E06A01C1
:1045C00084E2882E81E0982EAA24A394B12CF801CD
:1045D00080818F3F09F448C0F894E82FE295EF708E
:1045E000F0E021A18F70A50102C0440F551F8A95EC
:1045F000E2F7CA01922F982B91A392A1809589236B
:1046000082A3789400C0E4E2F1E020E030E0712C75
:1046100081918F3FB9F0A82FA295AF70B0E090962E
:104620004C9150E08F70DA0102C0B595A7958A953C
:10463000E2F7A0FD07C08A2D022E01C0880F0A9460
:10464000EAF701C080E0782A2F5F3F4F253031051F
:10465000F9F6F80180818F3F11F00E94F51DF0EA14
:10466000FA95F1F7D6017C920F5F1F4FBFEFCB1A7F
:10467000DB0A8016910609F0AACF46E050E0B701A8
:104680008EEB91E00E94CE3111E0009709F410E02A
:10469000892B89F086E0F701AEEBB1E001900D9235
:1046A0008A95E1F781E08093AA040E946C2490939C
:1046B000A9048093A8048091AA048823A1F0809182
:1046C000A8049091A9040E945124059760F0EEEB94
:1046D000F1E0A5EFB1E081918D9341E0E43CF40776
:1046E000D1F71092AA04812F26960FB6F894DEBF58
:1046F0000FBECDBFDF91CF911F910F91FF90EF9033
:10470000DF90CF90BF90AF909F908F907F90089553
:10471000089508958091FD010895CF93DF9320912E
:104720001201222339F02091D80427FF03C060E250
:1047300024E002C068E021E02093E9002FEF3091EF
:10474000E800215035FD06C035ED3A95F1F700003F
:104750002111F5CF2091E80025FF1DC0EC018091CB
:104760001201811105C040E050E068E070E003C034
:1047700070E040E050E0CE010E94841D8091E8008E
:104780008E778093E80080E2FE01AEEFB1E0019009
:104790000D928A95E1F7DF91CF9108958091C3043E
:1047A000882319F081508093C3046091BF047091F5
:1047B000C0048091C1049091C2040C943A2C809161
:1047C000C304833018F48F5F8093C3046091BF04E7
:1047D0007091C0048091C1049091C2040C943A2C51
:1047E00090912002943029F58093DA047093DC04D0
:1047F0006093DB049093E9008FEF9091E800815083
:1048000095FD06C095ED9A95F1F700008111F5CF61
:104810008091E80085FF0DC040E050E063E070E06B
:104820008AED94E00E94841D8091E8008E77809349
:10483000E800089587E797E79093010880930008C0
:104840009AE088E10FB6F894A895809360000FBEB7
:1048500090936000FFCF78941F920F920FB60F9243
:1048600011248F939F93AF93BF938091D404909121
:10487000D504A091D604B091D7040196A11DB11D15
:104880008093D4049093D504A093D604B093D70416
:10489000BF91AF919F918F910F900FBE0F901F907E
:1048A00018959C014FB7F8948091D4049091D50449
:1048B000A091D604B091D7044FBF821B930B0895EB
:1048C0002FB7F8946091D4047091D5048091D604E8
:1048D0009091D7042FBF08952FB7F8948091D404F6
:1048E0009091D504A091D604B091D7042FBF08951C
:1048F0001F920F920FB60F9211248F939F93AF9335
:10490000BF938091D304811113C08091D4049091FE
:10491000D504A091D604B091D7044196A11DB11D34
:104920008093D4049093D504A093D604B093D70475
:10493000BF91AF919F918F910F900FBE0F901F90DD
:104940001895209112012223C9F02091D80427FF45
:1049500015C0262F2695269526952E31C8F4FC01E4
:10496000E20FF11D677081E090E001C0880F6A9549
:10497000EAF780959281892382830895FC01069647
:104980002281621301C012823196E817F907C1F73C
:104990000895209112012223C1F02091D80427FF0D
:1049A00014C0262F2695269526952E3130F5FC012C
:1049B000E20FF11D677081E090E001C0880F6A95F9
:1049C000EAF79281892B82830895FC0132962FEFBA
:1049D00030E04191641789F02F3F19F4411101C073
:1049E000232F3F5F3630A9F72F3F39F0FC01E20F4C
:1049F000F11D27FDFA956283089508952091D10451
:104A00003091D2042817390771F09093D204809323
:104A1000D104E091CF04F091D004309721F00084CC
:104A2000F185E02D099408952091CD043091CE04B4
:104A30002817390771F09093CE048093CD04E0914C
:104A4000CF04F091D004309721F00680F781E02D5B
:104A500009940895E091CF04F091D004309721F0AB
:104A60000190F081E02D099480E008950F931F9349
:104A7000CF93DF93C42FD22FFC0182818823C9F00A
:104A80004093CC040E946C249093CB048093CA047E
:104A900080E28C0F883008F057C0C77081E001C0F9
:104AA000880FCA95EAF7DF91CF911F910F910C946F
:104AB000FD288091CC04481330C08091CA049091A5
:104AC000CB040E945124883C910538F510E21D0F5B
:104AD000CD17B9F080E28C0F883040F4C77081E0C8
:104AE00001C0880FCA95EAF70E94F228183028F50D
:104AF00081E09D2F977001C0880F9A95EAF70E9478
:104B0000FD28802F0E94AC291830F0F4D77081E086
:104B100001C0880FDA95EAF70AC080E28C0F88306E
:104B200098F4C77081E001C0880FCA95EAF7DF9159
:104B3000CF911F910F910C94F228802FDF91CF918C
:104B40001F910F910C94AC29DF91CF911F910F9180
:104B500008958091C9048823F9F00E946024DC0143
:104B6000CB01805A9541AF4FBF4F8093C4049093BF
:104B7000C504A093C604B093C7048091C8048111F2
:104B80000BC062E070E08AE19CE00E94BD18892BB6
:104B900019F481E08093C8048091C8040895CF93EC
:104BA000E82F20913404309135042E523240409148
:104BB0002B02642F70E0C9010E94552E481B842FE0
:104BC000EE2351F066E00E945331C82FC150A8F087
:104BD00080E20E940A18FACFA901480F511D411521
:104BE000524018F080E020E030E0280F311D225DB7
:104BF0003D4F3093350420933404CF910895209194
:104C00002B0236E0839FC0011124629F800D911D0D
:104C10001124811522E0920714F080E090E0825D7B
:104C20009D4F90933504809334040895EEE2F2E0B2
:104C300080E092E0DF019C011D9221503040E1F7BD
:104C4000F0933504E09334048FEF9FEF90932D029F
:104C500080932C020895CF93DF93C7E1D1E060E009
:104C6000CE010E94862E2196C11584E0D807B9F79F
:104C7000DF91CF910895CF92DF92EF92FF920F9341
:104C80001F93CF93DF93C0E0D0E08E01045C1F4FF1
:104C90006E018AE0C80ED11CFE01E65DF44FE5907E
:104CA000F4906F2DCE0187960E94862E6E2DCE0138
:104CB00088960E94862E2296CC15DD0569F70C1782
:104CC0001D0731F7E801003F1105F9F6DF91CF919B
:104CD0001F910F91FF90EF90DF90CF9008950F9369
:104CE0001F93CF93DF93C42FD0E0CC0FDD1F2AE0BA
:104CF000629FC00DD11D11243CE3839FC00DD11DC7
:104D00001124CE0187960E94722E082F10E0102FDA
:104D10000027CE0188960E94722E9801282BC90187
:104D2000DF91CF911F910F910895462F843038F471
:104D3000763028F4653018F4672F0C946F2680E0E5
:104D400090E00895CF93C82F811102C06FEF01C08A
:104D500061E283E290E00E94862EC11102C06FEFF3
:104D600001C060E184E290E00E94862EC11102C081
:104D70006FEF01C063E285E290E0CF910C94862E44
:104D800080E00E94A22660E086E290E00E94862EEB
:104D90000E943B260E942B2681E00C94A22683E2EF
:104DA00090E00E94722E813281F484E290E00E94B1
:104DB000722E803151F485E290E00E94722E91E0D3
:104DC000833209F090E0892F01C080E0817008955E
:104DD0009091BF0490FF04C09695981740F003C0CF
:104DE000811105C090E0961710F40C943C2D61E001
:104DF0000C94F12C882311F0FA0101C0FB010994F5
:104E00008091BF0480FF0AC0869A81B38F7B91B3E3
:104E100090642FB7F894EDEAF4E00BC0EDEAF4E00B
:104E2000118210821282339634E0EF3BF307C1F710
:104E3000EBCF34E0EF3BF30789F0319148E091BBD1
:104E4000000000C037FF81BB330F000000C000C06E
:104E500000C081BB00C04A9591F7EBCF2FBF8FE513
:104E600094E00197F1F700C000000895EF92FF92DF
:104E70001F93CF93DF93EC018DEAE82E84E0F82EA8
:104E800010E08C8197014091C2046091C104810FB0
:104E90000E945B2C165D83E0E80EF11C1C3F89F735
:104EA0000E9400279A818C8190FF02C08F5F01C011
:104EB00081508C83DF91CF911F91FF90EF900895E7
:104EC0005F926F927F928F929F92AF92BF92CF929A
:104ED000DF92EF92FF920F931F93CF93DF9300D057
:104EE0001F92CDB7DEB7182F762E042F622E809139
:104EF000BF0480FF6EC0E82FE695AE2FB0E0A75646
:104F0000BE4F9C919093AB048E7F8230A1F49E01A2
:104F10002F5F3F4F812F0E945B2C8B8199812A81CB
:104F2000EDEAF4E0218390838283339634E0EF3B13
:104F3000F307C1F73AC0923019F41091C00437C09A
:104F40009830A9F5E8508E2F8170582EE695F0E044
:104F5000EB5DF44FA590B4908DEAC82E84E0D82E76
:104F6000E12CF12CBB2496E0892E912CAE9CC00143
:104F7000AF9C900DBE9C900D1124B4010E94552E43
:104F8000812F511002C0860F01C0861B9601402F51
:104F9000672D0E945B2C3FEFE31AF30A83E0C80EF3
:104FA000D11C36E0E316F10409F70E9400271093A4
:104FB000C0047092C1040093C204662051F0609155
:104FC000BF047091C0048091C1049091C2040E94FA
:104FD0003A2C0F900F900F90DF91CF911F910F916E
:104FE000FF90EF90DF90CF90BF90AF909F908F9009
:104FF0007F906F905F90089580E090E00E9414256C
:1050000080E090E00E94FE241092A4041092A30479
:105010000C942120CF92DF92FF920F931F93CF9396
:10502000DF936C0100912A028091A704082BC7E04E
:10503000D0E010E0C8010C2E02C0959587950A9427
:10504000E2F780FD04C02197A8F7F12C09C0FC2EDF
:10505000B6018C2F0E9495260E940C1E019799F391
:105060008F2DDF91CF911F910F91FF90DF90CF9007
:10507000089524E0929F900D1124890F682F669562
:1050800066956695982F977083E0689FB00111240C
:1050900040E050E080E0FB01E40FF51FE352FB4FDE
:1050A000208130E0092E02C0369527950A94E2F758
:1050B00021703327042E01C0220F0A94EAF7822BB5
:1050C0004F5F5F4F4330510531F7089524E0929FC1
:1050D000900D1124890FE82FE695E695E6958770E7
:1050E00051E001C0550F8A95EAF783E0E89FF0018F
:1050F0001124E352FB4F20E030E070E04081CB010F
:10510000022E02C0969587950A94E2F781708195E8
:1051100084278523842781932F5F3F4F23303105D8
:1051200069F7089580932A020C94FC2721E030E06F
:1051300001C0220F8A95EAF7209580912A028223E6
:105140000C94922821E030E001C0220F8A95EAF702
:1051500080912A02822B0C9492288093A7040C94AD
:10516000FC27FC01808191810E941421292F2F703E
:10517000E92FE295EF704E2F50E0FA013297EE30B2
:10518000F105B8F4E158FF4F0C949231803F99F04B
:1051900018F4883E70F40FC0843F59F40CC0883E68
:1051A00050F0813F31F407C0822F86958695869511
:1051B000089580E0089581E008951092A5048091FB
:1051C0001201882331F08091D80487FF02C08EE15C
:1051D00001C086E0ECE4F4E0DF011D928A95E9F776
:1051E0000C94FC27882341F080959091A504892395
:1051F0008093A5040C9421200895882339F0909180
:10520000A504892B8093A5040C942120089588235C
:1052100079F19CEF980F913A30F4682F8AE494E08A
:105220000E94A12414C090E2980F983090F48770E7
:1052300021E030E0A90102C0440F551F8A95E2F732
:10524000CA0180959091A50489238093A5040C94AC
:1052500021209BE5980F933020F480E090E00C949F
:105260001425885A873120F480E090E00C94FE24C5
:105270000895CF93882309F46DC09CEF980F913A5D
:10528000C8F5C82F809112018823E1F08091D804DD
:1052900087FF18C0EC2FE695E695E695F0E0E65B13
:1052A000FB4F8281282F30E04C2F477081E090E047
:1052B00002C0880F991F4A95E2F782239323892B16
:1052C00061F412C0ECE4F4E082E594E02191C217AD
:1052D00021F08E179F07D1F707C06C2F8AE494E066
:1052E0000E94A1240E9421206C2F8AE494E00E9455
:1052F000C92413C090E2980F983090F4877021E091
:1053000030E0A90102C0440F551F8A95E2F7CA0197
:105310009091A504892B8093A504CF910C94212012
:10532000EBE5E80FE33040F4F0E0E859FE4F808110
:1053300090E0CF910C941425885A873158F4E82FC7
:10534000F0E0EE0FFF1FE559FE4F80819181CF9174
:105350000C94FE24CF9108951F93CF93DF93182FC1
:10536000893319F0C0E0D0E002C0C0E5D0E0812F61
:105370000E943929209741F08FE99FE00197F1F7CA
:1053800000C000002197F6CF812FDF91CF911F91B0
:105390000C9407291F93CF93DF93CDB7DEB76797A0
:1053A0000FB6F894DEBF0FBECDBF4B8B5C8B6D8B01
:1053B0007E8B8F8B61111092A40486E09E01235F87
:1053C0003F4FD901E82F1D92EA95E9F795E0FE01DC
:1053D0007396D90101900D929A95E1F79C894E89B7
:1053E0005F897B897D879E876F87598B488BF90101
:1053F000DE01179601900D928A95E1F7CE0107968E
:105400000E94212181113EC086E0FE013796DE0117
:10541000119601900D928A95E1F7FF81E8856A85E2
:105420007B856115710531F0EF3F31F481E0FF3F7D
:1054300019F403C081E001C080E080FD23C0209109
:10544000700430E0C9010196877099274091A1044A
:1054500050E08417950779F1F983EA837D836C83A3
:1054600096E0929FD001939FB00D1124AF58BB4F8F
:10547000FE01319601900D929A95E1F780937004A8
:105480000E949E2016E08091A104909170048917DB
:10549000F9F0189FC00111248F589B4F0E942121C1
:1054A0008823B1F08091A10490E00196877099273C
:1054B0008093A104E8CF0E94DD281092700410921E
:1054C000A104EAE6F4E086E0DF011D928A95E9F79F
:1054D00067960FB6F894DEBF0FBECDBFDF91CF91B8
:1054E0001F910895982F92959F7019F0892F24E0AD
:1054F00001C020E0982F9695969511F02E5F892F88
:10550000982F969509F02F5F822F0895CF93DF9300
:105510000E942A2581FBDD27D0F982FBCC27C0F928
:1055200080FD03C086E49CE002C08BE49CE00E9406
:10553000A418D11103C08CE39CE002C081E49CE07C
:105540000E94A418C11103C082E39CE002C087E35B
:105550009CE0DF91CF910C94A4188F929F92AF9210
:10556000BF92CF92DF92EF92FF920F931F93CF9350
:10557000DF932091BC012111FCC0EC018091BA01A4
:10558000811179C0C090B601D090B701E090B80108
:10559000F090B9010AE010E08AE0C017D1073CF0B2
:1055A0009801829F8001839F100D1124F6CF20E087
:1055B00030E0A901C701B6010E94272FA801110FF1
:1055C000660B770B4E010D2E000CAA08BB0887FF57
:1055D00015C0CB01BA010E94D62FA70196010E94E7
:1055E0008B306B017C01C501B4010E94D62F9B0159
:1055F000AC01C701B6010E94BA2E14C0CB01BA019A
:105600000E94D62FA70196010E948B306B017C016E
:10561000C501B4010E94D62F9B01AC01C701B601A0
:105620000E94BB2E6093B6017093B7018093B801BE
:105630009093B901299719F040E050E002C041E091
:1056400050E00E94D0166091B6017091B701809130
:10565000B8019091B90140E050E00E94D0160E943C
:105660001626E6E3F4E001900020E9F73197E653CF
:10567000F44062E06CC0C090B201D090B301E09001
:10568000B401F090B5010AE010E08AE0C017D1073C
:105690003CF09801829F8001839F100D1124F6CF6A
:1056A00020E030E0A901C701B6010E94272F4E017A
:1056B000DD0FAA08BB08A801110F660B770B87FF47
:1056C00015C0CB01BA010E94D62FA70196010E94F6
:1056D0008B306B017C01C501B4010E94D62F9B0168
:1056E000AC01C701B6010E94BA2E14C0CB01BA01A9
:1056F0000E94D62FA70196010E948B306B017C017E
:10570000C501B4010E94D62F9B01AC01C701B601AF
:105710000E94BB2E6093B2017093B3018093B401D9
:105720009093B50140E050E00E94D01663E081E024
:105730000E94FF258CE19CE00E94A418E6E3F4E0BF
:1057400001900020E9F73197E653F44063E085E1EA
:105750008E1B0E94FF25DF91CF911F910F91FF902B
:10576000EF90DF90CF90BF90AF909F908F900C9470
:105770008A18DF91CF911F910F91FF90EF90DF90EA
:10578000CF90BF90AF909F908F9008951092B601E8
:105790001092B7011092B8011092B9011092B201A3
:1057A0001092B3011092B4011092B5011092AE01A3
:1057B0001092AF011092B0011092B1011092BB0192
:1057C0001092BA011092BC010895EFEBF4E043810E
:1057D00028E0421B08F440E021E0628181810C94C2
:1057E0006027EFEBF4E0438128E0420F08F44FEF2D
:1057F00021E0628181810C946027EFEBF4E062810B
:1058000028E0621B08F460E021E0438181810C9470
:105810006027EFEBF4E0628128E0620F08F46FEF9D
:1058200021E0438181810C946027EFEBF4E08181DA
:1058300021E04381628188500C946027EFEBF4E013
:10584000818121E043816281885F0C94602780918F
:10585000BF04282F269530E02115310519F48170F9
:10586000826005C02231310524F08170826280930C
:10587000BF040895CF92DF92EF92FF926B017C01FB
:105880000E94272CB701A60188E090E0FF90EF90DE
:10589000DF90CF900C94982EEFEBF4E083E08083C0
:1058A00011828FEF82838383148260817181828170
:1058B00093810C943A2CAF92BF92CF92DF92EF92E9
:1058C000FF920F931F93CF93DF93E82EF62EE901FB
:1058D000E42FF0E0611106C0E05BF34FE4914E2F3E
:1058E0002E2F71C0062F10E0E05BF34F4491F42F90
:1058F000C42ED12C26E0829FC00111242FEF30E06E
:10590000B9010E94552E5BEA5603C001579F900DC6
:1059100011248E0D911D8E0D911D582F550F580F6E
:10592000D901A01BB10BAC9DC001AD9D900DBC9DDC
:10593000900D1124E92FF59ED0011124AB2FBB2728
:105940007901EA1AFB0AEC9CD001ED9CB00DFC9C9D
:10595000B00D11245901A51AB108A09E7001A19E95
:10596000F00CB09EF00C1124EF2CFF242E193F09EF
:105970002C9D80012D9D100D3C9D100D1124212F7B
:105980006230710591F048F461157105E1F0613004
:105990007105B9F4242F4B2F16C06430710569F0DE
:1059A00040F06630710579F00CC0242F492FE12FAB
:1059B0000AC0492FEF2F2B2F06C0292FE42F412F8C
:1059C00002C0292FEB2F49832883EA83DF91CF91EF
:1059D0001F910F91FF90EF90DF90CF90BF90AF900D
:1059E00008959091BF0490FF3DC09170811102C055
:1059F000926006C0823110F0926202C0880F982B2C
:105A00009093BF04662351F06091BF047091C0046D
:105A10008091C1049091C2040E943A2C6091BF040D
:105A2000669570E04BE050E083E191E00E94C13167
:105A3000892B19F01092AC0409C081E08093AC046A
:105A40000E946C249093EA048093E90481E080939F
:105A5000EC0420E04091C2046091C1048091C00434
:105A60000C94602708958091BF048695815009F4B5
:105A700081E161E00C94F12C8091BF0486958F5FE9
:105A8000823108F081E061E00C94F12C1092B900B1
:105A90008CE08093B80008959F92AF92BF92CF920E
:105AA000DF92EF92FF920F931F93CF93DF93B82E65
:105AB000EB010E946C246C01C431D10558F0CF3F3A
:105AC0008FEFD80759F0CE0164E170E00E94552EA7
:105AD0007B0107C0EE24E394F12C03C025E0E22E05
