:100000000C941C070C9463070C9463070C9463070F
:100010000C9463070C9463070C9463070C946307B8
:100020000C9463070C9463070C94E01B0C941C1B4A
:100030000C94DE230C9463070C9463070C94630701
:100040000C9463070C9463070C9463070C94630788
:100050000C9463070C9491230C9463070C9463072E
:100060000C9463070C9463070C9463070C94630768
:100070000C9463070C9463070C9463070C94630758
:100080000C9463070C9463070C9463070C94630748
:100090000C9463070C9463070C9463070C94630738
:1000A0000C9463070C9463070C946307A30DA30DD2
:1000B000DD0DDD0D360E510F510F510F520EC60ED4
:1000C000D70ED70EDE13E113FD130A1411143114E9
:1000D00034147414961433153315A114A314A714EF
:1000E000CB14EC14EF14F214141530195719FE1A2E
:1000F0005719FE1AA319C619FE1ABB1ACB1AEE2AF3
:10010000EE2A012B012BF72A012B012B012BEE2AC2
:10011000EE2AFC2A012B012BFC2A00000000000023
:1001200000000000000000000000000000000000CF
:1001300000000000000000000000000000007E0F32
:1001400000D4FFFFFFC7000000780000000000009F
:1001500000002A2B28000000000000000000000022
:10016000000000000029000000002C1E3420212285
:1001700024342627252E362D3738271E1F202122EE
:10018000232425263333362E37381F040506070867
:10019000090A0B0C0D0E0F10111213141516171857
:1001A000191A1B1C1D2F3130232D35040506070895
:1001B000090A0B0C0D0E0F10111213141516171837
:1001C000191A1B1C1D2F3130354C202020202020D7
:1001D00020202020202020202020202020200A0055
:1001E0002F0A002A0A002D0A002B0A0000DA0281D9
:1001F000FFD9F1DB20A4A62EAF00A0C000A1C8004B
:10020000AED580A81FD300408D1420000000000050
:1002100000000000000000000000000000000000DE
:1002200000000000000000000000000000000000CE
:10023000000000000000003FBFDFE7E76737DBCBCF
:100240000B0B0BCBCFEDF5F5F5F5F5F5F5F5F5F574
:10025000FBFB8B0D05C5454565BDC3FFFFFFFFFFDC
:10026000FFFF000000000000000000000000000090
:10027000000000000000000000000000000000007E
:10028000000000000000000000000000000000006E
:10029000000000000000000000000000000000005E
:1002A000000000000000000000000000000000004E
:1002B00000000000000000E3E6C7CFDFFEFEFDBA4D
:1002C0008AC200FFF3E3FFFFFFFFFFFFFFFFFFFF17
:1002D000F9F1FBF8040EFEFE3187FFFFFFFFFFFF81
:1002E000FFFF000000000000000000000000000010
:1002F00000000000000000000000000000000000FE
:1003000000000000000000000000000000000000ED
:1003100000000000000000000000000000000000DD
:1003200000000000000000000000000000000000CD
:1003300000000000000000BFDFCFCFFFFDF8F1F3A9
:10034000F3FFFFF0670F3F7FFFFFAF6F4F0F0F4FC0
:100350006FBF1FC1CCFE3F1F9EE1FFFFFFFFFFFFEE
:10036000FFFF00000000000000000000000000008F
:10037000000000000000000000000000000000007D
:10038000000000000000000000000000000000006D
:10039000000000000000000000000000000000005D
:1003A000000000000000000000000000000000004D
:1003B00000000000000000FFFFFFEFCFCFDFDFDF16
:1003C000D9F9F8F8ECEEDFDFFEFCDDD9D9D9D9D9BF
:1003D000C1EEFFFFFFCF0E06E1FFFFFFFFFFFFFFB4
:1003E000FFFF00000000000000000000000000000F
:1003F00000000000000000000000000000000000FD
:10040000000000000000000000000000556E646560
:1004100066696E6564004C617965723A20004144FA
:100420004A0A004C617965723A2000202D2D2D2D4D
:100430002043616C63756C61746F72202D2D2D2DBE
:100440000A004D6163726F0A004C617965723A204F
:10045000004E756D7061640A004C617965723A20D6
:100460000000AE05010980A101850319012AB7002A
:10047000150126B700950175108100C0050C090112
:10048000A101850419012AA002150126A0029501E7
:1004900075108100C005010906A101850505071930
:1004A000E029E71500250195087501810205071966
:1004B0000029EF1500250195F07501810205081945
:1004C000012905950575019102950175039101C0FA
:1004D0000660FF0961A1010962150026FF00952051
:1004E000750881020963150026FF009520750891A3
:1004F00002C005010906A101050719E029E7150059
:10050000250195087501810295017508810105078E
:10051000190029FF150026FF0095067508810005C2
:100520000819012905950575019102950175039139
:1005300001C009025B00030100A0FA0904000001E8
:10054000030101000921110100012240000705817A
:100550000308000A09040100020300000009211138
:100560000100012222000705820320000107050384
:100570000320000109040200010300000009211109
:10058000010001226D000705840320000A1201000A
:100590000200000008EDFE6969010001020001147B
:1005A0000353006800650065007000790050006129
:1005B0000064000000100343006900700075006CC7
:1005C000006F00740000000403090407087F080797
:1005D000003E5B4F5B3E003E6B4F6B3E001C3E7C23
:1005E0003E1C00183C7E3C18001C577D571C001C0C
:1005F0005E7F5E1C0000183C180000FFE7C3E7FFA9
:1006000000001824180000FFE7DBE7FF0030483A3D
:10061000060E00262979292600407F05050700409F
:100620007F05253F005A3CE73C5A007F3E1C1C08D2
:1006300000081C1C3E7F0014227F2214005F5F0014
:100640005F5F0006097F017F00006689956A006090
:10065000606060600094A2FFA2940008047E040819
:100660000010207E20100008082A1C0800081C2A00
:100670000808001E10101010000C1E0C1E0C00307C
:10068000383E383000060E3E0E0600000000000026
:100690000000005F000000000700070000147F1446
:1006A0007F1400242A7F2A12002313086462003674
:1006B0004956205000000807030000001C2241009A
:1006C000000041221C00002A1C7F1C2A0008083E52
:1006D00008080000807030000008080808080000C2
:1006E00000606000002010080402003E5149453EB1
:1006F0000000427F400000724949494600214149BB
:100700004D33001814127F10002745454539003C31
:100710004A49493100412111090700364949493602
:1007200000464949291E0000001400000000403422
:1007300000000000081422410014141414140000D6
:1007400041221408000201590906003E415D594E3C
:10075000007C1211127C007F49494936003E41411C
:100760004122007F4141413E007F49494941007F8C
:1007700009090901003E41415173007F0808087FC3
:100780000000417F4100002040413F01007F0814EC
:100790002241007F40404040007F021C027F007FDA
:1007A0000408107F003E4141413E007F09090906CF
:1007B000003E4151215E007F091929460026494922
:1007C00049320003017F0103003F4040403F001FCA
:1007D0002040201F003F4038403F0063140814634E
:1007E000000304780403006159494D4300007F4130
:1007F000414100020408102000004141417F0004F3
:10080000020102040040404040400000030708008D
:10081000002054547840007F284444380038444431
:10082000442800384444287F0038545454180000A9
:10083000087E09020018A4A49C78007F08040478AC
:100840000000447D4000002040403D00007F102813
:1008500044000000417F4000007C04780478007C64
:100860000804047800384444443800FC1824241850
:100870000018242418FC007C080404080048545480
:1008800054240004043F4424003C4040207C001CCD
:100890002040201C003C4030403C004428102844AC
:1008A000004C9090907C004464544C440000083606
:1008B00041000000007700000000413608000002FF
:1008C00001020402003C2623263C00000000000038
:1008D00000404040F0F8F8FF38FFF8F83FF8F8FF24
:1008E00038FFF8F8F040404000000000000080C0F1
:1008F000C0C0800000C0C08000000080C0C000C038
:10090000C0000080C0C00000000000C0C0C0C0C067
:1009100000C0C00000000000000000000000000057
:1009200000000000000000000000000000000000C7
:1009300000000000000000000000000000000000B7
:1009400000000000000000000000C0F0F8FC3E1EA7
:1009500006010000007F4141417F007F4141417F0E
:10096000000080C0E07E5B4F5BFEC00000C000DC8A
:10097000D7DEDEDED7DC00C0000000000000000093
:100980000000000000000000000000000000000067
:1009900000494949FFFFFFFFE0DFBFBF00BFBFDFE6
:1009A000E0FFFFFFFF49494900000000001F3F60D2
:1009B00060E0BF1F007F7F071E381E077F7F007F1C
:1009C0007F0E1F3B716000000000007F7F0C0C0C4D
:1009D000007E7E007F7E0303007F7E03037E7E0316
:1009E000037F7E000F3E703C063C703E0F00327B62
:1009F00049493F7E007F7E0303001E3F69696F26E1
:100A000000000000000000000000030F1F3F3C78C2
:100A100070600000007F4141417F007F4141417F84
:100A200000307B7F7830202030787F3B0003000F40
:100A30007F0F0F0F7F0F0003000000000000000079
:100A400000000000000000000000000000000000A6
:100A500000010101070F0F7F0F7F0F0F7E0F0F7F28
:100A60000F7F0F0F070101010000000000000000D0
:100A70000000010100000000000000000000000074
:100A80000000000000000000000000000000000066
:100A90000000000000000000000000000000000056
:100AA0000000000000000000000000000000000046
:100AB0000000000000000000000000000000000036
:100AC0000000000000000000000000000000000026
:100AD0000000000000000000000000000000000016
:100AE0000000000000000000000000000000000006
:100AF00000000000000000000000000000000000F6
:100B000000000000000000000000000001010101E1
:100B100001010101010202020202020202020303B8
:100B20000303030303030404040404040405050588
:100B3000050506060606060707070707080808084A
:100B4000090909090A0A0A0B0B0B0C0C0C0D0D0DF7
:100B50000E0E0E0F0F0F101011111112121313148D
:100B600014151516161717181819191A1A1B1B1C05
:100B70001D1D1E1E1F20202122222324242526265F
:100B8000272829292A2B2C2D2D2E2F303132323394
:100B90003435363738393A3B3C3D3E3F404142439D
:100BA0004445464748494A4C4D4E4F505153545581
:100BB0005658595A5B5D5E5F616264656668696B31
:100BC0006C6D6F7072737577787A7B7D7E808283AF
:100BD0008587888A8C8E8F91939596989A9C9EA0F3
:100BE000A2A3A5A7A9ABADAFB1B3B5B7BABCBEC000
:100BF000C2C4C6C9CBCDCFD1D4D6D8DBDDDFE2E4C9
:100C0000E7E9EBEEF0F3F5F8FAFDFFAE00000000C7
:100C10000000000000000000402F003000540000E1
:100C200000580026022702550000005F00600061A6
:100C300000560000005C005D005E00570000005997
:100C4000005A005B0062000000000000000000008D
:100C50000000000000000000000000000000000094
:100C60000000000000000000000000000000000084
:100C70000000000000000000000000000000000074
:100C8000000000AE000000000000000000000001B5
:100C9000000100010001000000010001000100014D
:100CA000000000010001000100010000000100013E
:100CB000000100010000000100010001000100002E
:100CC0000000000000000000000000000000000024
:100CD0000000000000000000000000000000000014
:100CE0000000000000000000000000000000000004
:100CF0000000000000000000000000AE0000000046
:100D0000000000000000000100745D735D725D0072
:100D100000695D6A5D6B5D715D0000665D675D68C1
:100D20005D705D0000635D645D655D6F5D00006228
:100D30005D6D5D6C5D6E5D000000000000000000F8
:100D400000000000000000000000000000000000A3
:100D50000000000000000000000000000000000093
:100D60000000000000000000000000000000000083
:100D7000000000AE000000000000000000000001C4
:100D800000C25CD45CD05C0000C55CC65CC75CC8BB
:100D90005C0000C95CCA5CCB5CCC5C00000000005D
:100DA00000000000000000005C00000000DE5C00AD
:100DB0000000000000000000000000000000000033
:100DC0000000000000000000000000000000000023
:100DD0000000000000000000000000000000000013
:100DE000000000000000000000000000AF202020F4
:100DF00020202020202020202020202020202020F3
:100E0000200A003D2020202020496D6167696E6125
:100E1000727920526F6F74210A0020202020005325
:100E20004352200020202020004341502000202059
:100E30002020004E554D200011241FBECFEFDAE0D8
:100E4000DEBFCDBF04B603FE27C08091ED049091B4
:100E5000EE04A091EF04B091F0048730904BA740CE
:100E6000B04BD1F41092ED041092EE041092EF0406
:100E70001092F00414BE84B7877F84BF0FB6F89435
:100E8000A895809160008861809360001092600056
:100E90000FBEE0E0F8E3099511E0A0E0B1E0EAE27E
:100EA000F2E602C005900D92A439B107D9F724E00B
:100EB000A4E9B1E001C01D92AD3EB207E1F70E9486
:100EC000A60F0C9413310C9400003F924F925F9246
:100ED0006F927F928F929F92AF92BF92CF92DF924A
:100EE000EF92FF920F931F93CF93DF93CDB7DEB7AF
:100EF00029970FB6F894DEBF0FBECDBFFC018081ED
:100F0000918123813481232B31F09F3F31F491E093
:100F10008F3F19F403C091E001C090E090FF02C040
:100F20000C948E0F7F0185E0DE01119601900D92E9
:100F30008A95E1F7F701228189819A81222349F07C
:100F40000E94322A182F682F89819A810E948E2A46
:100F500003C00E94612A182F69817A81812F0E9423
:100F6000FB258C01F7018281882309F4F2C09801E6
:100F700022513F452031310508F019C18FEF93E030
:100F80000E94B72D8111EFC0025167E0862E62E00A
:100F9000962E002379F08114F4E09F0609F4E3C053
:100FA000C4010E94B72D811101C001502FEF821A98
:100FB000920AEFCF1E821F8218861986442443941A
:100FC0005AE0352E84010F5F1F4FC4010E94B72DD8
:100FD0008E831F82882309F4C6C09FEF980F933039
:100FE00060F48F834E8232E0830E911CC8010E9410
:100FF000B72D8887811102C0B6C048018E010A5FF3
:101000001F4FF80120812223E9F2213009F04CC062
:101010008181813049F46801F2E0CF0ED11CF801E2
:1010200082810E94D42B0AC0823051F46801F2E020
:10103000CF0ED11CF80182810E94612B860186C0EF
:10104000833049F46801F2E0CF0ED11CF8018281AF
:101050000E942F2BF3CF843019F00F5F1F4F76C003
:10106000F80122810E5F1F4F80E090E030E02053B6
:1010700031092A30310568F4389EA001399E500D9F
:101080001124C901840F951F0F5F1F4FF8012081A4
:10109000EDCF009709F45AC0EFE9FFE03197F1F77F
:1010A00000C000000197F5CFE22FF0E0E65BFE4FB5
:1010B0005490822F86958695869590E0FC01E65C9B
:1010C000FE4F64902770712C022E02C075946794B5
:1010D0000A94E2F7F1E06F227724FC01E65DFE4F0F
:1010E000A490B12C022E02C0B594A7940A94E2F702
:1010F00031E0A322BB24FC01E65EFE4FC490D12C5C
:1011000002C0D594C7942A95E2F781E0C822DD2475
:101110006114710419F081EE0E94612BA114B104D5
:1011200019F086EE0E94612B852D0E94D42BAB28EE
:1011300019F086EE0E942F2B672819F081EE0E948D
:101140002F2BCD2819F08CE20E94D42B0F5F1F4F5C
:1011500058CF00313FE5130709F0D7C681E00E9460
:10116000BE2A0E94161880919C04877009F4D6C686
:10117000F7018281882309F4D1C682E029960FB64F
:10118000F894DEBF0FBECDBFDF91CF911F910F91BD
:10119000FF90EF90DF90CF90BF90AF909F908F9097
:1011A0007F906F905F904F903F900C94E51F0031BF
:1011B000FFE51F0711F481E005C001312FE512079B
:1011C00021F482E00E94CA2ACCCF0A36FDE51F072F
:1011D00039F4882341F288E090E00E94EC28C3CFE4
:1011E0000B362DE5120708F016C205363DE513074C
:1011F00031F4882309F4B7CF83E090E0EECF0636D0
:101200009DE5190708F0DEC10236EDE51E0731F451
:10121000882309F4A8CF80E090E0DFCF0336FDE516
:101220001F0708F040C0011520E4120709F045C06F
:10123000F7019581907F59F1882389F180912402EB
:10124000882311F080FF05C080E00E94BE2A81E063
:101250000EC090E09C013595279520FF0BC081E0E2
:101260000E94BE2A0E94052A0E947C2582E00E94DC
:10127000CA2A79CF959587959595879580FF73CFE5
:101280000E947C2582E00E94BE2A80E0F0CF882365
:1012900031F00E94052A0E947C2583E0E8CF83E09C
:1012A0000E94BE2A60CF03363DE5130709F47EC1D4
:1012B00004369DE5190709F47FC1033FFCE51F07CC
:1012C00041F190F4083D3CE51307E9F0093D9CE548
:1012D000190789F1073DECE51E07B1F506E221EE9D
:1012E00041EE67ED7CE52CC0053FFCE51F07E9F00A
:1012F000B0F0063F3CE5130739F507E225EE46EE70
:1013000066EF7CE51DC007E225EE45EE68ED7CE565
:1013100017C006E221EE40EE63EF7CE511C007E264
:1013200025EE44EE64EF7CE50BC006E221EE42EED2
:1013300065EF7CE505C008E221E045EE69ED7CE55E
:10134000C7010E949C240FCF882309F4DEC21092AB
:10135000C40403308DE5180758F40A3F9CE51907CB
:1013600060F4C80182509C45449708F0B8C205C09B
:101370000136EDE51E0709F0B2C20E94F91E9093F6
:10138000D1048093D0040031FCE51F0709F4CAC0E2
:1013900008F041C008303CE5130709F4A4C0F0F49C
:1013A00004309CE5190709F48CC068F40230FCE5B0
:1013B0001F0709F482C003301C4509F0E7C0809183
:1013C000D0048260E1C006303CE5130709F483C015
:1013D00008F085C08091D0048860D6C00C309CE5B0
:1013E000190709F490C068F40A30FCE51F0709F4F6
:1013F0007EC008F084C00E94052B8091D0048068D4
:10140000C3C00E303CE5130709F481C008F086C064
:101410008091D00494C00C3F9CE5190709F47BC06F
:1014200038F50431FCE51F0709F49AC058F402317D
:101430003CE5130709F47AC008F07EC08091D0041F
:101440008F7BA2C00A3F9CE51907F1F108F03FC06D
:1014500005311C4509F09AC08091D00482FB2227F7
:1014600020F991E0922790FB82F990FB83F98CC0E0
:1014700001152DE5120709F467C050F48091D104DD
:101480000E3F9CE51907C1F108F05BC08D7F65C078
:101490000230FDE51F0709F471C008F46DC0013684
:1014A0001D4509F073C08091D00484FB222720F9E8
:1014B00091E0922790FB84F967C08091D00481600D
:1014C00063C08091D00416C08091D10416C0809171
:1014D000D104826042C08091D004806155C0809167
:1014E000D004806251C08091D00480644DC080914E
:1014F000D0048860846048C0826081602EC0809182
:10150000D0048E7F41C08091D0048D7F3DC08091FA
:10151000D004877F39C08091D10414C08091D00459
:101520008F7E32C08091D0048F7D2EC00E94052B0B
:101530008091D0048F7728C08091D004877F8B7FE3
:1015400023C08D7F8E7F09C08091D104982F909504
:1015500091708E7F892B90FB81F98093D10416C006
:101560000E94052B8091D00487FB222720F991E06F
:10157000922790FB87F908C061E001C060E08EE02F
:1015800090E00E94CB2D02C08093D0046091D004E3
:101590001091D10484E090E00E94CB2D612F82E273
:1015A00090E00E94CB2D0E94052BDDCD882309F40D
:1015B000DACD81E090E011CE882309F4D4CD82E029
:1015C00090E00BCE0736EDE51E0731F4882309F4D1
:1015D000CACD85E090E001CE0736FDE51F0730F467
:1015E000882309F4C0CD84E090E0F7CD08362DE5DE
:1015F000120731F4882309F4B6CD86E090E0EDCDF2
:1016000009363DE5130709F058CE882309F4ABCD20
:1016100087E090E0E2CD00379DE51907A1F488232B
:1016200009F4A1CD8091A40181119DCD83E0809327
:10163000A30181E08093A20163E080E00E94652520
:1016400083EE91E022C00137EDE51E0708F071C07E
:101650000C36FDE51F07E1F008F44CC00E363DE501
:10166000130709F04DC0882309F47DCD8091A401B2
:10167000811179CD81E08093A3018093A20163E081
:1016800080E00E94652589EE91E00E9408186BCDEC
:10169000882309F468CD9091A2018091A401992337
:1016A000A1F0811112C08091A301882381F00E94D2
:1016B0005C2881E08093A40160919E0170919F015C
:1016C0008091A0019091A1010DC081114CCD81E0CC
:1016D0008093A40160919A0170919B0180919C017B
:1016E00090919D014FEF5FEF0E94341680E00E94C1
:1016F0003A2839CD882309F436CD89E090E06DCDC4
:101700000F369DE5190709F0D8CD882309F42BCDB4
:101710008091A401811127CD82E08093A30181E013
:101720008093A20163E080E00E94652586EE91E04F
:10173000ACCF0237EDE51E0741F4882309F413CD41
:101740000E94052A0E947C250ECD0237FDE51F0769
:10175000A0F4882309F407CD8091A401811103CD61
:1017600084E08093A30181E08093A20163E080E0A4
:101770000E94652580EE91E088CF03372DE51207A2
:1017800009F05DC0882309F4EECC8091A401811199
:10179000EACC8091A201811123C080919A0190919D
:1017A0009B01A0919C01B0919D01BC01CD0190587D
:1017B00060939A0170939B0180939C0190939D018B
:1017C00040E050E00E9434160E947C25E0E3F4E003
:1017D00001900020E9F73197E053F44062E028C01F
:1017E0008091960190919701A0919801B0919901F3
:1017F000BC01CD019058609396017093970180933E
:1018000098019093990140E050E00E94341663E003
:1018100081E00E9465258AEC91E00E940818E0E3CF
:10182000F4E001900020E9F73197E053F44063E0E1
:1018300085E18E1B0E9465250E94EE1794CC04372B
:101840003DE5130709F039CD882309F48CCC90913C
:10185000A2018091A40191110FC0811184CC8091CB
:10186000A301811180CC80909A0190909B01A0905F
:101870009C01B0909D0111C0811175CC8091A30194
:10188000882309F470CC0E945C2880909E0190907F
:101890009F01A090A001B090A10120E030E0A9013B
:1018A000C501B4010E94CB2F87FF07C081E00E94D1
:1018B0003A2881E08093A40156CCC501B4010E946E
:1018C000433060939E0170939F018093A001909399
:1018D000A1014FEF5FEF0E94341680E0E8CF8091C6
:1018E0009F0406319CE5190709F58A7A91E009F40D
:1018F00090E09093A501882311F065E301C069E2AF
:1019000084E494E00E942F240EC006311C4509F0A7
:10191000D2C08091A501882309F4FEC265E384E466
:1019200094E00E9407240E94851F1DCC8272093C0E
:101930009CE5190709F478C0F0F4053CFCE51F07A5
:1019400009F463C060F4033C3CE5130709F453C099
:1019500008F056C0023CECE51E0751F17BC0073C85
:10196000FCE51F0709F456C008F059C04BE25CE2E1
:1019700062E27CE267C00D3C3CE5130709F465C0F8
:1019800060F40B3CECE51E0709F453C008F056C0A8
:101990004EEF5BE262EF7BE255C0063D2CE512079D
:1019A00008F4E1CB0D353DE5130709F4DCCB52C05B
:1019B0008091B70480FF19C08E7F8093B704609137
:1019C000B7047091B8048091B9049091BA040E9450
:1019D0003F2C8FEF90E7E2E081509040E040E1F74C
:1019E00000C000000E945426BECB81608093B704E3
:1019F00061E086952CC04FE65CE268E77CE222C09D
:101A000048E75CE26FE67CE21DC042E25CE26BE22A
:101A10007CE218C04AE05CE266E17CE213C046E189
:101A20005CE26AE07CE20EC042EF5BE26EEF7BE2DA
:101A300009C044E353E265E473E204C045E453E2C1
:101A400064E373E20E944E268ECB61E081E00E9447
:101A5000512C89CB0A35FDE51F0741F150F40115E2
:101A60003CE51307A9F00E3D1C4529F50E94151F02
:101A70007ACB0B359DE51907D9F00C351D45D9F406
:101A80008091D10482FB882780F991E0892711C0D9
:101A90000E94052BFFEF24E33CE0F1502040304052
:101AA000E1F700C000000E9480235DCB81E001C00F
:101AB00080E00E94CB1FF701828100811181882381
:101AC00049F0C8010E94322AD82E682FC8010E940E
:101AD0008E2A04C0C8010E94612AD82EB8018D2D1B
:101AE0000E94FB250E94701D8C01982EF701B28088
:101AF000A580A2949FE0A92280919C04877099F010
:101B0000BB2089F0812F807F803421F080E2800F1C
:101B1000883048F082E00E94E51F80919C04877025
:101B2000DD24D3948111D12CC12EC2948FE0C82220
:101B30008C2D90E08C30910508F0B3C1FC01EA5A7D
:101B4000FF4F0C94D730812F807F1F70882311F0B6
:101B50001295107FBB20B9F0112309F48EC180E2E9
:101B6000800F883010F0911006C080919F04182BD0
:101B700010939F0405C080919E04182B10939E041F
:101B80000E94851F7AC1802F0E942F2B112309F4F8
:101B900088C1005E1095083010F0911006C0809149
:101BA0009F04182310939F0405C080919E0418235E
:101BB00010939E040E94851F74C1812F807F1F7027
:101BC000803211F01295107F992021F0F1E09F16DC
:101BD00011F130C0BB20B1F0AA2081F021E0A212A7
:101BE0000DC08091D10482FD5CC18091A004182BAE
:101BF000181709F456C11093A00453C18091A00492
:101C0000812B10C0AA2021F031E0A31609F449C1AC
:101C10000E947F1F27C0BB2041F085E08A1508F491
:101C200040C1812F0E94252B3CC194E09A1508F4F5
:101C300038C118C0BB2049F0AA2099F3F70185816B
:101C400080FF1BC18F708583ECCFAA2059F0093328
:101C500009F024C1FFEF27EE33E0F150204030407F
:101C6000E1F71AC1812F0E941A2B1BC1812F869583
:101C70008695837019F0813059F013C1BB2019F09B
:101C8000C801937002C080E090E00E947A240FC1E6
:101C9000BB2019F0C801937002C080E090E00E9460
:101CA000642405C1812F8370A9F5B110FEC0402FB7
:101CB000429546954770440F440F802F8F7090E0F7
:101CC0009C01042E01C0220F0A94EAF704FF08C009
:101CD0008FE090E001C0880F4A95EAF7809501C037
:101CE00080E0169516951370123069F088F4909183
:101CF000A104113019F0822B892302C0922B892B69
:101D00000E94D52AD2C0822B9091A1048927F8CFB6
:101D1000822BF6CFBB2019F0812F817001C08695F0
:101D2000882309F4C2C0402F429546954770440F5E
:101D3000440F802F8F7090E09C01042E01C0220F71
:101D40000A94EAF704FF08C08FE090E001C0880F12
:101D50004A95EAF7809501C080E0169516951370B4
:101D6000123059F078F490912402113019F0822B3E
:101D7000892309C0922B892B06C0822B90912402C3
:101D8000892701C0822B0E94BA2A8FC01F70BB20F6
:101D900039F0812F0E94CA2A802F0E94252B85C0EE
:101DA000802F0E941A2B812F0E94BE2A7EC0802F76
:101DB00092EF991659F1991538F0E0EF9E1659F007
:101DC000F1EF9F16F1F055C023EF921631F134EF89
:101DD000931681F14EC0BB2079F084E08A1508F497
:101DE00060C01F7181E090E001C0880F1A95EAF78A
:101DF0009091240289271BC095E09A1508F451C0E0
:101E0000F0CFBB2029F0812F8F7126C0BB20D9F3E2
:101E1000812F8F710E94BE2A44C0BB2039F01F71F0
:101E200081E001C0880F1A95EAF701C080E00E94A6
:101E3000BA2A37C0BB2099F01F71812F0E94CA2A8D
:101E40008091D10482FD07C0E8E01E9FC0011124EB
:101E5000836080939C04812F0E94CA2A22C081E063
:101E60000E94E51FF1E0FA15E0F482E00E94E51F10
:101E700018C0BB2031F0AA2031F2802F0E94612BC4
:101E800010C0AA2029F2893349F42FEF37EE83E0FE
:101E9000215030408040E1F700C00000802F0E94B8
:101EA0002F2B88EF8C0D843010F40E949024DD20BD
:101EB000A9F180919C0480FD31C0F70112828595C3
:101EC000859585950E94CA2AC7010E946507809161
:101ED0009C0485958595859529960FB6F894DEBF67
:101EE0000FBECDBFDF91CF911F910F91FF90EF906B
:101EF000DF90CF90BF90AF909F908F907F906F902A
:101F00005F904F903F900C94BE2A01319FE51907D6
:101F100009F05BC982E023C969E201CD29960FB6B9
:101F2000F894DEBF0FBECDBFDF91CF911F910F910F
:101F3000FF90EF90DF90CF90BF90AF909F908F90E9
:101F40007F906F905F904F903F900895CF93DF9375
:101F5000CDB7DEB7E2970FB6F894DEBF0FBECDBFA8
:101F600084B7877F84BF0FB6F894A89580916000EE
:101F7000886180936000109260000FBE90E080E85E
:101F80000FB6F89480936100909361000FBE85B7FF
:101F9000806885BF85B7806885BF84E19DE19093A7
:101FA0009501809394010E94601B0E947F1B809189
:101FB000E20084608093E200789480911A02882382
:101FC000A1F01091E9001F709091EC00892F8170B1
:101FD00090FD80E8182B1092E9008091E80083FDC5
:101FE0000E944A181F701093E90082E084BD93E0BC
:101FF00095BD9AEF97BD80936E000E9435268111A2
:1020000002C00E94262603E111E0D8018D918D01C6
:102010008F3F11F00E94591DB1E00F311B07A9F746
:102020000FE111E0F80181918F018F3F11F00E94C3
:10203000591DF1E004321F07A9F7E6EAF1E0A9EE25
:10204000B1E011921D9201E0E23BF007D1F70E944E
:102050000A1F811102C00E94151F82E090E00E94B9
:10206000B72D8093DC010E94F91E9093D1048093D8
:10207000D0040E9426221FEF26E741E011502040A5
:102080004040E1F700C000000E9426228091E90153
:1020900080FF08C06FEF7FEF80E090E00E94E92DA5
:1020A0000E94802383E090E00E94B72D0E94D52AF1
:1020B0000E94D2239093B8018093B7011092D90166
:1020C00080E8809325020E948B2C6DE070E08FEFFA
:1020D00091E00E942118892B89F58091D90163E054
:1020E00070E081FD28C08CEF91E00E942118892BBF
:1020F00029F56DE070E08CEE91E00E942118892BAB
:10210000E9F40E94C623DC01CB01805A9541AF4F10
:10211000BF4F8093BC049093BD04A093BE04B093C2
:10212000BF040E947C2581E08093C1048093C00499
:102130001092DA0103C089EF91E0D7CF8091B2010C
:10214000811131C00E940A1F811104C00E94151F15
:102150000E947C2C88E090E00E94BF2D6093B70421
:102160007093B8048093B9049093BA046E7F71F4AD
:102170000E947C2C88E090E00E94BF2D6093B70401
:102180007093B8048093B9049093BA040E94342CDD
:102190008091B70480FF04C060E086950E94512CB6
:1021A00081E08093B20153985B9A52985A9A89B110
:1021B00083FB882780F94A9B02C092E001C090E02F
:1021C000892B8093B5010E947C250E94052A80E01E
:1021D00091E09093C8048093C70400E4602E4424E7
:1021E0004394512CBE016F5F7F4F7B01CE010F9650
:1021F0009CA78BA780911A02853009F045C000E1A9
:1022000012E180911A02853009F03AC080911A02D9
:10221000843029F10E947C251092CB04A8E1B0E023
:102220000FB6F894A895A09360000FBE609260006E
:1022300083B7817F846083BF83B7816083BF7894D5
:10224000889583B78E7F83BF0FB6F894A895809149
:102250006000886180936000109260000FBE8091E2
:102260001902882309F4CDCF0E942622E9EEF1E07D
:102270008191811120C4B1E0E53FFB07C9F7C1CFCF
:102280000E94052B0E9490240E942622A82E8111D4
:102290000E94C623ADEDB1E0E9EEF1E000E010E010
:1022A000302F21919D919227A1F180E0DD24D394DC
:1022B0004D2D492351F189A33AA32D2181E009F441
:1022C00080E08BA30E94D2238160782F9DA38CA3F2
:1022D00049A15AA16BA18DA10E945727F801E35291
:1022E000FE4F8081D826D0828091B501E82FEE0F75
:1022F000EE0FE093B50189B183FB222420F8312C45
:102300004A9B1EC082E090E01DC08F5FDD0C8530CF
:1023100079F60F5F1F4F0C30110509F0C1CF8FEF19
:102320008EA38FA318A60E94D2238160782F9AA72C
:1023300089A74EA15FA168A58AA50E945727D4CF7F
:1023400080E090E0822993298E2B8093B5018F70D5
:10235000E82FF0E0EC5DFE4F90818091B401890F91
:102360008093B40184305CF08091B3018F5F8093DF
:10237000B3018AEA0E94D42BBB24B39401C0B12CD0
:102380008091B4018D3F54F48091B30181508093CA
:10239000B30189EA0E94D42BBB24B3948091B40189
:1023A000082E000C990B64E070E00E94A43080932A
:1023B000B401B1100E94C6238091C104882309F49E
:1023C000A6C160E080E00E9465258091B7019091F0
:1023D000B8010E94B723883B9B4008F044C080911D
:1023E000B601811140C080912E0490912F04885233
:1023F00092409C013E5F2130324028F020E032E0E4
:10240000281B390B02C020E032E060912602709157
:102410002702DC01A85DBD4FAC01280F391F421710
:102420005307E0F4FA01E81BF90BE45FFD4FE49178
:10243000FC91EF1779F0EC93FA0115E0F695E7952A
:102440001A95E1F7820102C0000F111FEA95E2F729
:10245000602B712B4F5F5F4F1196E1CF7093270276
:10246000609326023FC081E08093B60180910A010B
:10247000882321F00E947C2510920A018091240279
:102480000E94FF27813099F058F08230D9F08330D4
:10249000F1F483E294E00E9408188EE194E00DC00C
:1024A00089E594E00E94081881E594E006C089E47B
:1024B00094E00E94081882E494E00E9408180E94A8
:1024C000132810C08BE294E00E9408180BC086E12C
:1024D00094E00E9408188CE094E00E94081881E0C3
:1024E0000E9435258091C104882309F4E5C020911C
:1024F0002602309127022115310509F4DDC08091B3
:10250000DA018111D9C0082F10E06201082E02C043
:10251000CC0CDD1C0A94E2F7A9014C215D21452B6E
:1025200011F48F5FF0CF9091D901980165E0220FEF
:10253000331F6A95E1F790FD12C08295880F80766F
:1025400080930D01220F232F221F330B31952093EF
:102550001001815E80930E011092110112C045E0BE
:10256000369527954A95E1F7220F220F220F2093E7
:102570000D0110921001295F20930E0183E08093DA
:10258000110124E630E047E050E06BE071E088E7BD
:102590000E94422D892B09F08FC08091D90180FDC6
:1025A00022C0A80195E0440F551F9A95E1F7485DB8
:1025B0005D4F04E610E020E230E060E488E70E942E
:1025C000692D892B09F078C00E940F25C094D09402
:1025D0008091260290912702C822D922D092270208
:1025E000C092260269C080E2E9EBF1E0DF011D92B2
:1025F0008A95E9F7F80185E0EE0FFF1F8A95E1F76C
:10260000FEA7EDA708E311E01AAB09AB44E351E0E4
:10261000A9A9BAA98D91BAABA9ABFA019191AF0161
:102620002DA53EA5290F311D8901085D1D4F18AB51
:102630000FA790E087549E4FFC0107E09F01281BE5
:10264000390B842C01C0880C2A95EAF76FA578A96C
:10265000912CDB011D91BD011821202F2919277014
:10266000722E022E000C330BB12F01C0BB0F7A94D7
:10267000EAF77B2E3195219531092770332701C068
:1026800016952A95EAF7712A1081712A708293941F
:1026900018E09112DECF015031960F3F79F669A90B
:1026A0007AA96C53714009F0B3CF04E610E020E240
:1026B00030E049EB51E081CF8091C004882339F1AB
:1026C0000E94C6230091BC041091BD042091BE0459
:1026D0003091BF04DC01CB01801B910BA20BB30B2B
:1026E0008F3F9F4FAF4FBF4790F48091C104882325
:1026F00071F08091C004882351F062E070E081E6BF
:1027000094E00E942118892B11F41092C004A110AA
:1027100001C0B1100E940F250E9490249091DB010E
:10272000891721F00E9490248093DB0180911A0286
:10273000843009F05FCD83E08093E9008091E80068
:1027400082FF58CD8091E80085FF22C00E94B51C11
:1027500081111CC000E210E0BE016F5F7F4F6B0172
:1027600008C08091F100D6018D936D0101501109CF
:1027700069F08091E80085FDF4CF8091E8008B77C7
:102780008093E8000E94B51C882399F391E001C072
:1027900090E08091E8008B778093E800992309F41A
:1027A00029CDE9818E2F90E0FC013197E331F105CD
:1027B00008F059C1EE59FF4F0C94D7301A8289E0C6
:1027C000B3C08A81823009F48CC1833051F08130EA
:1027D00009F049C10E94C6239B838C837D836E834D
:1027E00044C1FE013396A9EEB1E08D9181930BA512
:1027F0001CA50E171F07C9F738C18A81823009F05E
:1028000032C16B817C818D819E810E94DD3086E2A8
:1028100090E024C04C816B818A810E94D5259D83E4
:1028200067C1CD80DE80DC24CD24DC248C810B814B
:102830009A812AE0029F8001112448E7949F000DAD
:10284000111D1124080F111D080F111D6D2DC80138
:1028500087960E94CB2D6C2DC80188960E94CB2DA7
:1028600004C10E94A12501C18A818138B1F050F4D0
:10287000803809F0FAC020E04B816091B904809162
:10288000B8042FC0823849F1833809F0EEC020E047
:102890004091BA046C818B8124C060E08B810E94DE
:1028A000512C9B818091B70491110FC08E7F809332
:1028B000B7046FEF70E782E0615070408040E1F74D
:1028C00000C000000E945426D0C081608093B704ED
:1028D00060E086950E94512CC8C08B818093BB0418
:1028E000C4C00E948A26C1C08A81813899F030F420
:1028F000803809F0BAC08091BA0416C0823891F0CD
:10290000833809F0B2C08091B8048B838091B904F8
:102910008C83ABC08091B70480FF02C0869504C051
:1029200080E002C08091BB048B839FC06091B7049C
:102930007091B8048091B9049091BA040E943F2C20
:1029400094C080E14DC081E08A8389EFEDCF0A8198
:102950001B81102701271027AC80B12C6701C8010B
:10296000895F9D4F96012E193F092A153B0508F0F6
:102970007CC0093FA1E01A0728F40E94B72DF60198
:10298000848303C0D60114961C920F5F1F4FBFEFC4
:10299000CB1ADB0AE4CF0A811B81102701271027FD
:1029A000AC80B12C6701C801895F9D4F96012E193B
:1029B0003F092A153B0508F058C0093FE1E01E0712
:1029C00028F4D60114966C910E94CB2D0F5F1F4FF7
:1029D000BFEFCB1ADB0AE7CF0E94912546C084E007
:1029E0008A8343C00A811B81102701271027AC80EE
:1029F000B12C6701C801879696012E193F092A1547
:102A00003B0598F5003EE1E01E0730F40E94B72D2B
:102A1000D60114968C9302C0F60114820F5F1F4FEB
:102A2000FFEFCF1ADF0AE6CF0A811B8110270127AB
:102A30001027AC80B12C6701C801879696012E192A
:102A40003F092A153B0588F4003E21E0120728F4CF
:102A5000D60114966C910E94CB2D0F5F1F4FBFEFD4
:102A6000CB1ADB0AE9CF8FEF898380911A02843079
:102A700009F0C0CB1091E9001F709091EC00892FF4
:102A8000817090FD80E8182B82E08093E9008091AE
:102A9000E80080FF0CC040E050E060E270E0C70159
:102AA0000E94E81C8091E8008E778093E8001F70F8
:102AB0001093E9009FCB09BD19BD09B400FEFDCFFD
:102AC0008091D8008F7D8093D8008091E000826053
:102AD0008093E0008091E00081FDFCCF0E94052BF7
:102AE00090CB86E290E00E94B72D1B821C821D8253
:102AF0008E83BBCF80911C0287FF11C08091E800BC
:102B000082FD05C080911A028111F8CF11C0809119
:102B1000E8008B770BC080911A02882349F08091DE
:102B2000E80080FFF8CF8091E8008E778093E8007E
:102B30000895982F973068F59093E900981739F029
:102B40007091EC002091ED005091F00003C0242F13
:102B5000762F50E021FD02C09F5FECCF3091EB005B
:102B60003E7F3093EB003091ED003D7F3093ED00E0
:102B70003091EB0031603093EB007093EC002093C8
:102B8000ED005093F0002091EE0027FDE5CF80E0AE
:102B900008958F708093E90081E0089520912202CA
:102BA000309123022617370748F06115710539F473
:102BB0002091E8002E772093E80001C0B901FC01C4
:102BC00020E06115710579F180911A028823F1F1F5
:102BD0008530F1F18091E80083FD3CC08091E800F0
:102BE00082FD2EC08091E80080FFEBCF2091F300A2
:102BF0008091F20090E0922B6115710551F08830C0
:102C0000910538F421912093F100615071090196EA
:102C1000F3CF21E0089709F020E08091E8008E775B
:102C20008093E800CECF2111CFCF0AC080911A0245
:102C3000882361F0853061F08091E80083FD0AC04F
:102C40008091E80082FFF2CF80E0089582E008954D
:102C500083E0089581E00895BC0184E00C9456233C
:102C6000BC0183E00C9456232F923F924F925F92C7
:102C70006F927F928F929F92AF92BF92CF92DF928C
:102C8000EF92FF920F931F93CF93DF9300D000D06A
:102C9000CDB7DEB76B017C015C834B8346305105B9
:102CA00024F025E030E03C832B8320E030E0A901D4
:102CB000C701B6010E946C2E87FF0CC0F7FAF09492
:102CC000F7F8F0948DE28093300451E3252E54E020
:102CD000352E04C040E3242E44E0342E8B819C81A9
:102CE00097FF3FC020E030E040E85FE3C701B60156
:102CF0000E946C2E87FDBFC020E030E040E251E42E
:102D0000C701B6010E946C2E87FDB8C020E030E0FC
:102D100048EC52E4C701B6010E946C2E87FDB1C099
:102D200020E030E04AE754E4C701B6010E946C2E6F
:102D300087FDAAC020E030E44CE156E4C701B601AB
:102D40000E946C2E87FDA5C020E030E543EC57E4DF
:102D5000C701B6010E946C2E87FDA0C01C821B8299
:102D600016C0EB81FC81EF2B91F0EB81FC81EE0F23
:102D7000FF1FEE0FFF1FE55BFE4F20813181428177
:102D80005381C701B6010E94002E6B017C01C7016F
:102D9000B6010E94E32E4B015C01611571058105AE
:102DA000910539F481010F5F1F4F80E3F1018083AA
:102DB00026C081012AE0422E512C612C712C0F5F1C
:102DC0001F4F9801215031093A832983A3019201B1
:102DD0000E94B830605DE981FA816083B901CA015F
:102DE000611571058105910551F7F101D801EA17C7
:102DF000FB0728F48E9190819C938193F8CF2B81CF
:102E00003C81232B09F44FC0C501B4010E941B2F44
:102E10009B01AC01C701B6010E94FF2D78013FEF75
:102E2000E31AF30A2EE2F801208367010B811C816B
:102E300001501109D8F020E030E040E251E40E9456
:102E4000D02F4B015C010E94EA2E80E3860FF60131
:102E500081936F0170E080E090E00E941B2F9B0146
:102E6000AC01C501B4010E94FF2DE2CF0B811C8192
:102E70000E0D1F1D18C026E030E008C085E090E070
:102E80000AC0E4E0F0E00CC023E030E03C832B8398
:102E90006CCF82E090E09C838B8367CFE1E0F0E031
:102EA000FC83EB8362CFF801108280E394E00F9003
:102EB0000F900F900F90DF91CF911F910F91FF9086
:102EC000EF90DF90CF90BF90AF909F908F907F90CA
:102ED0006F905F904F903F902F900895CF93DF9326
:102EE0008A3011F481E003C08D3029F480E0DF9155
:102EF000CF910C943525682F80912E0490912F044A
:102F000026E0FC01A8E2B4E001900D922A95E1F7D9
:102F1000603E30F026E0FC0111922A95E9F70AC0E4
:102F2000F6E06F9FB001112465537A4F46E050E000
:102F30000E94AE2DC0912E04D0912F0446E050E0A7
:102F4000BE0188E294E00E940631892B49F19E017E
:102F500028523240A90185E0569547958A95E1F7B8
:102F600081E090E0BC0102C0660F771F4A95E2F74E
:102F70004091260250912702462B572B2B5F3F4F43
:102F800065E0369527956A95E1F702C0880F991F8D
:102F90002A95E2F7842B952B9093270280932602A3
:102FA0009E012252324040912502642F70E0C901F7
:102FB0000E949A2D481B463010F4240F311D211514
:102FC00082E0380710F020E030E0285D3D4F30937C
:102FD0002F0420932E04DF91CF9108950F931F9318
:102FE000CF93DF93C0E3D4E009900020E9F7219765
:102FF00000E314E00C171D0730F4F80181918F01F4
:103000000E946E17F7CFDF91CF911F910F91089516
:10301000CF93DF93EC01FE018491882321F00E947D
:103020006E172196F8CFDF91CF91089580912402F9
:10303000982F9670963011F4886001C0877F0C94A9
:10304000BA2AEF92FF920F931F93CF93DF93EC0175
:103050007B0164E670E088E70E94912C8C01EC0E05
:10306000FD1ECE15DF0561F017FD0AC0FE0184913B
:1030700064E670E00E94122D8C012196892B89F361
:103080000E94962DC801DF91CF911F910F91FF9063
:10309000EF9008951F93CF93DF93CDB7DEB7AA9734
:1030A0000FB6F894DEBF0FBECDBFECE1F2E0809129
:1030B000F100819342E0E432F407C9F780911D02E8
:1030C000833009F462C030F4813071F0823009F449
:1030D0009CC0B3C08A3009F488C08B3009F46DC03D
:1030E000893009F0AAC020C080911C02813A09F001
:1030F000A4C08091E800877F8093E800809120023F
:1031000090912102892B21F460E288EF91E003C0C5
:1031100060E080E090E070E00E94CE158091E800D1
:103120008B778093E80089C080911C02813209F07E
:1031300084C08091200290912102009719F002979B
:1031400009F07BC08091E800877F8093E800809140
:10315000E80082FD05C080911A028111F8CF6DC090
:103160002091F3008091F20090E0922B029729F4D5
:103170008091F1008B7F813021F48091F100809368
:10318000F7018091E8008B7754C080911C02813A4E
:1031900009F053C08091200290912102892B09F0FF
:1031A0004CC08091E800877F8093E8008091E80020
:1031B00080FFFCCF8091120137C080911C028132C8
:1031C000E1F58091200290912102892BB1F5809147
:1031D000E800877F8093E8000E947A1580911E02A4
:1031E000809312010E94052B28C080911C0281321D
:1031F00021F58091E800877F8093E8000E947A158E
:1032000080911F028093F60118C080911C02813AC0
:10321000A1F48091E800877F8093E8008091E80026
:1032200080FFFCCF8091F6018093F1008091E8004F
:103230008E778093E8000E947A158091E80083FFE2
:10324000DDC180911C0290911D02492F50E04A304F
:10325000510508F0D3C1FA01EB58FF4F0C94D73059
:10326000803821F0823809F0C9C108C08091180265
:1032700090911902992389F082600FC080912002F9
:103280008F70873008F0BAC18093E9008091EB001D
:1032900085FB882780F91092E9009091E800977FDC
:1032A0009093E8008093F1001092F10070C1282FF4
:1032B0002D7F09F0A3C1882319F0823061F09EC1EF
:1032C00080911E02813009F099C1933009F080E0AD
:1032D000809319022EC080911E0281112AC0809114
:1032E00020028F702FEF280F263008F087C18093BF
:1032F000E9002091EB0020FF1CC0933021F4809165
:10330000EB00806214C09091EB0090619093EB0011
:1033100021E030E0A90102C0440F551F8A95E2F771
:103320004093EA001092EA008091EB00886080935D
:10333000EB001092E9008091E800877F8093E8001D
:103340000E947A155BC1811159C110911E021F772D
:103350008091E3008078812B8093E3008091E800E6
:10336000877F8093E8000E947A158091E80080FFB3
:10337000FCCF8091E30080688093E300111102C0CC
:1033800082E001C083E080931A0238C18058823005
:1033900008F034C120911E0230911F022C3D53E0F1
:1033A000350779F583E08A838AE289834FB7F894F9
:1033B000DE01139620E03EE051E2E32FF0E050936F
:1033C0005700E49120FF03C0E295EF703F5FEF707C
:1033D0008E2F90E0EA3010F0C79601C0C0968D9312
:1033E0009D932F5F243149F74FBF8091E800877F7D
:1033F0008093E8006AE270E0CE0101960E94CE154B
:10340000B4C08091200290912102432F5527433070
:103410005105A9F068F44130510509F4FEC042306D
:10342000510509F0EBC08BE590E0E2E3F5E04BC01D
:103430004132510529F14232510589F1DFC0C901FC
:10344000992781309105A1F058F0029709F0D6C074
:10345000EFE9F5E0E4918E2F90E0EFE9F5E030C080
:10346000E7ECF5E0E4918E2F90E0E7ECF5E028C082
:10347000E5EBF5E0E4918E2F90E0E5EBF5E020C080
:103480008330910508F0BAC0880F991FFC01EB5BEF
:10349000FE4F0190F081E02D89E090E014C0833070
:1034A000910508F0ABC0FC01EE0FFF1FE15CFE4F81
:1034B0000190F081E02DDC01A45CBE4F8C9190E086
:1034C000009709F49BC02091E800277F2093E80033
:1034D00020912202309123022817390708F4C901EC
:1034E00040E0009789F120911A02222309F43DC09F
:1034F0002530D9F12091E80023FD37C02091E80064
:1035000022FD2FC02091E80020FFEBCF4091F30077
:103510002091F20030E0342B009759F0283031052B
:1035200040F444914093F100319601972F5F3F4F53
:10353000F3CF41E02830310509F040E02091E80068
:103540002E772093E800CDCF4111CDCF0AC08091D6
:103550001A02882351F0853041F08091E80083FD04
:1035600004C08091E80082FFF2CF8091E8008B7761
:103570008093E80043C0803809F040C08091E800A3
:10358000877F8093E80080911B028093F1008091F7
:10359000E8008E77D3CE811131C080911E029091C8
:1035A0001F029927029754F58091E800877F809346
:1035B000E80010911E0210931B020E947A1511114F
:1035C00006C08091E30087FD02C081E001C084E075
:1035D00080931A0242E061EC81E00E94991542E278
:1035E00061EC84E00E94991542E261EC82E00E9465
:1035F000991542E260EC83E00E9499158091E80001
:1036000083FF10C08091E800877F8093E80080915D
:10361000EB0080628093EB0005C082E190E0EDE872
:10362000F5E051CFAA960FB6F894DEBF0FBECDBF1E
:10363000DF91CF911F9108951F920F920FB60F92B5
:1036400011242F933F934F935F936F937F938F93A7
:103650009F93AF93BF93CF93DF93EF93FF93C0916B
:10366000E900CF708091EC00D82FD17080FDD0E8B8
:103670001092E9008091F000877F8093F0007894A9
:103680000E944A181092E9008091F00088608093AF
:10369000F000CD2BCF70C093E900FF91EF91DF9147
:1036A000CF91BF91AF919F918F917F916F915F91DA
:1036B0004F913F912F910F900FBE0F901F90189533
:1036C000E8EDF0E080818E7F80831092E20010921E
:1036D000DA001092E100A0EEB0E08C9181608C9352
:1036E00080818F77808319BCA7EDB0E08C918E7FAD
:1036F0008C9380818F7E80831092F5010895CF9204
:10370000DF92EF92FF920F931F93CF93DF93C8ED59
:10371000D0E088818F7E8883E7EDF0E08081816052
:10372000808384E082BF81E08093F50188818E7F71
:10373000888302EE10E0F80110821092DA0081EE28
:10374000C82ED12CF601108288818F7788838881DA
:103750008068888388818F7D888319BC10921A02C3
:1037600010921B02109219021092180290EEE92E8C
:10377000F12CF70180818B7F808388818160888331
:1037800042E060E080E00E949915F60180818E7F22
:103790008083F8018081816080838081886080835C
:1037A000F70180818E7F8083888180618883DF91AB
:1037B000CF911F910F91FF90EF90DF90CF900895E0
:1037C0001F920F920FB60F9211242F933F934F9396
:1037D0005F936F937F938F939F93AF93BF93EF9379
:1037E000FF938091E10082FF09C08091E20082FF97
:1037F00005C08091E1008B7F8093E1008091DA0029
:1038000080FF2AC08091D80080FF26C08091DA0016
:103810008E7F8093DA008091D90080FF18C080E10C
:1038200089BD82E189BD09B400FEFDCF81E08093AE
:103830001A028091F50181110FC00E94601B0E9445
:103840007F1B8091E20084608093E20005C019BC78
:1038500010921A021092F5018091E10080FF17C0CA
:103860008091E20080FF13C08091E2008E7F809300
:10387000E2008091E20080618093E2008091D800B4
:1038800080628093D80019BC85E080931A028091F1
:10389000E10084FF2EC08091E20084FF2AC080E115
:1038A00089BD82E189BD09B400FEFDCF8091D800B9
:1038B0008F7D8093D8008091E1008F7E8093E1001E
:1038C0008091E2008F7E8093E2008091E20081602F
:1038D0008093E20080911B02882311F084E007C0EE
:1038E0008091E30087FD02C081E001C083E0809306
:1038F0001A028091E10083FF27C08091E20083FFDC
:1039000023C08091E100877F8093E10082E0809373
:103910001A0210921B028091E1008E7F8093E100D9
:103920008091E2008E7F8093E2008091E2008061CE
:103930008093E20042E060E080E00E94991580916F
:10394000F00088608093F000FF91EF91BF91AF91FC
:103950009F918F917F916F915F914F913F912F91A7
:103960000F900FBE0F901F9018952091E40030919A
:10397000E50095E64091EC00842F817040FF23C064
:103980008091E80080FD1DC080911A02882399F083
:10399000853099F08091EB0085FD11C04091E400E5
:1039A0005091E5002417350729F3915011F09A0141
:1039B000E1CF84E0089582E0089583E0089581E0F6
:1039C000089580E008954091E80042FFDDCF08951A
:1039D000EF92FF920F931F93CF93DF937C018B01A4
:1039E0000E94B51C811119C0E70101151105A1F054
:1039F0008091E80085FD0AC08091E8008E77809371
:103A0000E8000E94B51C882381F307C08991809348
:103A1000F10001501109E9CF80E0DF91CF911F91B2
:103A20000F91FF90EF90089580E008959091D00459
:103A300092FF0DC0282F2871283019F4877F8460E9
:103A400006C0282F2471243011F48B7F886093FFE7
:103A50000DC0282F2871283119F4877E846106C093
:103A6000282F2471243111F48B7E88612091D10498
:103A700020FF0DC0382F3871383019F4877F8160EE
:103A800006C0382F3171313011F48E7F886021FFEC
:103A90000DC0282F2871283119F4877E816106C056
:103AA000282F2171213111F48E7E886194FD877E4B
:103AB0000895F894E82FE295EF70F0E031A1282FF7
:103AC0002F7081E090E001C0880F2A95EAF7982FC7
:103AD0009095932391A392A1892B82A37894089522
:103AE000CF93DF938238910569F1B0F4813391056A
:103AF00009F46FC048F48932910509F465C08A322F
:103B0000910509F46BC08AC08533910509F457C04B
:103B100089339105B9F082C0833E910571F138F483
:103B2000803E9105B1F0823E910511F177C0863E4D
:103B30009105B9F1873E9105C9F1843E910509F0DF
:103B40006DC024C02091D00420FD53C021FD51C080
:103B500065C08091D00480FD46C08091D10480FF73
:103B600048C08091D00484FD3FC183EE90E03EC107
:103B70008091D00482FF3AC0F4CF8091D00482FDBE
:103B800035C08091D10480FD34C0EBCF8091D10449
:103B900081FF35C08091D00484FD26C187EE90E07E
:103BA00025C18091D00483FF27C0F4CF8091D00439
:103BB00083FD22C08091D10481FD21C0EBCF809193
:103BC000D00485FD1FC021C08091D00485FD1DC09B
:103BD00019C08091D00486FD1BC01DC08091D00407
:103BE00086FD19C015C089E390E000C182EE90E027
:103BF000FDC080EE90E0FAC086EE90E0F7C084EE63
:103C000090E0F4C089E290E0F1C085E390E0EEC07E
:103C10008AE290E0EBC081E390E0E8C0811532E5F4
:103C2000930708F069C0811541E5940728F0982FA3
:103C30008827816F906ADAC0883E910568F5803EDA
:103C4000910508F0D3C0883A9105B8F4853A9105FA
:103C500048F0855AE82FF0E0ED59FE4F808190E062
:103C60009064C4C08130910509F4BBC008F4BCC0A5
:103C70008430910508F4B8C0B9C08F3B910508F0B5
:103C8000B3C0885AE82FF0E0EE0FFF1FEA59FE4F4D
:103C9000808191819464AAC0811520E59207F0F09B
:103CA0009C0174E0369527957A95E1F7922F9370F1
:103CB000482F437021E030E002C0220F331F4A95A5
:103CC000E2F73C68392B8F70982F9695969540E2D5
:103CD000949FC0011124822B932B88C0811530E45E
:103CE000930718F09F70906A81C09C013A95211546
:103CF0003F4108F47BC078C0EC01C11586E5D807C8
:103D0000E8F5C11525E5D20748F08C2F0E94161D55
:103D10008F7190E0982F8827906268C0C11534E5B4
:103D2000D30728F09C2F8827846F906A5FC0AE016C
:103D3000437055272C2F26952695C115D34578F429
:103D400081E090E002C0880F991F4A95E2F740E2B7
:103D5000249F90011124822B932B9C6847C081E003
:103D600090E002C0880F991F4A95E2F740E2249F35
:103D700090011124822B932B9A6838C0C1152AE533
:103D8000D207F8F4C11539E5D30790F08C2F8F7066
:103D90000E94161D94E0D695C7959A95E1F7CF70CD
:103DA000D0E0DC2FCC27D0699E01282BC9011EC092
:103DB000C11548E5D407C0F09C2F8827806F906A12
:103DC00015C0CE0190568115904270F48D2F8F71E1
:103DD0000E94161D282F2F71CE0199279062922BD9
:103DE00005C081E090E002C080E090E0DF91CF91DB
:103DF0000895CF9384E090E00E94B72DC82F82E20F
:103E000090E00E94B72D2C2F30E0A901582BCA0159
:103E1000CF91089580E090E00E94C52D893E9E4F8D
:103E200011F40C94352680E0089569EE7EEF80E071
:103E300090E00E94E92D60E082E090E00E94CB2DAE
:103E400060E083E090E00E94CB2D1092A10460E03E
:103E500084E090E00E94CB2D60E082E290E00E943E
:103E6000CB2D60E085E090E00E94CB2D60E086E005
:103E700090E00E94CB2D6FEF87E090E00E94CB2D69
:103E800040E050E0BA0188E090E00E94DD2D60E063
:103E90008DE090E00E94CB2D40E050E0BA0188E137
:103EA00090E00E94DD2D60E087E190E00E94CB2D44
:103EB00040E050E0BA018CE190E00E94DD2D60E02E
:103EC00070E080E290E00E94E92D40E050E0BA010D
:103ED00088E190E00E94DD2D80E00E9408260E948B
:103EE000262640E050E0BA018FE090E00E94DD2DF0
:103EF00040E050E0BA0183E190E00C94DD2D809128
:103F0000A00481111092A004089590919F048091C3
:103F10009E04892B20919D04982F922B909344040A
:103F20008091A0048823D9F0892B80934404809148
:103F30001201882331F08091D00487FF02C08EE106
:103F400001C086E0E6E4F4E090E0815028F02191A1
:103F50002223D9F39F5FF9CF91110E947F1FE09137
:103F6000C704F091C8043097A9F08091120188230A
:103F700059F08091D00487FF07C08091440480935A
:103F8000450485E0809344040280F381E02D84E4BD
:103F900094E009940895CF93C091D104C2FB99276E
:103FA00090F9981781F080FBC2F9C093D104609119
:103FB000D00484E090E00E94CB2D6C2F82E290E050
:103FC000CF910C94CB2DCF91089520919C04809596
:103FD000822380939C04982F977041F430E0482FFF
:103FE000082E000C550B2417350721F49091D104AD
:103FF00092FF07C08595859585950E94BE2A1092EF
:104000009C04089580919B0490916A04891719F08B
:104010008F5F8770FBCF08950F931F93CF93DF932C
:104020008091690482958F7009F05DC0809166046B
:10403000882309F458C080919B0410916A04609110
:10404000640470916504C0916704D091680491E0A4
:104050006F3F09F090E0292F06E0811709F443C073
:10406000209721F07F3F21F030E003C031E001C014
:10407000322F90E030FD34C0089FF001099FF00D11
:104080001124DF01A559BB4F11963C9111973713AD
:1040900027C03C91361324C012963C9112973111DF
:1040A0001FC013964D915C9114974C1B5D0B483CBF
:1040B0005105B0F4809169048F7080618093690428
:1040C000E059FB4F80818F708061808384E694E0AB
:1040D0000E946507DF91CF911F910F910C940220F0
:1040E00001968770BACFDF91CF911F910F910895FC
:1040F000CF93DF93EC010E94322ABE010E94FB2580
:104100000E94701DDF91CF9108959F92AF92BF9250
:10411000CF92DF92EF92FF920F931F93CF93DF9393
:10412000CDB7DEB761970FB6F894DEBF0FBECDBF37
:104130008C0185E0F801DE011D9601900D928A95B3
:10414000E1F7F801E2809091640460916504409188
:104150006704509168044115510531F06F3F31F407
:1041600081E09F3F19F403C081E001C080E0F82F97
:10417000F1709F2E80FD1AC1F80130812181C3802A
:10418000D48084E6A82E84E0B82EF0906604F60170
:10419000E41BF50BFF2009F4C6C080916904E83CDC
:1041A000F10508F091C0482F407F09F050C062131C
:1041B00011C093130FC0FE2CE1100CC08F708061F2
:1041C00080936904C5010E94650780916904F80124
:1041D000858329C1CD2831F02F3F31F481E03F3F65
:1041E00019F403C081E001C080E080FD03C081E0DC
:1041F0008E2502C080E090E0F82FF170FF2E80FF46
:104200001CC080919B0440916A0456E0841709F415
:10421000E8C090E0589FF001599FF00D1124E55936
:10422000FB4F6181261306C06081631303C0628166
:10423000E61203C001968770E9CFFE2CEE2009F448
:10424000F2C08091690481608093690449C062135F
:1042500006C0931304C0E11002C0F80186C0C80173
:104260000E94D92A882351F1EE2041F1209169045E
:10427000822F82958F7090E0029774F08091640491
:104280009091650498878F831986DB86CA862C8770
:10429000CE0107960E94650786E0F801A4E6B4E027
:1042A00001900D928A95E1F70E940C200AC06217D6
:1042B000C9F0C8010E94D92A81111EC0C8010E94FC
:1042C0006507FF24F394AFC0482F407F81F784E651
:1042D00094E00E94650786E0F50111928A95E9F75E
:1042E000F12CA1C09313E5CFE110E3CFF801858352
:1042F000C8010E94650754C0EE2001F320916904B3
:10430000822F82958F7090E0029734F2809164043E
:10431000909165049A8389831B82DD82CC822E83EF
:10432000CE010196B7CFE83CF105D0F5FE2CEE208A
:1043300029F2621327C0931325C02091690420FD40
:1043400018C0822F82958F70482F50E0411551057B
:1043500081F0F80125834F30510541F08F5F982F90
:104360009295907F822F8F70892B8583C8010E9440
:10437000650786E0F801A4E6B4E001900D928A9505
:10438000E1F751C0C8010E94D92A811185CF8091DF
:104390006904816080936904C8010E94650743C075
:1043A00086E0F50111928A95E9F73DC0EE2009F407
:1043B00085CFC8010E94D92AF82E882309F47ECF20
:1043C00086E0F801A4E6B4E001900D928A95E1F749
:1043D00080916404909165040E9478200E940C20D2
:1043E00022C03D872E878D859E850E947820292FAB
:1043F00022952F70223028F49F7039F0811105C06A
:104400000BC0243028F49F7049F4805E883020F07F
:10441000C8010E9465079F2CF92C05C0F801958101
:10442000907F99F7F9CF8F2D61960FB6F894DEBF84
:104430000FBECDBFDF91CF911F910F91FF90EF90F5
:10444000DF90CF90BF90AF909F9008957F928F9212
:104450009F92AF92BF92CF92DF92EF92FF920F9313
:104460001F93CF93DF93CDB7DEB72C970FB6F89499
:10447000DEBF0FBECDBFAE014F5F5F4F7A018CE054
:10448000DA011D928A95E9F703E111E06A018FE1F3
:10449000882E81E0982EAA24A394B12CF801808163
:1044A0008F3F09F448C0F894E82FE295EF70F0E0F0
:1044B00021A18F70A50102C0440F551F8A95E2F714
:1044C000CA01922F982B91A392A18095892382A350
:1044D000789400C0EFE1F1E020E030E0712C8191B0
:1044E0008F3FB9F0A82FA295AF70B0E090964C9195
:1044F00050E08F70DA0102C0B595A7958A95E2F772
:10450000A0FD07C08A2D022E01C0880F0A94EAF789
:1045100001C080E0782A2F5F3F4F25303105F9F642
:10452000F80180818F3F11F00E94591DF0EAFA9541
:10453000F1F7D6017C920F5F1F4FBFEFCB1ADB0A5A
:104540008016910609F0AACF4CE050E0B70186EA48
:1045500091E00E94063111E0009709F410E0892BE8
:1045600089F08CE0F701A6EAB1E001900D928A95FE
:10457000E1F781E08093A4040E94D2239093A304E6
:104580008093A2048091A4048823A1F08091A204C6
:104590009091A3040E94B723059760F0E6EAF1E04A
:1045A000A9EEB1E081918D9341E0E23BF407D1F7B0
:1045B0001092A404812F2C960FB6F894DEBF0FBE84
:1045C000CDBFDF91CF911F910F91FF90EF90DF90C2
:1045D000CF90BF90AF909F908F907F900895089557
:1045E0008091F7010895CF93DF9320911201222348
:1045F00039F02091D00427FF03C060E224E002C01C
:1046000068E021E02093E9002FEF3091E80021508D
:1046100035FD06C035ED3A95F1F700002111F5CFD3
:104620002091E80025FF1DC0EC018091120181114D
:1046300005C040E050E068E070E003C070E040E09A
:1046400050E0CE010E94E81C8091E8008E778093B4
:10465000E80080E2FE01A8EFB1E001900D928A959A
:10466000E1F7DF91CF9108958091BB04882319F081
:1046700081508093BB046091B7047091B80480911D
:10468000B9049091BA040C943F2C8091BB04833000
:1046900018F48F5F8093BB046091B7047091B804E5
:1046A0008091B9049091BA040C943F2C90911A0215
:1046B000943029F58093D2047093D4046093D3048A
:1046C0009093E9008FEF9091E800815095FD06C02E
:1046D00095ED9A95F1F700008111F5CF8091E800F2
:1046E00085FF0DC040E050E063E070E082ED94E0B3
:1046F0000E94E81C8091E8008E778093E80008957E
:1047000087E797E790930108809300089AE088E193
:104710000FB6F894A895809360000FBE9093600048
:10472000FFCF78941F920F920FB60F9211248F93A0
:104730009F93AF93BF938091CC049091CD04A091AF
:10474000CE04B091CF040196A11DB11D8093CC047D
:104750009093CD04A093CE04B093CF04BF91AF91BA
:104760009F918F910F900FBE0F901F9018959C01F5
:104770004FB7F8948091CC049091CD04A091CE04D1
:10478000B091CF044FBF821B930B08952FB7F894BD
:104790006091CC047091CD048091CE049091CF04AF
:1047A0002FBF08952FB7F8948091CC049091CD0439
:1047B000A091CE04B091CF042FBF08951F920F9205
:1047C0000FB60F9211248F939F93AF93BF93809155
:1047D000CB04811113C08091CC049091CD04A091A1
:1047E000CE04B091CF044196A11DB11D8093CC049D
:1047F0009093CD04A093CE04B093CF04BF91AF911A
:104800009F918F910F900FBE0F901F901895209140
:1048100012012223C9F02091D00427FF15C0262FB2
:104820002695269526952E31C8F4FC01E20FF11D40
:10483000677081E090E001C0880F6A95EAF7809583
:104840009281892382830895FC0106962281621356
:1048500001C012823196E817F907C1F70895209137
:1048600012012223C1F02091D00427FF14C0262F6B
:104870002695269526952E3130F5FC01E20FF11D87
:10488000677081E090E001C0880F6A95EAF7928135
:10489000892B82830895FC0132962FEF30E04191FD
:1048A000641789F02F3F19F4411101C0232F3F5F96
:1048B0003630A9F72F3F39F0FC01E20FF11D27FD3B
:1048C000FA956283089508952091C9043091CA042D
:1048D0002817390771F09093CA048093C904E091B6
:1048E000C704F091C804309721F00084F185E02DD1
:1048F000099408952091C5043091C60428173907FA
:1049000071F09093C6048093C504E091C704F091C0
:10491000C804309721F00680F781E02D09940895AE
:10492000E091C704F091C804309721F00190F08124
:10493000E02D099480E008950F931F93CF93DF93A8
:10494000C42FD22FFC0182818823C9F04093C40474
:104950000E94D2239093C3048093C20480E28C0F00
:10496000883008F057C0C77081E001C0880FCA9531
:10497000EAF7DF91CF911F910F910C94252B809135
:10498000C404481330C08091C2049091C3040E94B3
:10499000B723883C910538F510E21D0FCD17B9F00B
:1049A00080E28C0F883040F4C77081E001C0880F2E
:1049B000CA95EAF70E941A2B183028F581E09D2F3E
:1049C000977001C0880F9A95EAF70E94252B802FD7
:1049D0000E94D42B1830F0F4D77081E001C0880F0A
:1049E000DA95EAF70AC080E28C0F883098F4C77035
:1049F00081E001C0880FCA95EAF7DF91CF911F913E
:104A00000F910C941A2B802FDF91CF911F910F9152
:104A10000C94D42BDF91CF911F910F910895809129
:104A2000C1048823F9F00E94C623DC01CB01805A1F
:104A30009541AF4FBF4F8093BC049093BD04A093AA
:104A4000BE04B093BF048091C00481110BC062E02A
:104A500070E08BEE9DE00E942118892B19F481E013
:104A60008093C0048091C0040895CF93E82F2091D3
:104A70002E0430912F042852324040912502642F99
:104A800070E0C9010E949A2D481B842FEE2351F03B
:104A900066E00E949830C82FC150A8F080E20E94C2
:104AA0006E17FACFA901480F511D4115524018F059
:104AB00080E020E030E0280F311D285D3D4F30932D
:104AC0002F0420932E04CF9108952091250236E0E3
:104AD000839FC0011124629F800D911D11248115B7
:104AE00022E0920714F080E090E0885D9D4F909363
:104AF0002F0480932E040895E8E2F2E080E092E033
:104B0000DF019C011D9221503040E1F7F0932F040A
:104B1000E0932E048FEF9FEF90932702809326025D
:104B20000895CF93DF93C7E0D2E060E0CE010E940A
:104B3000CB2D2196C11584E0D807B9F7DF91CF912D
:104B40000895CF92DF92EF92FF920F931F93CF932E
:104B5000DF93C0E0D0E08E0108581F4F6E018AE05D
:104B6000C80ED11CFE01E55FF34FE590F4906F2D68
:104B7000CE0187960E94CB2D6E2DCE0188960E9485
:104B8000CB2D2296CC15DD0569F70C171D0731F7E3
:104B9000E801003E1140F9F6DF91CF911F910F918E
:104BA000FF90EF90DF90CF9008950F931F93CF93D6
:104BB000DF93C42FD0E0CC0FDD1F2AE0629FC00D31
:104BC000D11D112438E7839FC00DD11D1124CE01C2
:104BD00087960E94B72D082F10E0102F0027CE01D6
:104BE00088960E94B72D9801282BC901DF91CF919B
:104BF0001F910F910895462F843038F47C3028F4AB
:104C0000653018F4672F0C94D52580E090E0089566
:104C1000CF93C82F811102C06FEF01C061E283E220
:104C200090E00E94CB2DC11102C06FEF01C061E185
:104C300084E290E00E94CB2DC11102C06FEF01C051
:104C400065E085E290E0CF910C94CB2D80E00E944E
:104C5000082660E086E290E00E94CB2D0E94A1250C
:104C60000E94912581E00C94082683E290E00E9446
:104C7000B72D813281F484E290E00E94B72D81311A
:104C800051F485E290E00E94B72D91E0853009F063
:104C900090E0892F01C080E081700895882311F091
:104CA000FA0101C0FB0109948091B70480FF0AC09A
:104CB000869A81B38F7B91B390642FB7F894E5EA1D
:104CC000F4E00BC0E5EAF4E0118210821282339620
:104CD00034E0E73BF307C1F7EBCF34E0E73BF30702
:104CE00089F0319148E091BB000000C037FF81BBE3
:104CF000330F000000C000C000C081BB00C04A9557
:104D000091F7EBCF2FBF8FE594E00197F1F700C04B
:104D1000000008959F92AF92BF92CF92DF92EF92E0
:104D2000FF920F931F93CF93DF939091B70490FF5F
:104D3000B2C0922E142FC62FD82F9E7F923009F02A
:104D40008DC0E42FF0E0611106C0E55FF44FE491FF
:104D5000FE2F2E2F72C0E62EF12CE55FF44FF4915A
:104D60000F2FCF2ED12C26E0829FC00111242FEFD0
:104D700030E0B9010E949A2D4BEA4603C001479FDB
:104D8000900D11248D0F911D8D0F911DB82EBB0C10
:104D9000B80EA9014E195F094C9DC0014D9D900DA3
:104DA0005C9D900D1124E92FCB9DA0011124452F6E
:104DB0005527D901A41BB50BAC9DA001AD9D500D8D
:104DC000BC9D500D1124D901AB19B1095D01AE9CF8
:104DD000D001AF9CB00DBE9CB00D1124AB2FBB27F2
:104DE0002A1B3B0B2C9DD0012D9DB00D3C9DB00D81
:104DF00011242B2F6230710591F048F46115710573
:104E0000E1F061307105B9F42F2FF52F16C0643031
:104E1000710569F040F06630710579F00CC02F2FF4
:104E2000F92FEB2F0AC0F92FE02F252F06C0292FCD
:104E3000EF2FFB2F02C0292FE52FA5EAB4E087EB67
:104E400094E01196FC9311972C931296EC93129781
:104E500013968A179B07A9F70E945426D093B8048B
:104E6000C093B9041093BA049920A9F06091B704D3
:104E70007091B8048091B9049091BA04DF91CF91F8
:104E80001F910F91FF90EF90DF90CF90BF90AF9068
:104E90009F900C943F2CDF91CF911F910F91FF9029
:104EA000EF90DF90CF90BF90AF909F9008951F93A9
:104EB000CF93DF93CDB7DEB767970FB6F894DEBF19
:104EC0000FBECDBF4B8B5C8B6D8B7E8B8F8B61113F
:104ED00010929E0486E09E01235F3F4FD901E82F88
:104EE0001D92EA95E9F795E0FE017396D9010190CC
:104EF0000D929A95E1F79C894E895F897B897D8720
:104F00009E876F87598B488BF901DE0117960190B8
:104F10000D928A95E1F7CE0107960E9485208111B6
:104F20003EC086E0FE013796DE01119601900D929B
:104F30008A95E1F7FF81E8856A857B8561157105B2
:104F400031F0EF3F31F481E0FF3F19F403C081E01D
:104F500001C080E080FD23C020916A0430E0C901D7
:104F600001968770992740919B0450E0841795071C
:104F700079F1F983EA837D836C8396E0929FD00177
:104F8000939FB00D1124A559BB4FFE01319601909E
:104F90000D929A95E1F780936A040E94022016E030
:104FA00080919B0490916A048917F9F0189FC001C1
:104FB000112485599B4F0E9485208823B1F0809150
:104FC0009B0490E001968770992780939B04E8CF1B
:104FD0000E94052B10926A0410929B04E4E6F4E010
:104FE00086E0DF011D928A95E9F767960FB6F8947F
:104FF000DEBF0FBECDBFDF91CF911F910895982FD7
:1050000092959F7019F0892F24E001C020E0982F1D
:105010009695969511F02E5F892F982F969509F009
:105020002F5F822F0895CF93DF930E94902481FBFE
:10503000DD27D0F982FBCC27C0F980FD03C08EE2CA
:105040009EE002C083E39EE00E940818D11103C0D5
:1050500084E29EE002C089E29EE00E940818C1112D
:1050600003C08AE19EE002C08FE19EE0DF91CF9114
:105070000C940818CF93C82F0E947C2563E080E031
:105080000E946525C11113C08DE30E946E17E0E3F5
:10509000F4E001900020E9F73197E053F44063E039
:1050A00085E18E1B0E946525CF910C94EE1783E05D
:1050B0009EE0CF910C9408188F929F92AF92BF926E
:1050C000CF92DF92EF92FF928091A3018230E1F0C4
:1050D000B0F4813009F077C02091960130919701AA
:1050E000409198015091990160919A0170919B01B2
:1050F00080919C0190919D010E94002E5CC08330A4
:10510000B1F0843039F15FC0209196013091970160
:10511000409198015091990160919A0170919B0181
:1051200080919C0190919D010E94FF2D44C020918F
:1051300096013091970140919801509199016091A9
:105140009A0170919B0180919C0190919D010E9418
:10515000D02F31C0C0909A01D0909B01E0909C016B
:10516000F0909D0120E030E0A901C701B6010E9446
:105170006C2E882389F08090960190909701A090E2
:105180009801B090990120E030E0A901C501B40177
:105190000E946C2E811109C010929E0110929F01F5
:1051A0001092A0011092A1010EC0A5019401C701A7
:1051B000B6010E94712E60939E0170939F018093AF
:1051C000A0019093A101FF90EF90DF90CF90BF904E
:1051D000AF909F908F9008958F929F92AF92BF92C1
:1051E000CF92DF92EF92FF920F931F93CF93DF93B3
:1051F0002091A4012111FCC0EC018091A201811138
:1052000079C0C0909A01D0909B01E0909C01F090F1
:105210009D010AE010E08AE0C017D1073CF0980138
:10522000829F8001839F100D1124F6CF20E030E093
:10523000A901C701B6010E946C2EA801110F660BCF
:10524000770B4E010D2E000CAA08BB0887FF15C076
:10525000CB01BA010E941B2FA70196010E94D02FFB
:105260006B017C01C501B4010E941B2F9B01AC01A5
:10527000C701B6010E94FF2D14C0CB01BA010E94E4
:105280001B2FA70196010E94D02F6B017C01C50145
:10529000B4010E941B2F9B01AC01C701B6010E9403
:1052A000002E60939A0170939B0180939C019093D0
:1052B0009D01299719F040E050E002C041E050E024
:1052C0000E94341660919A0170919B0180919C011B
:1052D00090919D0140E050E00E9434160E947C2590
:1052E000E0E3F4E001900020E9F73197E053F44067
:1052F00062E06CC0C0909601D0909701E090980158
:10530000F09099010AE010E08AE0C017D1073CF064
:105310009801829F8001839F100D1124F6CF20E019
:1053200030E0A901C701B6010E946C2E4E01DD0FCD
:10533000AA08BB08A801110F660B770B87FF15C0E1
:10534000CB01BA010E941B2FA70196010E94D02F0A
:105350006B017C01C501B4010E941B2F9B01AC01B4
:10536000C701B6010E94FF2D14C0CB01BA010E94F3
:105370001B2FA70196010E94D02F6B017C01C50154
:10538000B4010E941B2F9B01AC01C701B6010E9412
:10539000002E6093960170939701809398019093EB
:1053A000990140E050E00E94341663E081E00E94E1
:1053B00065258DEE9DE00E940818E0E3F4E0019081
:1053C0000020E9F73197E053F44063E085E18E1B5C
:1053D0000E946525DF91CF911F910F91FF90EF9073
:1053E000DF90CF90BF90AF909F908F900C94EE176E
:1053F000DF91CF911F910F91FF90EF90DF90CF90B1
:10540000BF90AF909F908F90089510929A01109244
:105410009B0110929C0110929D0110929601109296
:105420009701109298011092990110929E0110928A
:105430009F011092A0011092A1011092A30110925D
:10544000A2011092A401089580E090E00E947A24C5
:1054500080E090E00E94642410929E0410929D04CB
:105460000C94851FCF92DF92FF920F931F93CF93DF
:10547000DF936C01009124028091A104082BC7E006
:10548000D0E010E0C8010C2E02C0959587950A94D3
:10549000E2F780FD04C02197A8F7F12C09C0FC2E8B
:1054A000B6018C2F0E94FB250E94701D019799F375
:1054B0008F2DDF91CF911F910F91FF90DF90CF90B3
:1054C000089524E0929F900D1124890F682F66950E
:1054D00066956695982F977083E0689FB0011124B8
:1054E00040E050E080E0FB01E40FF51FEB52FB4F82
:1054F000208130E0092E02C0369527950A94E2F704
:1055000021703327042E01C0220F0A94EAF7822B60
:105510004F5F5F4F4330510531F7089524E0929F6C
:10552000900D1124890FE82FE695E695E695877092
:1055300051E001C0550F8A95EAF783E0E89FF0013A
:105540001124EB52FB4F20E030E070E04081CB01B2
:10555000022E02C0969587950A94E2F78170819594
:1055600084278523842781932F5F3F4F2330310584
:1055700069F70895809324020C94242A21E030E0F6
:1055800001C0220F8A95EAF7209580912402822398
:105590000C94BA2A21E030E001C0220F8A95EAF784
:1055A00080912402822B0C94BA2A8093A1040C943B
:1055B000242AFC01808191810E947820292F2F705C
:1055C000E92FE295EF704E2F50E0FA013297EE305E
:1055D000F105B8F4E158FF4F0C94D730803F99F0B3
:1055E00018F4883E70F40FC0843F59F40CC0883E14
:1055F00050F0813F31F407C0822F869586958695BD
:10560000089580E0089581E0089510929F048091AC
:105610001201882331F08091D00487FF02C08EE10F
:1056200001C086E0E6E4F4E0DF011D928A95E9F727
:105630000C94242A882341F0809590919F0489231B
:1056400080939F040C94851F0895882339F09091CE
:105650009F04892B80939F040C94851F08958823B1
:1056600079F19CEF980F913A30F4682F84E494E03C
:105670000E94072414C090E2980F983090F487702D
:1056800021E030E0A90102C0440F551F8A95E2F7DE
:10569000CA01809590919F04892380939F040C9464
:1056A000851F9BE5980F933020F480E090E00C94E8
:1056B0007A24885A873120F480E090E00C946424A6
:1056C0000895CF93882309F46DC09CEF980F913A09
:1056D000C8F5C82F809112018823E1F08091D00491
:1056E00087FF18C0EC2FE695E695E695F0E0EC5BB9
:1056F000FB4F8281282F30E04C2F477081E090E0F3
:1057000002C0880F991F4A95E2F782239323892BC1
:1057100061F412C0E6E4F4E08CE494E02191C21755
:1057200021F08E179F07D1F707C06C2F84E494E017
:105730000E9407240E94851F6C2F84E494E00E943D
:105740002F2413C090E2980F983090F4877021E0D6
:1057500030E0A90102C0440F551F8A95E2F7CA0143
:1057600090919F04892B80939F04CF910C94851F67
:10577000EBE5E80FE33040F4F0E0ED59FE4F8081B7
:1057800090E0CF910C947A24885A873158F4E82F0E
:10579000F0E0EE0FFF1FEA59FE4F80819181CF911B
:1057A0000C946424CF9108951F93CF93DF93182F07
:1057B000893319F0C0E0D0E002C0C0E5D0E0812F0D
:1057C0000E94612B209741F08FE99FE00197F1F74C
:1057D00000C000002197F6CF812FDF91CF911F915C
:1057E0000C942F2BE7EBF4E0438128E0421B08F4F4
:1057F00040E021E0628181810C948A26E7EBF4E0AD
:10580000438128E0420F08F44FEF21E0628181815B
:105810000C948A26E7EBF4E0628128E0621B08F42E
:1058200060E021E0438181810C948A26E7EBF4E07B
:10583000628128E0620F08F46FEF21E043818181EB
:105840000C948A26E7EBF4E0818121E043816281B8
:1058500088500C948A26E7EBF4E0818121E04381B3
:105860006281885F0C948A268091B704982F969560
:10587000913021F0817082608093B7040895CF92B7
:10588000DF92EF92FF926B017C010E94342CB701F2
:10589000A60188E090E0FF90EF90DF90CF900C940D
:1058A000DD2D8091B70480FF19C0817082608093E4
:1058B000B704662351F06091B7047091B8048091E9
:1058C000B9049091BA040E943F2C20E04091BA04A0
:1058D0006091B9048091B8040C948A26089580914F
:1058E000B7048695815009F481E061E00C94512C55
:1058F00061E081E00C94512CE7EBF4E083E08083DD
:1059000011828FEF8283838314826081718182810F
:1059100093810C943F2C1092B9008CE08093B800D6
:1059200008959F92AF92BF92CF92DF92EF92FF9233
:105930000F931F93CF93DF93B82EEB010E94D223D6
:105940006C01C431D10558F0CF3F8FEFD80759F023
:10595000CE0164E170E00E949A2D7B0107C0EE2425
:10596000E394F12C03C025E0E22EF12C84E8A82E6C
:1059700094EA992E1092BC009092BC000E94D2230F
:105980008C018091BC0087FD08C00E94D223801B3F
:10599000910B8E159F05A8F32AC08091B900887FCE
:1059A000883041F08091B900887F803119F00FEF85
:1059B0001FEF1FC0B092BB00A092BC000E94D22378
:1059C0008C018091BC0087FD08C00E94D223801BFF
:1059D000910B8E159F05A8F30AC08091B900887FAE
:1059E000883111F0803419F700E010E00EC00EEF9E
:1059F0001FEFCF3F8FEFD80709F4BCCFC6010E943D
:105A0000B7238C179D0708F4B5CFC801DF91CF915C
:105A10001F910F91FF90EF90DF90CF90BF90AF90CC
:105A20009F9008950F931F93CF93DF93EB01809383
:105A3000BB0084E88093BC000E94D2238C0180913B
:105A4000BC0087FD0EC0CF3F8FEFD807C1F30E9487
:105A5000D223801B910B8C179D0788F38EEF9FEF4D
:105A60000CC02091B900287F81E090E0283211F429
:105A700080E090E0919581959109DF91CF911F9100
:105A80000F910895CF92DF92EF92FF920F931F93A1
:105A9000CF93DF936B018A017901B9010E94912CA8
:105AA000E6010C0D1D1DC017D10761F424E92093F8
:105AB000BC00DF91CF911F910F91FF90EF90DF908D
:105AC000CF90089597FDF2CFB70189910E94122DD2
:105AD000EACFCF92DF92EF92FF920F931F93CF9373
